{
  "_format": "hh-sol-artifact-1",
  "contractName": "RollParticipationTokenV0",
  "sourceName": "contracts/RollParticipationTokenV0.sol",
  "abi": [
    {
      "inputs": [],
      "stateMutability": "payable",
      "type": "constructor"
    },
    {
      "anonymous": false,
      "inputs": [
        {
          "indexed": true,
          "internalType": "address",
          "name": "owner",
          "type": "address"
        },
        {
          "indexed": true,
          "internalType": "address",
          "name": "approved",
          "type": "address"
        },
        {
          "indexed": true,
          "internalType": "uint256",
          "name": "tokenId",
          "type": "uint256"
        }
      ],
      "name": "Approval",
      "type": "event"
    },
    {
      "anonymous": false,
      "inputs": [
        {
          "indexed": true,
          "internalType": "address",
          "name": "owner",
          "type": "address"
        },
        {
          "indexed": true,
          "internalType": "address",
          "name": "operator",
          "type": "address"
        },
        {
          "indexed": false,
          "internalType": "bool",
          "name": "approved",
          "type": "bool"
        }
      ],
      "name": "ApprovalForAll",
      "type": "event"
    },
    {
      "anonymous": false,
      "inputs": [
        {
          "indexed": false,
          "internalType": "address",
          "name": "sender",
          "type": "address"
        },
        {
          "indexed": false,
          "internalType": "uint256",
          "name": "tokenId",
          "type": "uint256"
        },
        {
          "indexed": false,
          "internalType": "string",
          "name": "rollId",
          "type": "string"
        },
        {
          "indexed": false,
          "internalType": "string",
          "name": "ticketId",
          "type": "string"
        }
      ],
      "name": "PrizeClaimed",
      "type": "event"
    },
    {
      "anonymous": false,
      "inputs": [
        {
          "indexed": false,
          "internalType": "address",
          "name": "sender",
          "type": "address"
        },
        {
          "indexed": false,
          "internalType": "uint256",
          "name": "tokenId",
          "type": "uint256"
        },
        {
          "indexed": false,
          "internalType": "string",
          "name": "rollId",
          "type": "string"
        },
        {
          "indexed": false,
          "internalType": "string",
          "name": "ticketId",
          "type": "string"
        }
      ],
      "name": "RollParticipationTokenMinted",
      "type": "event"
    },
    {
      "anonymous": false,
      "inputs": [
        {
          "indexed": true,
          "internalType": "address",
          "name": "from",
          "type": "address"
        },
        {
          "indexed": true,
          "internalType": "address",
          "name": "to",
          "type": "address"
        },
        {
          "indexed": true,
          "internalType": "uint256",
          "name": "tokenId",
          "type": "uint256"
        }
      ],
      "name": "Transfer",
      "type": "event"
    },
    {
      "stateMutability": "payable",
      "type": "fallback"
    },
    {
      "inputs": [
        {
          "internalType": "address",
          "name": "to",
          "type": "address"
        },
        {
          "internalType": "uint256",
          "name": "tokenId",
          "type": "uint256"
        }
      ],
      "name": "approve",
      "outputs": [],
      "stateMutability": "nonpayable",
      "type": "function"
    },
    {
      "inputs": [
        {
          "internalType": "address",
          "name": "owner",
          "type": "address"
        }
      ],
      "name": "balanceOf",
      "outputs": [
        {
          "internalType": "uint256",
          "name": "",
          "type": "uint256"
        }
      ],
      "stateMutability": "view",
      "type": "function"
    },
    {
      "inputs": [
        {
          "internalType": "uint256",
          "name": "_tokenId",
          "type": "uint256"
        }
      ],
      "name": "claimRevenue",
      "outputs": [],
      "stateMutability": "nonpayable",
      "type": "function"
    },
    {
      "inputs": [
        {
          "internalType": "uint256",
          "name": "tokenId",
          "type": "uint256"
        }
      ],
      "name": "getApproved",
      "outputs": [
        {
          "internalType": "address",
          "name": "",
          "type": "address"
        }
      ],
      "stateMutability": "view",
      "type": "function"
    },
    {
      "inputs": [
        {
          "internalType": "address",
          "name": "owner",
          "type": "address"
        },
        {
          "internalType": "address",
          "name": "operator",
          "type": "address"
        }
      ],
      "name": "isApprovedForAll",
      "outputs": [
        {
          "internalType": "bool",
          "name": "",
          "type": "bool"
        }
      ],
      "stateMutability": "view",
      "type": "function"
    },
    {
      "inputs": [
        {
          "internalType": "string",
          "name": "ticketlId",
          "type": "string"
        },
        {
          "internalType": "string",
          "name": "rollId",
          "type": "string"
        },
        {
          "internalType": "address",
          "name": "rollContract",
          "type": "address"
        },
        {
          "internalType": "address",
          "name": "currencyToken",
          "type": "address"
        },
        {
          "internalType": "uint256",
          "name": "amount",
          "type": "uint256"
        }
      ],
      "name": "mint",
      "outputs": [],
      "stateMutability": "nonpayable",
      "type": "function"
    },
    {
      "inputs": [],
      "name": "name",
      "outputs": [
        {
          "internalType": "string",
          "name": "",
          "type": "string"
        }
      ],
      "stateMutability": "view",
      "type": "function"
    },
    {
      "inputs": [
        {
          "internalType": "uint256",
          "name": "",
          "type": "uint256"
        }
      ],
      "name": "nftHolderAttributes",
      "outputs": [
        {
          "internalType": "string",
          "name": "id",
          "type": "string"
        },
        {
          "internalType": "string",
          "name": "rollId",
          "type": "string"
        },
        {
          "internalType": "address",
          "name": "rollContract",
          "type": "address"
        },
        {
          "internalType": "uint256",
          "name": "status",
          "type": "uint256"
        }
      ],
      "stateMutability": "view",
      "type": "function"
    },
    {
      "inputs": [
        {
          "internalType": "address",
          "name": "",
          "type": "address"
        }
      ],
      "name": "nftHolders",
      "outputs": [
        {
          "internalType": "uint256",
          "name": "",
          "type": "uint256"
        }
      ],
      "stateMutability": "view",
      "type": "function"
    },
    {
      "inputs": [
        {
          "internalType": "uint256",
          "name": "tokenId",
          "type": "uint256"
        }
      ],
      "name": "ownerOf",
      "outputs": [
        {
          "internalType": "address",
          "name": "",
          "type": "address"
        }
      ],
      "stateMutability": "view",
      "type": "function"
    },
    {
      "inputs": [
        {
          "internalType": "address",
          "name": "from",
          "type": "address"
        },
        {
          "internalType": "address",
          "name": "to",
          "type": "address"
        },
        {
          "internalType": "uint256",
          "name": "tokenId",
          "type": "uint256"
        }
      ],
      "name": "safeTransferFrom",
      "outputs": [],
      "stateMutability": "nonpayable",
      "type": "function"
    },
    {
      "inputs": [
        {
          "internalType": "address",
          "name": "from",
          "type": "address"
        },
        {
          "internalType": "address",
          "name": "to",
          "type": "address"
        },
        {
          "internalType": "uint256",
          "name": "tokenId",
          "type": "uint256"
        },
        {
          "internalType": "bytes",
          "name": "data",
          "type": "bytes"
        }
      ],
      "name": "safeTransferFrom",
      "outputs": [],
      "stateMutability": "nonpayable",
      "type": "function"
    },
    {
      "inputs": [
        {
          "internalType": "address",
          "name": "operator",
          "type": "address"
        },
        {
          "internalType": "bool",
          "name": "approved",
          "type": "bool"
        }
      ],
      "name": "setApprovalForAll",
      "outputs": [],
      "stateMutability": "nonpayable",
      "type": "function"
    },
    {
      "inputs": [
        {
          "internalType": "bytes4",
          "name": "interfaceId",
          "type": "bytes4"
        }
      ],
      "name": "supportsInterface",
      "outputs": [
        {
          "internalType": "bool",
          "name": "",
          "type": "bool"
        }
      ],
      "stateMutability": "view",
      "type": "function"
    },
    {
      "inputs": [],
      "name": "symbol",
      "outputs": [
        {
          "internalType": "string",
          "name": "",
          "type": "string"
        }
      ],
      "stateMutability": "view",
      "type": "function"
    },
    {
      "inputs": [
        {
          "internalType": "uint256",
          "name": "_tokenId",
          "type": "uint256"
        }
      ],
      "name": "tokenURI",
      "outputs": [
        {
          "internalType": "string",
          "name": "",
          "type": "string"
        }
      ],
      "stateMutability": "view",
      "type": "function"
    },
    {
      "inputs": [
        {
          "internalType": "address",
          "name": "from",
          "type": "address"
        },
        {
          "internalType": "address",
          "name": "to",
          "type": "address"
        },
        {
          "internalType": "uint256",
          "name": "tokenId",
          "type": "uint256"
        }
      ],
      "name": "transferFrom",
      "outputs": [],
      "stateMutability": "nonpayable",
      "type": "function"
    },
    {
      "stateMutability": "payable",
      "type": "receive"
    }
  ],
  "bytecode": "0x6080604052604051806060016040528060238152602001620039f8602391396040518060400160405280600381526020017f525054000000000000000000000000000000000000000000000000000000000081525081600090805190602001906200006c929190620001d2565b50806001908051906020019062000085929190620001d2565b505050620000d36040518060400160405280601a81526020017f536d61727420436f6e747261637420696e697469616c697a6564000000000000815250620000f060201b620012661760201c565b620000ea60066200019360201b620012ff1760201c565b620003af565b6200019081604051602401620001079190620002c3565b6040516020818303038152906040527f41304fac000000000000000000000000000000000000000000000000000000007bffffffffffffffffffffffffffffffffffffffffffffffffffffffff19166020820180517bffffffffffffffffffffffffffffffffffffffffffffffffffffffff8381831617835250505050620001a960201b60201c565b50565b6001816000016000828254019250508190555050565b60008151905060006a636f6e736f6c652e6c6f679050602083016000808483855afa5050505050565b828054620001e09062000339565b90600052602060002090601f01602090048101928262000204576000855562000250565b82601f106200021f57805160ff191683800117855562000250565b8280016001018555821562000250579182015b828111156200024f57825182559160200191906001019062000232565b5b5090506200025f919062000263565b5090565b5b808211156200027e57600081600090555060010162000264565b5090565b60006200028f82620002e7565b6200029b8185620002f2565b9350620002ad81856020860162000303565b620002b8816200039e565b840191505092915050565b60006020820190508181036000830152620002df818462000282565b905092915050565b600081519050919050565b600082825260208201905092915050565b60005b838110156200032357808201518184015260208101905062000306565b8381111562000333576000848401525b50505050565b600060028204905060018216806200035257607f821691505b602082108114156200036957620003686200036f565b5b50919050565b7f4e487b7100000000000000000000000000000000000000000000000000000000600052602260045260246000fd5b6000601f19601f8301169050919050565b61363980620003bf6000396000f3fe6080604052600436106101025760003560e01c80636352211e1161009557806398da4c951161006457806398da4c951461035f578063a22cb4651461039f578063b88d4fde146103c8578063c87b56dd146103f1578063e985e9c51461042e57610109565b80636352211e1461027d57806370a08231146102ba5780637df124a1146102f757806395d89b411461033457610109565b80630a29506d116100d15780630a29506d146101d95780631cb536ed1461020257806323b872dd1461022b57806342842e0e1461025457610109565b806301ffc9a71461010b57806306fdde0314610148578063081812fc14610173578063095ea7b3146101b057610109565b3661010957005b005b34801561011757600080fd5b50610132600480360381019061012d9190612502565b61046b565b60405161013f9190612ac2565b60405180910390f35b34801561015457600080fd5b5061015d61054d565b60405161016a9190612add565b60405180910390f35b34801561017f57600080fd5b5061019a600480360381019061019591906125fb565b6105df565b6040516101a791906129d1565b60405180910390f35b3480156101bc57600080fd5b506101d760048036038101906101d2919061249d565b610625565b005b3480156101e557600080fd5b5061020060048036038101906101fb9190612554565b61073d565b005b34801561020e57600080fd5b50610229600480360381019061022491906125fb565b610951565b005b34801561023757600080fd5b50610252600480360381019061024d9190612397565b610b4b565b005b34801561026057600080fd5b5061027b60048036038101906102769190612397565b610bab565b005b34801561028957600080fd5b506102a4600480360381019061029f91906125fb565b610bcb565b6040516102b191906129d1565b60405180910390f35b3480156102c657600080fd5b506102e160048036038101906102dc9190612332565b610c7d565b6040516102ee9190612cb2565b60405180910390f35b34801561030357600080fd5b5061031e60048036038101906103199190612332565b610d35565b60405161032b9190612cb2565b60405180910390f35b34801561034057600080fd5b50610349610d4d565b6040516103569190612add565b60405180910390f35b34801561036b57600080fd5b50610386600480360381019061038191906125fb565b610ddf565b6040516103969493929190612aff565b60405180910390f35b3480156103ab57600080fd5b506103c660048036038101906103c19190612461565b610f3f565b005b3480156103d457600080fd5b506103ef60048036038101906103ea91906123e6565b610f55565b005b3480156103fd57600080fd5b50610418600480360381019061041391906125fb565b610fb7565b6040516104259190612add565b60405180910390f35b34801561043a57600080fd5b506104556004803603810190610450919061235b565b6111d2565b6040516104629190612ac2565b60405180910390f35b60007f80ac58cd000000000000000000000000000000000000000000000000000000007bffffffffffffffffffffffffffffffffffffffffffffffffffffffff1916827bffffffffffffffffffffffffffffffffffffffffffffffffffffffff1916148061053657507f5b5e139f000000000000000000000000000000000000000000000000000000007bffffffffffffffffffffffffffffffffffffffffffffffffffffffff1916827bffffffffffffffffffffffffffffffffffffffffffffffffffffffff1916145b80610546575061054582611315565b5b9050919050565b60606000805461055c90612f62565b80601f016020809104026020016040519081016040528092919081815260200182805461058890612f62565b80156105d55780601f106105aa576101008083540402835291602001916105d5565b820191906000526020600020905b8154815290600101906020018083116105b857829003601f168201915b5050505050905090565b60006105ea8261137f565b6004600083815260200190815260200160002060009054906101000a900473ffffffffffffffffffffffffffffffffffffffff169050919050565b600061063082610bcb565b90508073ffffffffffffffffffffffffffffffffffffffff168373ffffffffffffffffffffffffffffffffffffffff1614156106a1576040517f08c379a000000000000000000000000000000000000000000000000000000000815260040161069890612c72565b60405180910390fd5b8073ffffffffffffffffffffffffffffffffffffffff166106c06113ca565b73ffffffffffffffffffffffffffffffffffffffff1614806106ef57506106ee816106e96113ca565b6111d2565b5b61072e576040517f08c379a000000000000000000000000000000000000000000000000000000000815260040161072590612c12565b60405180910390fd5b61073883836113d2565b505050565b6000610749600661148b565b90508273ffffffffffffffffffffffffffffffffffffffff166323b872dd3330856040518463ffffffff1660e01b8152600401610788939291906129ec565b602060405180830381600087803b1580156107a257600080fd5b505af11580156107b6573d6000803e3d6000fd5b505050506040513d601f19601f820116820180604052508101906107da91906124d9565b506107e53382611499565b60405180608001604052808781526020018681526020018573ffffffffffffffffffffffffffffffffffffffff168152602001600081525060076000838152602001908152602001600020600082015181600001908051906020019061084c929190612141565b506020820151816001019080519060200190610869929190612141565b5060408201518160020160006101000a81548173ffffffffffffffffffffffffffffffffffffffff021916908373ffffffffffffffffffffffffffffffffffffffff1602179055506060820151816003015590505080600860003373ffffffffffffffffffffffffffffffffffffffff1673ffffffffffffffffffffffffffffffffffffffff1681526020019081526020016000208190555061090c60066112ff565b7f85e196c2541403613b34827cb106c3ee11e4eb9356a174c9a5330183ebfb0363338287896040516109419493929190612a6f565b60405180910390a1505050505050565b60006007600083815260200190815260200160002060405180608001604052908160008201805461098190612f62565b80601f01602080910402602001604051908101604052809291908181526020018280546109ad90612f62565b80156109fa5780601f106109cf576101008083540402835291602001916109fa565b820191906000526020600020905b8154815290600101906020018083116109dd57829003601f168201915b50505050508152602001600182018054610a1390612f62565b80601f0160208091040260200160405190810160405280929190818152602001828054610a3f90612f62565b8015610a8c5780601f10610a6157610100808354040283529160200191610a8c565b820191906000526020600020905b815481529060010190602001808311610a6f57829003601f168201915b505050505081526020016002820160009054906101000a900473ffffffffffffffffffffffffffffffffffffffff1673ffffffffffffffffffffffffffffffffffffffff1673ffffffffffffffffffffffffffffffffffffffff168152602001600382015481525050905060018160600181815250507f65a1fce8ecec95b58988842bcaab80a0c998fbe0d0877986ee96814a7e281884338383602001518460000151604051610b3f9493929190612a6f565b60405180910390a15050565b610b5c610b566113ca565b826114b7565b610b9b576040517f08c379a0000000000000000000000000000000000000000000000000000000008152600401610b9290612c92565b60405180910390fd5b610ba683838361154c565b505050565b610bc683838360405180602001604052806000815250610f55565b505050565b6000806002600084815260200190815260200160002060009054906101000a900473ffffffffffffffffffffffffffffffffffffffff169050600073ffffffffffffffffffffffffffffffffffffffff168173ffffffffffffffffffffffffffffffffffffffff161415610c74576040517f08c379a0000000000000000000000000000000000000000000000000000000008152600401610c6b90612c52565b60405180910390fd5b80915050919050565b60008073ffffffffffffffffffffffffffffffffffffffff168273ffffffffffffffffffffffffffffffffffffffff161415610cee576040517f08c379a0000000000000000000000000000000000000000000000000000000008152600401610ce590612bf2565b60405180910390fd5b600360008373ffffffffffffffffffffffffffffffffffffffff1673ffffffffffffffffffffffffffffffffffffffff168152602001908152602001600020549050919050565b60086020528060005260406000206000915090505481565b606060018054610d5c90612f62565b80601f0160208091040260200160405190810160405280929190818152602001828054610d8890612f62565b8015610dd55780601f10610daa57610100808354040283529160200191610dd5565b820191906000526020600020905b815481529060010190602001808311610db857829003601f168201915b5050505050905090565b6007602052806000526040600020600091509050806000018054610e0290612f62565b80601f0160208091040260200160405190810160405280929190818152602001828054610e2e90612f62565b8015610e7b5780601f10610e5057610100808354040283529160200191610e7b565b820191906000526020600020905b815481529060010190602001808311610e5e57829003601f168201915b505050505090806001018054610e9090612f62565b80601f0160208091040260200160405190810160405280929190818152602001828054610ebc90612f62565b8015610f095780601f10610ede57610100808354040283529160200191610f09565b820191906000526020600020905b815481529060010190602001808311610eec57829003601f168201915b5050505050908060020160009054906101000a900473ffffffffffffffffffffffffffffffffffffffff16908060030154905084565b610f51610f4a6113ca565b83836117b3565b5050565b610f66610f606113ca565b836114b7565b610fa5576040517f08c379a0000000000000000000000000000000000000000000000000000000008152600401610f9c90612c92565b60405180910390fd5b610fb184848484611920565b50505050565b6060600060076000848152602001908152602001600020604051806080016040529081600082018054610fe990612f62565b80601f016020809104026020016040519081016040528092919081815260200182805461101590612f62565b80156110625780601f1061103757610100808354040283529160200191611062565b820191906000526020600020905b81548152906001019060200180831161104557829003601f168201915b5050505050815260200160018201805461107b90612f62565b80601f01602080910402602001604051908101604052809291908181526020018280546110a790612f62565b80156110f45780601f106110c9576101008083540402835291602001916110f4565b820191906000526020600020905b8154815290600101906020018083116110d757829003601f168201915b505050505081526020016002820160009054906101000a900473ffffffffffffffffffffffffffffffffffffffff1673ffffffffffffffffffffffffffffffffffffffff1673ffffffffffffffffffffffffffffffffffffffff168152602001600382015481525050905060006111a18260200151836000015161117b856060015161197c565b60405160200161118d93929190612969565b604051602081830303815290604052611b29565b90506000816040516020016111b69190612947565b6040516020818303038152906040529050809350505050919050565b6000600560008473ffffffffffffffffffffffffffffffffffffffff1673ffffffffffffffffffffffffffffffffffffffff16815260200190815260200160002060008373ffffffffffffffffffffffffffffffffffffffff1673ffffffffffffffffffffffffffffffffffffffff16815260200190815260200160002060009054906101000a900460ff16905092915050565b6112fc8160405160240161127a9190612add565b6040516020818303038152906040527f41304fac000000000000000000000000000000000000000000000000000000007bffffffffffffffffffffffffffffffffffffffffffffffffffffffff19166020820180517bffffffffffffffffffffffffffffffffffffffffffffffffffffffff8381831617835250505050611cb3565b50565b6001816000016000828254019250508190555050565b60007f01ffc9a7000000000000000000000000000000000000000000000000000000007bffffffffffffffffffffffffffffffffffffffffffffffffffffffff1916827bffffffffffffffffffffffffffffffffffffffffffffffffffffffff1916149050919050565b61138881611cdc565b6113c7576040517f08c379a00000000000000000000000000000000000000000000000000000000081526004016113be90612c52565b60405180910390fd5b50565b600033905090565b816004600083815260200190815260200160002060006101000a81548173ffffffffffffffffffffffffffffffffffffffff021916908373ffffffffffffffffffffffffffffffffffffffff160217905550808273ffffffffffffffffffffffffffffffffffffffff1661144583610bcb565b73ffffffffffffffffffffffffffffffffffffffff167f8c5be1e5ebec7d5bd14f71427d1e84f3dd0314c0f7b2291e5b200ac8c7c3b92560405160405180910390a45050565b600081600001549050919050565b6114b3828260405180602001604052806000815250611d48565b5050565b6000806114c383610bcb565b90508073ffffffffffffffffffffffffffffffffffffffff168473ffffffffffffffffffffffffffffffffffffffff161480611505575061150481856111d2565b5b8061154357508373ffffffffffffffffffffffffffffffffffffffff1661152b846105df565b73ffffffffffffffffffffffffffffffffffffffff16145b91505092915050565b8273ffffffffffffffffffffffffffffffffffffffff1661156c82610bcb565b73ffffffffffffffffffffffffffffffffffffffff16146115c2576040517f08c379a00000000000000000000000000000000000000000000000000000000081526004016115b990612b72565b60405180910390fd5b600073ffffffffffffffffffffffffffffffffffffffff168273ffffffffffffffffffffffffffffffffffffffff161415611632576040517f08c379a000000000000000000000000000000000000000000000000000000000815260040161162990612bb2565b60405180910390fd5b61163d838383611da3565b6116486000826113d2565b6001600360008573ffffffffffffffffffffffffffffffffffffffff1673ffffffffffffffffffffffffffffffffffffffff16815260200190815260200160002060008282546116989190612e78565b925050819055506001600360008473ffffffffffffffffffffffffffffffffffffffff1673ffffffffffffffffffffffffffffffffffffffff16815260200190815260200160002060008282546116ef9190612d97565b92505081905550816002600083815260200190815260200160002060006101000a81548173ffffffffffffffffffffffffffffffffffffffff021916908373ffffffffffffffffffffffffffffffffffffffff160217905550808273ffffffffffffffffffffffffffffffffffffffff168473ffffffffffffffffffffffffffffffffffffffff167fddf252ad1be2c89b69c2b068fc378daa952ba7f163c4a11628f55a4df523b3ef60405160405180910390a46117ae838383611da8565b505050565b8173ffffffffffffffffffffffffffffffffffffffff168373ffffffffffffffffffffffffffffffffffffffff161415611822576040517f08c379a000000000000000000000000000000000000000000000000000000000815260040161181990612bd2565b60405180910390fd5b80600560008573ffffffffffffffffffffffffffffffffffffffff1673ffffffffffffffffffffffffffffffffffffffff16815260200190815260200160002060008473ffffffffffffffffffffffffffffffffffffffff1673ffffffffffffffffffffffffffffffffffffffff16815260200190815260200160002060006101000a81548160ff0219169083151502179055508173ffffffffffffffffffffffffffffffffffffffff168373ffffffffffffffffffffffffffffffffffffffff167f17307eab39ab6107e8899845ad3d59bd9653f200f220920489ca2b5937696c31836040516119139190612ac2565b60405180910390a3505050565b61192b84848461154c565b61193784848484611dad565b611976576040517f08c379a000000000000000000000000000000000000000000000000000000000815260040161196d90612b52565b60405180910390fd5b50505050565b606060008214156119c4576040518060400160405280600181526020017f30000000000000000000000000000000000000000000000000000000000000008152509050611b24565b600082905060005b600082146119f65780806119df90612fc5565b915050600a826119ef9190612ded565b91506119cc565b60008167ffffffffffffffff811115611a38577f4e487b7100000000000000000000000000000000000000000000000000000000600052604160045260246000fd5b6040519080825280601f01601f191660200182016040528015611a6a5781602001600182028036833780820191505090505b5090505b60008514611b1d57600182611a839190612e78565b9150600a85611a92919061300e565b6030611a9e9190612d97565b60f81b818381518110611ada577f4e487b7100000000000000000000000000000000000000000000000000000000600052603260045260246000fd5b60200101907effffffffffffffffffffffffffffffffffffffffffffffffffffffffffffff1916908160001a905350600a85611b169190612ded565b9450611a6e565b8093505050505b919050565b6060600082511415611b4c57604051806020016040528060008152509050611cae565b60006040518060600160405280604081526020016135c46040913990506000600360028551611b7b9190612d97565b611b859190612ded565b6004611b919190612e1e565b67ffffffffffffffff811115611bd0577f4e487b7100000000000000000000000000000000000000000000000000000000600052604160045260246000fd5b6040519080825280601f01601f191660200182016040528015611c025781602001600182028036833780820191505090505b509050600182016020820185865187015b80821015611c6e576003820191508151603f8160121c168501518453600184019350603f81600c1c168501518453600184019350603f8160061c168501518453600184019350603f8116850151845360018401935050611c13565b5050600386510660018114611c8a5760028114611c9d57611ca5565b603d6001830353603d6002830353611ca5565b603d60018303535b50505080925050505b919050565b60008151905060006a636f6e736f6c652e6c6f679050602083016000808483855afa5050505050565b60008073ffffffffffffffffffffffffffffffffffffffff166002600084815260200190815260200160002060009054906101000a900473ffffffffffffffffffffffffffffffffffffffff1673ffffffffffffffffffffffffffffffffffffffff1614159050919050565b611d528383611f44565b611d5f6000848484611dad565b611d9e576040517f08c379a0000000000000000000000000000000000000000000000000000000008152600401611d9590612b52565b60405180910390fd5b505050565b505050565b505050565b6000611dce8473ffffffffffffffffffffffffffffffffffffffff1661211e565b15611f37578373ffffffffffffffffffffffffffffffffffffffff1663150b7a02611df76113ca565b8786866040518563ffffffff1660e01b8152600401611e199493929190612a23565b602060405180830381600087803b158015611e3357600080fd5b505af1925050508015611e6457506040513d601f19601f82011682018060405250810190611e61919061252b565b60015b611ee7573d8060008114611e94576040519150601f19603f3d011682016040523d82523d6000602084013e611e99565b606091505b50600081511415611edf576040517f08c379a0000000000000000000000000000000000000000000000000000000008152600401611ed690612b52565b60405180910390fd5b805181602001fd5b63150b7a0260e01b7bffffffffffffffffffffffffffffffffffffffffffffffffffffffff1916817bffffffffffffffffffffffffffffffffffffffffffffffffffffffff191614915050611f3c565b600190505b949350505050565b600073ffffffffffffffffffffffffffffffffffffffff168273ffffffffffffffffffffffffffffffffffffffff161415611fb4576040517f08c379a0000000000000000000000000000000000000000000000000000000008152600401611fab90612c32565b60405180910390fd5b611fbd81611cdc565b15611ffd576040517f08c379a0000000000000000000000000000000000000000000000000000000008152600401611ff490612b92565b60405180910390fd5b61200960008383611da3565b6001600360008473ffffffffffffffffffffffffffffffffffffffff1673ffffffffffffffffffffffffffffffffffffffff16815260200190815260200160002060008282546120599190612d97565b92505081905550816002600083815260200190815260200160002060006101000a81548173ffffffffffffffffffffffffffffffffffffffff021916908373ffffffffffffffffffffffffffffffffffffffff160217905550808273ffffffffffffffffffffffffffffffffffffffff16600073ffffffffffffffffffffffffffffffffffffffff167fddf252ad1be2c89b69c2b068fc378daa952ba7f163c4a11628f55a4df523b3ef60405160405180910390a461211a60008383611da8565b5050565b6000808273ffffffffffffffffffffffffffffffffffffffff163b119050919050565b82805461214d90612f62565b90600052602060002090601f01602090048101928261216f57600085556121b6565b82601f1061218857805160ff19168380011785556121b6565b828001600101855582156121b6579182015b828111156121b557825182559160200191906001019061219a565b5b5090506121c391906121c7565b5090565b5b808211156121e05760008160009055506001016121c8565b5090565b60006121f76121f284612cf2565b612ccd565b90508281526020810184848401111561220f57600080fd5b61221a848285612f20565b509392505050565b600061223561223084612d23565b612ccd565b90508281526020810184848401111561224d57600080fd5b612258848285612f20565b509392505050565b60008135905061226f81613567565b92915050565b6000813590506122848161357e565b92915050565b6000815190506122998161357e565b92915050565b6000813590506122ae81613595565b92915050565b6000815190506122c381613595565b92915050565b600082601f8301126122da57600080fd5b81356122ea8482602086016121e4565b91505092915050565b600082601f83011261230457600080fd5b8135612314848260208601612222565b91505092915050565b60008135905061232c816135ac565b92915050565b60006020828403121561234457600080fd5b600061235284828501612260565b91505092915050565b6000806040838503121561236e57600080fd5b600061237c85828601612260565b925050602061238d85828601612260565b9150509250929050565b6000806000606084860312156123ac57600080fd5b60006123ba86828701612260565b93505060206123cb86828701612260565b92505060406123dc8682870161231d565b9150509250925092565b600080600080608085870312156123fc57600080fd5b600061240a87828801612260565b945050602061241b87828801612260565b935050604061242c8782880161231d565b925050606085013567ffffffffffffffff81111561244957600080fd5b612455878288016122c9565b91505092959194509250565b6000806040838503121561247457600080fd5b600061248285828601612260565b925050602061249385828601612275565b9150509250929050565b600080604083850312156124b057600080fd5b60006124be85828601612260565b92505060206124cf8582860161231d565b9150509250929050565b6000602082840312156124eb57600080fd5b60006124f98482850161228a565b91505092915050565b60006020828403121561251457600080fd5b60006125228482850161229f565b91505092915050565b60006020828403121561253d57600080fd5b600061254b848285016122b4565b91505092915050565b600080600080600060a0868803121561256c57600080fd5b600086013567ffffffffffffffff81111561258657600080fd5b612592888289016122f3565b955050602086013567ffffffffffffffff8111156125af57600080fd5b6125bb888289016122f3565b94505060406125cc88828901612260565b93505060606125dd88828901612260565b92505060806125ee8882890161231d565b9150509295509295909350565b60006020828403121561260d57600080fd5b600061261b8482850161231d565b91505092915050565b61262d81612eac565b82525050565b61263c81612ebe565b82525050565b600061264d82612d54565b6126578185612d6a565b9350612667818560208601612f2f565b612670816130fb565b840191505092915050565b600061268682612d5f565b6126908185612d7b565b93506126a0818560208601612f2f565b6126a9816130fb565b840191505092915050565b60006126bf82612d5f565b6126c98185612d8c565b93506126d9818560208601612f2f565b80840191505092915050565b60006126f2601383612d8c565b91506126fd8261310c565b601382019050919050565b6000612715603283612d7b565b915061272082613135565b604082019050919050565b6000612738602583612d7b565b915061274382613184565b604082019050919050565b600061275b601c83612d7b565b9150612766826131d3565b602082019050919050565b600061277e602483612d7b565b9150612789826131fc565b604082019050919050565b60006127a1601983612d7b565b91506127ac8261324b565b602082019050919050565b60006127c4604483612d8c565b91506127cf82613274565b604482019050919050565b60006127e7602983612d7b565b91506127f2826132e9565b604082019050919050565b600061280a603183612d8c565b915061281582613338565b603182019050919050565b600061282d603e83612d7b565b915061283882613387565b604082019050919050565b6000612850602083612d7b565b915061285b826133d6565b602082019050919050565b6000612873601883612d7b565b915061287e826133ff565b602082019050919050565b6000612896602183612d7b565b91506128a182613428565b604082019050919050565b60006128b9601d83612d8c565b91506128c482613477565b601d82019050919050565b60006128dc602d83612d8c565b91506128e7826134a0565b602d82019050919050565b60006128ff602e83612d7b565b915061290a826134ef565b604082019050919050565b6000612922600483612d8c565b915061292d8261353e565b600482019050919050565b61294181612f16565b82525050565b6000612952826128ac565b915061295e82846126b4565b915081905092915050565b6000612974826128cf565b915061298082866126b4565b915061298b826126e5565b915061299782856126b4565b91506129a2826127b7565b91506129ad826127fd565b91506129b982846126b4565b91506129c482612915565b9150819050949350505050565b60006020820190506129e66000830184612624565b92915050565b6000606082019050612a016000830186612624565b612a0e6020830185612624565b612a1b6040830184612938565b949350505050565b6000608082019050612a386000830187612624565b612a456020830186612624565b612a526040830185612938565b8181036060830152612a648184612642565b905095945050505050565b6000608082019050612a846000830187612624565b612a916020830186612938565b8181036040830152612aa3818561267b565b90508181036060830152612ab7818461267b565b905095945050505050565b6000602082019050612ad76000830184612633565b92915050565b60006020820190508181036000830152612af7818461267b565b905092915050565b60006080820190508181036000830152612b19818761267b565b90508181036020830152612b2d818661267b565b9050612b3c6040830185612624565b612b496060830184612938565b95945050505050565b60006020820190508181036000830152612b6b81612708565b9050919050565b60006020820190508181036000830152612b8b8161272b565b9050919050565b60006020820190508181036000830152612bab8161274e565b9050919050565b60006020820190508181036000830152612bcb81612771565b9050919050565b60006020820190508181036000830152612beb81612794565b9050919050565b60006020820190508181036000830152612c0b816127da565b9050919050565b60006020820190508181036000830152612c2b81612820565b9050919050565b60006020820190508181036000830152612c4b81612843565b9050919050565b60006020820190508181036000830152612c6b81612866565b9050919050565b60006020820190508181036000830152612c8b81612889565b9050919050565b60006020820190508181036000830152612cab816128f2565b9050919050565b6000602082019050612cc76000830184612938565b92915050565b6000612cd7612ce8565b9050612ce38282612f94565b919050565b6000604051905090565b600067ffffffffffffffff821115612d0d57612d0c6130cc565b5b612d16826130fb565b9050602081019050919050565b600067ffffffffffffffff821115612d3e57612d3d6130cc565b5b612d47826130fb565b9050602081019050919050565b600081519050919050565b600081519050919050565b600082825260208201905092915050565b600082825260208201905092915050565b600081905092915050565b6000612da282612f16565b9150612dad83612f16565b9250827fffffffffffffffffffffffffffffffffffffffffffffffffffffffffffffffff03821115612de257612de161303f565b5b828201905092915050565b6000612df882612f16565b9150612e0383612f16565b925082612e1357612e1261306e565b5b828204905092915050565b6000612e2982612f16565b9150612e3483612f16565b9250817fffffffffffffffffffffffffffffffffffffffffffffffffffffffffffffffff0483118215151615612e6d57612e6c61303f565b5b828202905092915050565b6000612e8382612f16565b9150612e8e83612f16565b925082821015612ea157612ea061303f565b5b828203905092915050565b6000612eb782612ef6565b9050919050565b60008115159050919050565b60007fffffffff0000000000000000000000000000000000000000000000000000000082169050919050565b600073ffffffffffffffffffffffffffffffffffffffff82169050919050565b6000819050919050565b82818337600083830152505050565b60005b83811015612f4d578082015181840152602081019050612f32565b83811115612f5c576000848401525b50505050565b60006002820490506001821680612f7a57607f821691505b60208210811415612f8e57612f8d61309d565b5b50919050565b612f9d826130fb565b810181811067ffffffffffffffff82111715612fbc57612fbb6130cc565b5b80604052505050565b6000612fd082612f16565b91507fffffffffffffffffffffffffffffffffffffffffffffffffffffffffffffffff8214156130035761300261303f565b5b600182019050919050565b600061301982612f16565b915061302483612f16565b9250826130345761303361306e565b5b828206905092915050565b7f4e487b7100000000000000000000000000000000000000000000000000000000600052601160045260246000fd5b7f4e487b7100000000000000000000000000000000000000000000000000000000600052601260045260246000fd5b7f4e487b7100000000000000000000000000000000000000000000000000000000600052602260045260246000fd5b7f4e487b7100000000000000000000000000000000000000000000000000000000600052604160045260246000fd5b6000601f19601f8301169050919050565b7f222c20226465736372697074696f6e223a202200000000000000000000000000600082015250565b7f4552433732313a207472616e7366657220746f206e6f6e20455243373231526560008201527f63656976657220696d706c656d656e7465720000000000000000000000000000602082015250565b7f4552433732313a207472616e736665722066726f6d20696e636f72726563742060008201527f6f776e6572000000000000000000000000000000000000000000000000000000602082015250565b7f4552433732313a20746f6b656e20616c7265616479206d696e74656400000000600082015250565b7f4552433732313a207472616e7366657220746f20746865207a65726f2061646460008201527f7265737300000000000000000000000000000000000000000000000000000000602082015250565b7f4552433732313a20617070726f766520746f2063616c6c657200000000000000600082015250565b7f222c2022696d616765223a2022697066733a2f2f516d6545393550656355556960008201527f71696f69667a6b7961794c77535033684c4b6e56537a5241327643445677587160208201527f5354222c00000000000000000000000000000000000000000000000000000000604082015250565b7f4552433732313a2061646472657373207a65726f206973206e6f74206120766160008201527f6c6964206f776e65720000000000000000000000000000000000000000000000602082015250565b7f2261747472696275746573223a205b7b22617474726962757465223a2022537460008201527f61747573222c202276616c7565223a2022000000000000000000000000000000602082015250565b7f4552433732313a20617070726f76652063616c6c6572206973206e6f7420746f60008201527f6b656e206f776e6572206e6f7220617070726f76656420666f7220616c6c0000602082015250565b7f4552433732313a206d696e7420746f20746865207a65726f2061646472657373600082015250565b7f4552433732313a20696e76616c696420746f6b656e2049440000000000000000600082015250565b7f4552433732313a20617070726f76616c20746f2063757272656e74206f776e6560008201527f7200000000000000000000000000000000000000000000000000000000000000602082015250565b7f646174613a6170706c69636174696f6e2f6a736f6e3b6261736536342c000000600082015250565b7f7b226e616d65223a2022526f6c6c2050617274696369706174696f6e20546f6b60008201527f656e20666f7220526f6c6c202300000000000000000000000000000000000000602082015250565b7f4552433732313a2063616c6c6572206973206e6f7420746f6b656e206f776e6560008201527f72206e6f7220617070726f766564000000000000000000000000000000000000602082015250565b7f227d5d7d00000000000000000000000000000000000000000000000000000000600082015250565b61357081612eac565b811461357b57600080fd5b50565b61358781612ebe565b811461359257600080fd5b50565b61359e81612eca565b81146135a957600080fd5b50565b6135b581612f16565b81146135c057600080fd5b5056fe4142434445464748494a4b4c4d4e4f505152535455565758595a6162636465666768696a6b6c6d6e6f707172737475767778797a303132333435363738392b2fa2646970667358221220117ab647c53f47b8cef419acc36f4d7610ab25116d71839b947b0b714653f08364736f6c63430008040033526f6c6c2050617274696369706174696f6e20546f6b656e20436f6c6c656374696f6e",
  "linkReferences": {},
  "deployedLinkReferences": {}
}