{
    "_format": "hh-sol-artifact-1",
    "contractName": "SampleERC721Contract",
    "sourceName": "contracts/test/SampleERC721Contract.sol",
    "abi": [
        {
            "inputs": [],
            "stateMutability": "payable",
            "type": "constructor"
        },
        {
            "anonymous": false,
            "inputs": [
                {
                    "indexed": true,
                    "internalType": "address",
                    "name": "owner",
                    "type": "address"
                },
                {
                    "indexed": true,
                    "internalType": "address",
                    "name": "approved",
                    "type": "address"
                },
                {
                    "indexed": true,
                    "internalType": "uint256",
                    "name": "tokenId",
                    "type": "uint256"
                }
            ],
            "name": "Approval",
            "type": "event"
        },
        {
            "anonymous": false,
            "inputs": [
                {
                    "indexed": true,
                    "internalType": "address",
                    "name": "owner",
                    "type": "address"
                },
                {
                    "indexed": true,
                    "internalType": "address",
                    "name": "operator",
                    "type": "address"
                },
                {
                    "indexed": false,
                    "internalType": "bool",
                    "name": "approved",
                    "type": "bool"
                }
            ],
            "name": "ApprovalForAll",
            "type": "event"
        },
        {
            "anonymous": false,
            "inputs": [
                {
                    "indexed": false,
                    "internalType": "address",
                    "name": "sender",
                    "type": "address"
                },
                {
                    "indexed": false,
                    "internalType": "uint256",
                    "name": "tokenId",
                    "type": "uint256"
                }
            ],
            "name": "NFTMinted",
            "type": "event"
        },
        {
            "anonymous": false,
            "inputs": [
                {
                    "indexed": true,
                    "internalType": "address",
                    "name": "from",
                    "type": "address"
                },
                {
                    "indexed": true,
                    "internalType": "address",
                    "name": "to",
                    "type": "address"
                },
                {
                    "indexed": true,
                    "internalType": "uint256",
                    "name": "tokenId",
                    "type": "uint256"
                }
            ],
            "name": "Transfer",
            "type": "event"
        },
        {
            "inputs": [
                {
                    "internalType": "address",
                    "name": "to",
                    "type": "address"
                },
                {
                    "internalType": "uint256",
                    "name": "tokenId",
                    "type": "uint256"
                }
            ],
            "name": "approve",
            "outputs": [],
            "stateMutability": "nonpayable",
            "type": "function"
        },
        {
            "inputs": [
                {
                    "internalType": "address",
                    "name": "owner",
                    "type": "address"
                }
            ],
            "name": "balanceOf",
            "outputs": [
                {
                    "internalType": "uint256",
                    "name": "",
                    "type": "uint256"
                }
            ],
            "stateMutability": "view",
            "type": "function"
        },
        {
            "inputs": [
                {
                    "internalType": "uint256",
                    "name": "tokenId",
                    "type": "uint256"
                }
            ],
            "name": "getApproved",
            "outputs": [
                {
                    "internalType": "address",
                    "name": "",
                    "type": "address"
                }
            ],
            "stateMutability": "view",
            "type": "function"
        },
        {
            "inputs": [
                {
                    "internalType": "address",
                    "name": "owner",
                    "type": "address"
                },
                {
                    "internalType": "address",
                    "name": "operator",
                    "type": "address"
                }
            ],
            "name": "isApprovedForAll",
            "outputs": [
                {
                    "internalType": "bool",
                    "name": "",
                    "type": "bool"
                }
            ],
            "stateMutability": "view",
            "type": "function"
        },
        {
            "inputs": [],
            "name": "name",
            "outputs": [
                {
                    "internalType": "string",
                    "name": "",
                    "type": "string"
                }
            ],
            "stateMutability": "view",
            "type": "function"
        },
        {
            "inputs": [
                {
                    "internalType": "address",
                    "name": "",
                    "type": "address"
                }
            ],
            "name": "nftHolders",
            "outputs": [
                {
                    "internalType": "uint256",
                    "name": "",
                    "type": "uint256"
                }
            ],
            "stateMutability": "view",
            "type": "function"
        },
        {
            "inputs": [
                {
                    "internalType": "uint256",
                    "name": "tokenId",
                    "type": "uint256"
                }
            ],
            "name": "ownerOf",
            "outputs": [
                {
                    "internalType": "address",
                    "name": "",
                    "type": "address"
                }
            ],
            "stateMutability": "view",
            "type": "function"
        },
        {
            "inputs": [
                {
                    "internalType": "address",
                    "name": "from",
                    "type": "address"
                },
                {
                    "internalType": "address",
                    "name": "to",
                    "type": "address"
                },
                {
                    "internalType": "uint256",
                    "name": "tokenId",
                    "type": "uint256"
                }
            ],
            "name": "safeTransferFrom",
            "outputs": [],
            "stateMutability": "nonpayable",
            "type": "function"
        },
        {
            "inputs": [
                {
                    "internalType": "address",
                    "name": "from",
                    "type": "address"
                },
                {
                    "internalType": "address",
                    "name": "to",
                    "type": "address"
                },
                {
                    "internalType": "uint256",
                    "name": "tokenId",
                    "type": "uint256"
                },
                {
                    "internalType": "bytes",
                    "name": "data",
                    "type": "bytes"
                }
            ],
            "name": "safeTransferFrom",
            "outputs": [],
            "stateMutability": "nonpayable",
            "type": "function"
        },
        {
            "inputs": [
                {
                    "internalType": "address",
                    "name": "operator",
                    "type": "address"
                },
                {
                    "internalType": "bool",
                    "name": "approved",
                    "type": "bool"
                }
            ],
            "name": "setApprovalForAll",
            "outputs": [],
            "stateMutability": "nonpayable",
            "type": "function"
        },
        {
            "inputs": [
                {
                    "internalType": "bytes4",
                    "name": "interfaceId",
                    "type": "bytes4"
                }
            ],
            "name": "supportsInterface",
            "outputs": [
                {
                    "internalType": "bool",
                    "name": "",
                    "type": "bool"
                }
            ],
            "stateMutability": "view",
            "type": "function"
        },
        {
            "inputs": [],
            "name": "symbol",
            "outputs": [
                {
                    "internalType": "string",
                    "name": "",
                    "type": "string"
                }
            ],
            "stateMutability": "view",
            "type": "function"
        },
        {
            "inputs": [
                {
                    "internalType": "uint256",
                    "name": "tokenId",
                    "type": "uint256"
                }
            ],
            "name": "tokenURI",
            "outputs": [
                {
                    "internalType": "string",
                    "name": "",
                    "type": "string"
                }
            ],
            "stateMutability": "view",
            "type": "function"
        },
        {
            "inputs": [
                {
                    "internalType": "address",
                    "name": "from",
                    "type": "address"
                },
                {
                    "internalType": "address",
                    "name": "to",
                    "type": "address"
                },
                {
                    "internalType": "uint256",
                    "name": "tokenId",
                    "type": "uint256"
                }
            ],
            "name": "transferFrom",
            "outputs": [],
            "stateMutability": "nonpayable",
            "type": "function"
        }
    ],
    "bytecode": "0x60806040526040518060400160405280601481526020017f53616d706c65455243373231436f6e74726163740000000000000000000000008152506040518060400160405280600681526020017f53414d504c450000000000000000000000000000000000000000000000000000815250816000908051906020019062000088929190620001ee565b508060019080519060200190620000a1929190620001ee565b505050620000ef6040518060400160405280601a81526020017f536d61727420436f6e747261637420696e697469616c697a65640000000000008152506200010c60201b620009e11760201c565b620001066006620001af60201b62000a7a1760201c565b620003cb565b620001ac81604051602401620001239190620002df565b6040516020818303038152906040527f41304fac000000000000000000000000000000000000000000000000000000007bffffffffffffffffffffffffffffffffffffffffffffffffffffffff19166020820180517bffffffffffffffffffffffffffffffffffffffffffffffffffffffff8381831617835250505050620001c560201b60201c565b50565b6001816000016000828254019250508190555050565b60008151905060006a636f6e736f6c652e6c6f679050602083016000808483855afa5050505050565b828054620001fc9062000355565b90600052602060002090601f0160209004810192826200022057600085556200026c565b82601f106200023b57805160ff19168380011785556200026c565b828001600101855582156200026c579182015b828111156200026b5782518255916020019190600101906200024e565b5b5090506200027b91906200027f565b5090565b5b808211156200029a57600081600090555060010162000280565b5090565b6000620002ab8262000303565b620002b781856200030e565b9350620002c98185602086016200031f565b620002d481620003ba565b840191505092915050565b60006020820190508181036000830152620002fb81846200029e565b905092915050565b600081519050919050565b600082825260208201905092915050565b60005b838110156200033f57808201518184015260208101905062000322565b838111156200034f576000848401525b50505050565b600060028204905060018216806200036e57607f821691505b602082108114156200038557620003846200038b565b5b50919050565b7f4e487b7100000000000000000000000000000000000000000000000000000000600052602260045260246000fd5b6000601f19601f8301169050919050565b6122aa80620003db6000396000f3fe608060405234801561001057600080fd5b50600436106100ea5760003560e01c806370a082311161008c578063a22cb46511610066578063a22cb4651461026f578063b88d4fde1461028b578063c87b56dd146102a7578063e985e9c5146102d7576100ea565b806370a08231146101f15780637df124a11461022157806395d89b4114610251576100ea565b8063095ea7b3116100c8578063095ea7b31461016d57806323b872dd1461018957806342842e0e146101a55780636352211e146101c1576100ea565b806301ffc9a7146100ef57806306fdde031461011f578063081812fc1461013d575b600080fd5b61010960048036038101906101049190611760565b610307565b6040516101169190611a71565b60405180910390f35b6101276103e9565b6040516101349190611a8c565b60405180910390f35b610157600480360381019061015291906117b2565b61047b565b6040516101649190611a0a565b60405180910390f35b61018760048036038101906101829190611724565b6104c1565b005b6101a3600480360381019061019e919061161e565b6105d9565b005b6101bf60048036038101906101ba919061161e565b610639565b005b6101db60048036038101906101d691906117b2565b610659565b6040516101e89190611a0a565b60405180910390f35b61020b600480360381019061020691906115b9565b61070b565b6040516102189190611bce565b60405180910390f35b61023b600480360381019061023691906115b9565b6107c3565b6040516102489190611bce565b60405180910390f35b6102596107db565b6040516102669190611a8c565b60405180910390f35b610289600480360381019061028491906116e8565b61086d565b005b6102a560048036038101906102a0919061166d565b610883565b005b6102c160048036038101906102bc91906117b2565b6108e5565b6040516102ce9190611a8c565b60405180910390f35b6102f160048036038101906102ec91906115e2565b61094d565b6040516102fe9190611a71565b60405180910390f35b60007f80ac58cd000000000000000000000000000000000000000000000000000000007bffffffffffffffffffffffffffffffffffffffffffffffffffffffff1916827bffffffffffffffffffffffffffffffffffffffffffffffffffffffff191614806103d257507f5b5e139f000000000000000000000000000000000000000000000000000000007bffffffffffffffffffffffffffffffffffffffffffffffffffffffff1916827bffffffffffffffffffffffffffffffffffffffffffffffffffffffff1916145b806103e257506103e182610a90565b5b9050919050565b6060600080546103f890611df3565b80601f016020809104026020016040519081016040528092919081815260200182805461042490611df3565b80156104715780601f1061044657610100808354040283529160200191610471565b820191906000526020600020905b81548152906001019060200180831161045457829003601f168201915b5050505050905090565b600061048682610afa565b6004600083815260200190815260200160002060009054906101000a900473ffffffffffffffffffffffffffffffffffffffff169050919050565b60006104cc82610659565b90508073ffffffffffffffffffffffffffffffffffffffff168373ffffffffffffffffffffffffffffffffffffffff16141561053d576040517f08c379a000000000000000000000000000000000000000000000000000000000815260040161053490611b8e565b60405180910390fd5b8073ffffffffffffffffffffffffffffffffffffffff1661055c610b45565b73ffffffffffffffffffffffffffffffffffffffff16148061058b575061058a81610585610b45565b61094d565b5b6105ca576040517f08c379a00000000000000000000000000000000000000000000000000000000081526004016105c190611b4e565b60405180910390fd5b6105d48383610b4d565b505050565b6105ea6105e4610b45565b82610c06565b610629576040517f08c379a000000000000000000000000000000000000000000000000000000000815260040161062090611bae565b60405180910390fd5b610634838383610c9b565b505050565b61065483838360405180602001604052806000815250610883565b505050565b6000806002600084815260200190815260200160002060009054906101000a900473ffffffffffffffffffffffffffffffffffffffff169050600073ffffffffffffffffffffffffffffffffffffffff168173ffffffffffffffffffffffffffffffffffffffff161415610702576040517f08c379a00000000000000000000000000000000000000000000000000000000081526004016106f990611b6e565b60405180910390fd5b80915050919050565b60008073ffffffffffffffffffffffffffffffffffffffff168273ffffffffffffffffffffffffffffffffffffffff16141561077c576040517f08c379a000000000000000000000000000000000000000000000000000000000815260040161077390611b2e565b60405180910390fd5b600360008373ffffffffffffffffffffffffffffffffffffffff1673ffffffffffffffffffffffffffffffffffffffff168152602001908152602001600020549050919050565b60076020528060005260406000206000915090505481565b6060600180546107ea90611df3565b80601f016020809104026020016040519081016040528092919081815260200182805461081690611df3565b80156108635780601f1061083857610100808354040283529160200191610863565b820191906000526020600020905b81548152906001019060200180831161084657829003601f168201915b5050505050905090565b61087f610878610b45565b8383610f02565b5050565b61089461088e610b45565b83610c06565b6108d3576040517f08c379a00000000000000000000000000000000000000000000000000000000081526004016108ca90611bae565b60405180910390fd5b6108df8484848461106f565b50505050565b60606108f082610afa565b60006108fa6110cb565b9050600081511161091a5760405180602001604052806000815250610945565b80610924846110e2565b6040516020016109359291906119e6565b6040516020818303038152906040525b915050919050565b6000600560008473ffffffffffffffffffffffffffffffffffffffff1673ffffffffffffffffffffffffffffffffffffffff16815260200190815260200160002060008373ffffffffffffffffffffffffffffffffffffffff1673ffffffffffffffffffffffffffffffffffffffff16815260200190815260200160002060009054906101000a900460ff16905092915050565b610a77816040516024016109f59190611a8c565b6040516020818303038152906040527f41304fac000000000000000000000000000000000000000000000000000000007bffffffffffffffffffffffffffffffffffffffffffffffffffffffff19166020820180517bffffffffffffffffffffffffffffffffffffffffffffffffffffffff838183161783525050505061128f565b50565b6001816000016000828254019250508190555050565b60007f01ffc9a7000000000000000000000000000000000000000000000000000000007bffffffffffffffffffffffffffffffffffffffffffffffffffffffff1916827bffffffffffffffffffffffffffffffffffffffffffffffffffffffff1916149050919050565b610b03816112b8565b610b42576040517f08c379a0000000000000000000000000000000000000000000000000000000008152600401610b3990611b6e565b60405180910390fd5b50565b600033905090565b816004600083815260200190815260200160002060006101000a81548173ffffffffffffffffffffffffffffffffffffffff021916908373ffffffffffffffffffffffffffffffffffffffff160217905550808273ffffffffffffffffffffffffffffffffffffffff16610bc083610659565b73ffffffffffffffffffffffffffffffffffffffff167f8c5be1e5ebec7d5bd14f71427d1e84f3dd0314c0f7b2291e5b200ac8c7c3b92560405160405180910390a45050565b600080610c1283610659565b90508073ffffffffffffffffffffffffffffffffffffffff168473ffffffffffffffffffffffffffffffffffffffff161480610c545750610c53818561094d565b5b80610c9257508373ffffffffffffffffffffffffffffffffffffffff16610c7a8461047b565b73ffffffffffffffffffffffffffffffffffffffff16145b91505092915050565b8273ffffffffffffffffffffffffffffffffffffffff16610cbb82610659565b73ffffffffffffffffffffffffffffffffffffffff1614610d11576040517f08c379a0000000000000000000000000000000000000000000000000000000008152600401610d0890611ace565b60405180910390fd5b600073ffffffffffffffffffffffffffffffffffffffff168273ffffffffffffffffffffffffffffffffffffffff161415610d81576040517f08c379a0000000000000000000000000000000000000000000000000000000008152600401610d7890611aee565b60405180910390fd5b610d8c838383611324565b610d97600082610b4d565b6001600360008573ffffffffffffffffffffffffffffffffffffffff1673ffffffffffffffffffffffffffffffffffffffff1681526020019081526020016000206000828254610de79190611d09565b925050819055506001600360008473ffffffffffffffffffffffffffffffffffffffff1673ffffffffffffffffffffffffffffffffffffffff1681526020019081526020016000206000828254610e3e9190611c82565b92505081905550816002600083815260200190815260200160002060006101000a81548173ffffffffffffffffffffffffffffffffffffffff021916908373ffffffffffffffffffffffffffffffffffffffff160217905550808273ffffffffffffffffffffffffffffffffffffffff168473ffffffffffffffffffffffffffffffffffffffff167fddf252ad1be2c89b69c2b068fc378daa952ba7f163c4a11628f55a4df523b3ef60405160405180910390a4610efd838383611329565b505050565b8173ffffffffffffffffffffffffffffffffffffffff168373ffffffffffffffffffffffffffffffffffffffff161415610f71576040517f08c379a0000000000000000000000000000000000000000000000000000000008152600401610f6890611b0e565b60405180910390fd5b80600560008573ffffffffffffffffffffffffffffffffffffffff1673ffffffffffffffffffffffffffffffffffffffff16815260200190815260200160002060008473ffffffffffffffffffffffffffffffffffffffff1673ffffffffffffffffffffffffffffffffffffffff16815260200190815260200160002060006101000a81548160ff0219169083151502179055508173ffffffffffffffffffffffffffffffffffffffff168373ffffffffffffffffffffffffffffffffffffffff167f17307eab39ab6107e8899845ad3d59bd9653f200f220920489ca2b5937696c31836040516110629190611a71565b60405180910390a3505050565b61107a848484610c9b565b6110868484848461132e565b6110c5576040517f08c379a00000000000000000000000000000000000000000000000000000000081526004016110bc90611aae565b60405180910390fd5b50505050565b606060405180602001604052806000815250905090565b6060600082141561112a576040518060400160405280600181526020017f3000000000000000000000000000000000000000000000000000000000000000815250905061128a565b600082905060005b6000821461115c57808061114590611e56565b915050600a826111559190611cd8565b9150611132565b60008167ffffffffffffffff81111561119e577f4e487b7100000000000000000000000000000000000000000000000000000000600052604160045260246000fd5b6040519080825280601f01601f1916602001820160405280156111d05781602001600182028036833780820191505090505b5090505b60008514611283576001826111e99190611d09565b9150600a856111f89190611e9f565b60306112049190611c82565b60f81b818381518110611240577f4e487b7100000000000000000000000000000000000000000000000000000000600052603260045260246000fd5b60200101907effffffffffffffffffffffffffffffffffffffffffffffffffffffffffffff1916908160001a905350600a8561127c9190611cd8565b94506111d4565b8093505050505b919050565b60008151905060006a636f6e736f6c652e6c6f679050602083016000808483855afa5050505050565b60008073ffffffffffffffffffffffffffffffffffffffff166002600084815260200190815260200160002060009054906101000a900473ffffffffffffffffffffffffffffffffffffffff1673ffffffffffffffffffffffffffffffffffffffff1614159050919050565b505050565b505050565b600061134f8473ffffffffffffffffffffffffffffffffffffffff166114c5565b156114b8578373ffffffffffffffffffffffffffffffffffffffff1663150b7a02611378610b45565b8786866040518563ffffffff1660e01b815260040161139a9493929190611a25565b602060405180830381600087803b1580156113b457600080fd5b505af19250505080156113e557506040513d601f19601f820116820180604052508101906113e29190611789565b60015b611468573d8060008114611415576040519150601f19603f3d011682016040523d82523d6000602084013e61141a565b606091505b50600081511415611460576040517f08c379a000000000000000000000000000000000000000000000000000000000815260040161145790611aae565b60405180910390fd5b805181602001fd5b63150b7a0260e01b7bffffffffffffffffffffffffffffffffffffffffffffffffffffffff1916817bffffffffffffffffffffffffffffffffffffffffffffffffffffffff1916149150506114bd565b600190505b949350505050565b6000808273ffffffffffffffffffffffffffffffffffffffff163b119050919050565b60006114fb6114f684611c0e565b611be9565b90508281526020810184848401111561151357600080fd5b61151e848285611db1565b509392505050565b60008135905061153581612218565b92915050565b60008135905061154a8161222f565b92915050565b60008135905061155f81612246565b92915050565b60008151905061157481612246565b92915050565b600082601f83011261158b57600080fd5b813561159b8482602086016114e8565b91505092915050565b6000813590506115b38161225d565b92915050565b6000602082840312156115cb57600080fd5b60006115d984828501611526565b91505092915050565b600080604083850312156115f557600080fd5b600061160385828601611526565b925050602061161485828601611526565b9150509250929050565b60008060006060848603121561163357600080fd5b600061164186828701611526565b935050602061165286828701611526565b9250506040611663868287016115a4565b9150509250925092565b6000806000806080858703121561168357600080fd5b600061169187828801611526565b94505060206116a287828801611526565b93505060406116b3878288016115a4565b925050606085013567ffffffffffffffff8111156116d057600080fd5b6116dc8782880161157a565b91505092959194509250565b600080604083850312156116fb57600080fd5b600061170985828601611526565b925050602061171a8582860161153b565b9150509250929050565b6000806040838503121561173757600080fd5b600061174585828601611526565b9250506020611756858286016115a4565b9150509250929050565b60006020828403121561177257600080fd5b600061178084828501611550565b91505092915050565b60006020828403121561179b57600080fd5b60006117a984828501611565565b91505092915050565b6000602082840312156117c457600080fd5b60006117d2848285016115a4565b91505092915050565b6117e481611d3d565b82525050565b6117f381611d4f565b82525050565b600061180482611c3f565b61180e8185611c55565b935061181e818560208601611dc0565b61182781611f8c565b840191505092915050565b600061183d82611c4a565b6118478185611c66565b9350611857818560208601611dc0565b61186081611f8c565b840191505092915050565b600061187682611c4a565b6118808185611c77565b9350611890818560208601611dc0565b80840191505092915050565b60006118a9603283611c66565b91506118b482611f9d565b604082019050919050565b60006118cc602583611c66565b91506118d782611fec565b604082019050919050565b60006118ef602483611c66565b91506118fa8261203b565b604082019050919050565b6000611912601983611c66565b915061191d8261208a565b602082019050919050565b6000611935602983611c66565b9150611940826120b3565b604082019050919050565b6000611958603e83611c66565b915061196382612102565b604082019050919050565b600061197b601883611c66565b915061198682612151565b602082019050919050565b600061199e602183611c66565b91506119a98261217a565b604082019050919050565b60006119c1602e83611c66565b91506119cc826121c9565b604082019050919050565b6119e081611da7565b82525050565b60006119f2828561186b565b91506119fe828461186b565b91508190509392505050565b6000602082019050611a1f60008301846117db565b92915050565b6000608082019050611a3a60008301876117db565b611a4760208301866117db565b611a5460408301856119d7565b8181036060830152611a6681846117f9565b905095945050505050565b6000602082019050611a8660008301846117ea565b92915050565b60006020820190508181036000830152611aa68184611832565b905092915050565b60006020820190508181036000830152611ac78161189c565b9050919050565b60006020820190508181036000830152611ae7816118bf565b9050919050565b60006020820190508181036000830152611b07816118e2565b9050919050565b60006020820190508181036000830152611b2781611905565b9050919050565b60006020820190508181036000830152611b4781611928565b9050919050565b60006020820190508181036000830152611b678161194b565b9050919050565b60006020820190508181036000830152611b878161196e565b9050919050565b60006020820190508181036000830152611ba781611991565b9050919050565b60006020820190508181036000830152611bc7816119b4565b9050919050565b6000602082019050611be360008301846119d7565b92915050565b6000611bf3611c04565b9050611bff8282611e25565b919050565b6000604051905090565b600067ffffffffffffffff821115611c2957611c28611f5d565b5b611c3282611f8c565b9050602081019050919050565b600081519050919050565b600081519050919050565b600082825260208201905092915050565b600082825260208201905092915050565b600081905092915050565b6000611c8d82611da7565b9150611c9883611da7565b9250827fffffffffffffffffffffffffffffffffffffffffffffffffffffffffffffffff03821115611ccd57611ccc611ed0565b5b828201905092915050565b6000611ce382611da7565b9150611cee83611da7565b925082611cfe57611cfd611eff565b5b828204905092915050565b6000611d1482611da7565b9150611d1f83611da7565b925082821015611d3257611d31611ed0565b5b828203905092915050565b6000611d4882611d87565b9050919050565b60008115159050919050565b60007fffffffff0000000000000000000000000000000000000000000000000000000082169050919050565b600073ffffffffffffffffffffffffffffffffffffffff82169050919050565b6000819050919050565b82818337600083830152505050565b60005b83811015611dde578082015181840152602081019050611dc3565b83811115611ded576000848401525b50505050565b60006002820490506001821680611e0b57607f821691505b60208210811415611e1f57611e1e611f2e565b5b50919050565b611e2e82611f8c565b810181811067ffffffffffffffff82111715611e4d57611e4c611f5d565b5b80604052505050565b6000611e6182611da7565b91507fffffffffffffffffffffffffffffffffffffffffffffffffffffffffffffffff821415611e9457611e93611ed0565b5b600182019050919050565b6000611eaa82611da7565b9150611eb583611da7565b925082611ec557611ec4611eff565b5b828206905092915050565b7f4e487b7100000000000000000000000000000000000000000000000000000000600052601160045260246000fd5b7f4e487b7100000000000000000000000000000000000000000000000000000000600052601260045260246000fd5b7f4e487b7100000000000000000000000000000000000000000000000000000000600052602260045260246000fd5b7f4e487b7100000000000000000000000000000000000000000000000000000000600052604160045260246000fd5b6000601f19601f8301169050919050565b7f4552433732313a207472616e7366657220746f206e6f6e20455243373231526560008201527f63656976657220696d706c656d656e7465720000000000000000000000000000602082015250565b7f4552433732313a207472616e736665722066726f6d20696e636f72726563742060008201527f6f776e6572000000000000000000000000000000000000000000000000000000602082015250565b7f4552433732313a207472616e7366657220746f20746865207a65726f2061646460008201527f7265737300000000000000000000000000000000000000000000000000000000602082015250565b7f4552433732313a20617070726f766520746f2063616c6c657200000000000000600082015250565b7f4552433732313a2061646472657373207a65726f206973206e6f74206120766160008201527f6c6964206f776e65720000000000000000000000000000000000000000000000602082015250565b7f4552433732313a20617070726f76652063616c6c6572206973206e6f7420746f60008201527f6b656e206f776e6572206e6f7220617070726f76656420666f7220616c6c0000602082015250565b7f4552433732313a20696e76616c696420746f6b656e2049440000000000000000600082015250565b7f4552433732313a20617070726f76616c20746f2063757272656e74206f776e6560008201527f7200000000000000000000000000000000000000000000000000000000000000602082015250565b7f4552433732313a2063616c6c6572206973206e6f7420746f6b656e206f776e6560008201527f72206e6f7220617070726f766564000000000000000000000000000000000000602082015250565b61222181611d3d565b811461222c57600080fd5b50565b61223881611d4f565b811461224357600080fd5b50565b61224f81611d5b565b811461225a57600080fd5b50565b61226681611da7565b811461227157600080fd5b5056fea264697066735822122028cfb07fa14b91921a18e76f23a96c09e3f766c83f6f9c237c4e04bc26de17b064736f6c63430008040033",
    "linkReferences": {},
    "deployedLinkReferences": {}
}