{
    "_format": "hh-sol-artifact-1",
    "contractName": "YourContract",
    "sourceName": "contracts/YourContract.sol",
    "abi": [
        {
            "inputs": [
                {
                    "components": [
                        {
                            "internalType": "string",
                            "name": "name",
                            "type": "string"
                        },
                        {
                            "internalType": "string",
                            "name": "symbol",
                            "type": "string"
                        },
                        {
                            "internalType": "address",
                            "name": "owner",
                            "type": "address"
                        },
                        {
                            "internalType": "uint256",
                            "name": "maxSupply",
                            "type": "uint256"
                        },
                        {
                            "internalType": "uint256",
                            "name": "reservedSupply",
                            "type": "uint256"
                        },
                        {
                            "internalType": "uint256",
                            "name": "tokensPerMint",
                            "type": "uint256"
                        },
                        {
                            "internalType": "address payable",
                            "name": "treasuryAddress",
                            "type": "address"
                        }
                    ],
                    "internalType": "struct NFTCollection.DeploymentConfig",
                    "name": "deploymentConfig",
                    "type": "tuple"
                },
                {
                    "components": [
                        {
                            "internalType": "string",
                            "name": "baseURI",
                            "type": "string"
                        },
                        {
                            "internalType": "bool",
                            "name": "metadataUpdatable",
                            "type": "bool"
                        },
                        {
                            "internalType": "uint256",
                            "name": "publicMintPrice",
                            "type": "uint256"
                        },
                        {
                            "internalType": "bool",
                            "name": "publicMintPriceFrozen",
                            "type": "bool"
                        },
                        {
                            "internalType": "uint256",
                            "name": "presaleMintPrice",
                            "type": "uint256"
                        },
                        {
                            "internalType": "bool",
                            "name": "presaleMintPriceFrozen",
                            "type": "bool"
                        },
                        {
                            "internalType": "uint256",
                            "name": "publicMintStart",
                            "type": "uint256"
                        },
                        {
                            "internalType": "uint256",
                            "name": "presaleMintStart",
                            "type": "uint256"
                        },
                        {
                            "internalType": "string",
                            "name": "prerevealTokenURI",
                            "type": "string"
                        },
                        {
                            "internalType": "bytes32",
                            "name": "presaleMerkleRoot",
                            "type": "bytes32"
                        },
                        {
                            "internalType": "uint256",
                            "name": "royaltiesBps",
                            "type": "uint256"
                        },
                        {
                            "internalType": "address",
                            "name": "royaltiesAddress",
                            "type": "address"
                        }
                    ],
                    "internalType": "struct NFTCollection.RuntimeConfig",
                    "name": "runtimeConfig",
                    "type": "tuple"
                }
            ],
            "stateMutability": "nonpayable",
            "type": "constructor"
        },
        {
            "inputs": [],
            "name": "ApprovalCallerNotOwnerNorApproved",
            "type": "error"
        },
        {
            "inputs": [],
            "name": "ApprovalQueryForNonexistentToken",
            "type": "error"
        },
        {
            "inputs": [],
            "name": "ApprovalToCurrentOwner",
            "type": "error"
        },
        {
            "inputs": [],
            "name": "ApproveToCaller",
            "type": "error"
        },
        {
            "inputs": [],
            "name": "BalanceQueryForZeroAddress",
            "type": "error"
        },
        {
            "inputs": [],
            "name": "MintToZeroAddress",
            "type": "error"
        },
        {
            "inputs": [],
            "name": "MintZeroQuantity",
            "type": "error"
        },
        {
            "inputs": [],
            "name": "OwnerQueryForNonexistentToken",
            "type": "error"
        },
        {
            "inputs": [],
            "name": "TransferCallerNotOwnerNorApproved",
            "type": "error"
        },
        {
            "inputs": [],
            "name": "TransferFromIncorrectOwner",
            "type": "error"
        },
        {
            "inputs": [],
            "name": "TransferToNonERC721ReceiverImplementer",
            "type": "error"
        },
        {
            "inputs": [],
            "name": "TransferToZeroAddress",
            "type": "error"
        },
        {
            "anonymous": false,
            "inputs": [
                {
                    "indexed": true,
                    "internalType": "address",
                    "name": "owner",
                    "type": "address"
                },
                {
                    "indexed": true,
                    "internalType": "address",
                    "name": "approved",
                    "type": "address"
                },
                {
                    "indexed": true,
                    "internalType": "uint256",
                    "name": "tokenId",
                    "type": "uint256"
                }
            ],
            "name": "Approval",
            "type": "event"
        },
        {
            "anonymous": false,
            "inputs": [
                {
                    "indexed": true,
                    "internalType": "address",
                    "name": "owner",
                    "type": "address"
                },
                {
                    "indexed": true,
                    "internalType": "address",
                    "name": "operator",
                    "type": "address"
                },
                {
                    "indexed": false,
                    "internalType": "bool",
                    "name": "approved",
                    "type": "bool"
                }
            ],
            "name": "ApprovalForAll",
            "type": "event"
        },
        {
            "anonymous": false,
            "inputs": [
                {
                    "indexed": false,
                    "internalType": "uint8",
                    "name": "version",
                    "type": "uint8"
                }
            ],
            "name": "Initialized",
            "type": "event"
        },
        {
            "anonymous": false,
            "inputs": [
                {
                    "indexed": true,
                    "internalType": "address",
                    "name": "previousOwner",
                    "type": "address"
                },
                {
                    "indexed": true,
                    "internalType": "address",
                    "name": "newOwner",
                    "type": "address"
                }
            ],
            "name": "OwnershipTransferred",
            "type": "event"
        },
        {
            "anonymous": false,
            "inputs": [
                {
                    "indexed": true,
                    "internalType": "bytes32",
                    "name": "role",
                    "type": "bytes32"
                },
                {
                    "indexed": true,
                    "internalType": "bytes32",
                    "name": "previousAdminRole",
                    "type": "bytes32"
                },
                {
                    "indexed": true,
                    "internalType": "bytes32",
                    "name": "newAdminRole",
                    "type": "bytes32"
                }
            ],
            "name": "RoleAdminChanged",
            "type": "event"
        },
        {
            "anonymous": false,
            "inputs": [
                {
                    "indexed": true,
                    "internalType": "bytes32",
                    "name": "role",
                    "type": "bytes32"
                },
                {
                    "indexed": true,
                    "internalType": "address",
                    "name": "account",
                    "type": "address"
                },
                {
                    "indexed": true,
                    "internalType": "address",
                    "name": "sender",
                    "type": "address"
                }
            ],
            "name": "RoleGranted",
            "type": "event"
        },
        {
            "anonymous": false,
            "inputs": [
                {
                    "indexed": true,
                    "internalType": "bytes32",
                    "name": "role",
                    "type": "bytes32"
                },
                {
                    "indexed": true,
                    "internalType": "address",
                    "name": "account",
                    "type": "address"
                },
                {
                    "indexed": true,
                    "internalType": "address",
                    "name": "sender",
                    "type": "address"
                }
            ],
            "name": "RoleRevoked",
            "type": "event"
        },
        {
            "anonymous": false,
            "inputs": [
                {
                    "indexed": true,
                    "internalType": "address",
                    "name": "from",
                    "type": "address"
                },
                {
                    "indexed": true,
                    "internalType": "address",
                    "name": "to",
                    "type": "address"
                },
                {
                    "indexed": true,
                    "internalType": "uint256",
                    "name": "tokenId",
                    "type": "uint256"
                }
            ],
            "name": "Transfer",
            "type": "event"
        },
        {
            "inputs": [],
            "name": "ADMIN_ROLE",
            "outputs": [
                {
                    "internalType": "bytes32",
                    "name": "",
                    "type": "bytes32"
                }
            ],
            "stateMutability": "view",
            "type": "function"
        },
        {
            "inputs": [],
            "name": "DEFAULT_ADMIN_ROLE",
            "outputs": [
                {
                    "internalType": "bytes32",
                    "name": "",
                    "type": "bytes32"
                }
            ],
            "stateMutability": "view",
            "type": "function"
        },
        {
            "inputs": [],
            "name": "ROYALTIES_BASIS",
            "outputs": [
                {
                    "internalType": "uint16",
                    "name": "",
                    "type": "uint16"
                }
            ],
            "stateMutability": "view",
            "type": "function"
        },
        {
            "inputs": [],
            "name": "VERSION",
            "outputs": [
                {
                    "internalType": "uint256",
                    "name": "",
                    "type": "uint256"
                }
            ],
            "stateMutability": "view",
            "type": "function"
        },
        {
            "inputs": [
                {
                    "internalType": "address",
                    "name": "to",
                    "type": "address"
                },
                {
                    "internalType": "uint256",
                    "name": "tokenId",
                    "type": "uint256"
                }
            ],
            "name": "approve",
            "outputs": [],
            "stateMutability": "nonpayable",
            "type": "function"
        },
        {
            "inputs": [],
            "name": "availableSupply",
            "outputs": [
                {
                    "internalType": "uint256",
                    "name": "",
                    "type": "uint256"
                }
            ],
            "stateMutability": "view",
            "type": "function"
        },
        {
            "inputs": [
                {
                    "internalType": "address",
                    "name": "owner",
                    "type": "address"
                }
            ],
            "name": "balanceOf",
            "outputs": [
                {
                    "internalType": "uint256",
                    "name": "",
                    "type": "uint256"
                }
            ],
            "stateMutability": "view",
            "type": "function"
        },
        {
            "inputs": [],
            "name": "baseURI",
            "outputs": [
                {
                    "internalType": "string",
                    "name": "",
                    "type": "string"
                }
            ],
            "stateMutability": "view",
            "type": "function"
        },
        {
            "inputs": [],
            "name": "contractURI",
            "outputs": [
                {
                    "internalType": "string",
                    "name": "",
                    "type": "string"
                }
            ],
            "stateMutability": "view",
            "type": "function"
        },
        {
            "inputs": [
                {
                    "internalType": "uint256",
                    "name": "tokenId",
                    "type": "uint256"
                }
            ],
            "name": "getApproved",
            "outputs": [
                {
                    "internalType": "address",
                    "name": "",
                    "type": "address"
                }
            ],
            "stateMutability": "view",
            "type": "function"
        },
        {
            "inputs": [],
            "name": "getInfo",
            "outputs": [
                {
                    "components": [
                        {
                            "internalType": "uint256",
                            "name": "version",
                            "type": "uint256"
                        },
                        {
                            "components": [
                                {
                                    "internalType": "string",
                                    "name": "name",
                                    "type": "string"
                                },
                                {
                                    "internalType": "string",
                                    "name": "symbol",
                                    "type": "string"
                                },
                                {
                                    "internalType": "address",
                                    "name": "owner",
                                    "type": "address"
                                },
                                {
                                    "internalType": "uint256",
                                    "name": "maxSupply",
                                    "type": "uint256"
                                },
                                {
                                    "internalType": "uint256",
                                    "name": "reservedSupply",
                                    "type": "uint256"
                                },
                                {
                                    "internalType": "uint256",
                                    "name": "tokensPerMint",
                                    "type": "uint256"
                                },
                                {
                                    "internalType": "address payable",
                                    "name": "treasuryAddress",
                                    "type": "address"
                                }
                            ],
                            "internalType": "struct NFTCollection.DeploymentConfig",
                            "name": "deploymentConfig",
                            "type": "tuple"
                        },
                        {
                            "components": [
                                {
                                    "internalType": "string",
                                    "name": "baseURI",
                                    "type": "string"
                                },
                                {
                                    "internalType": "bool",
                                    "name": "metadataUpdatable",
                                    "type": "bool"
                                },
                                {
                                    "internalType": "uint256",
                                    "name": "publicMintPrice",
                                    "type": "uint256"
                                },
                                {
                                    "internalType": "bool",
                                    "name": "publicMintPriceFrozen",
                                    "type": "bool"
                                },
                                {
                                    "internalType": "uint256",
                                    "name": "presaleMintPrice",
                                    "type": "uint256"
                                },
                                {
                                    "internalType": "bool",
                                    "name": "presaleMintPriceFrozen",
                                    "type": "bool"
                                },
                                {
                                    "internalType": "uint256",
                                    "name": "publicMintStart",
                                    "type": "uint256"
                                },
                                {
                                    "internalType": "uint256",
                                    "name": "presaleMintStart",
                                    "type": "uint256"
                                },
                                {
                                    "internalType": "string",
                                    "name": "prerevealTokenURI",
                                    "type": "string"
                                },
                                {
                                    "internalType": "bytes32",
                                    "name": "presaleMerkleRoot",
                                    "type": "bytes32"
                                },
                                {
                                    "internalType": "uint256",
                                    "name": "royaltiesBps",
                                    "type": "uint256"
                                },
                                {
                                    "internalType": "address",
                                    "name": "royaltiesAddress",
                                    "type": "address"
                                }
                            ],
                            "internalType": "struct NFTCollection.RuntimeConfig",
                            "name": "runtimeConfig",
                            "type": "tuple"
                        }
                    ],
                    "internalType": "struct NFTCollection.ContractInfo",
                    "name": "info",
                    "type": "tuple"
                }
            ],
            "stateMutability": "view",
            "type": "function"
        },
        {
            "inputs": [
                {
                    "internalType": "bytes32",
                    "name": "role",
                    "type": "bytes32"
                }
            ],
            "name": "getRoleAdmin",
            "outputs": [
                {
                    "internalType": "bytes32",
                    "name": "",
                    "type": "bytes32"
                }
            ],
            "stateMutability": "view",
            "type": "function"
        },
        {
            "inputs": [
                {
                    "internalType": "bytes32",
                    "name": "role",
                    "type": "bytes32"
                },
                {
                    "internalType": "address",
                    "name": "account",
                    "type": "address"
                }
            ],
            "name": "grantRole",
            "outputs": [],
            "stateMutability": "nonpayable",
            "type": "function"
        },
        {
            "inputs": [
                {
                    "internalType": "bytes32",
                    "name": "role",
                    "type": "bytes32"
                },
                {
                    "internalType": "address",
                    "name": "account",
                    "type": "address"
                }
            ],
            "name": "hasRole",
            "outputs": [
                {
                    "internalType": "bool",
                    "name": "",
                    "type": "bool"
                }
            ],
            "stateMutability": "view",
            "type": "function"
        },
        {
            "inputs": [
                {
                    "components": [
                        {
                            "internalType": "string",
                            "name": "name",
                            "type": "string"
                        },
                        {
                            "internalType": "string",
                            "name": "symbol",
                            "type": "string"
                        },
                        {
                            "internalType": "address",
                            "name": "owner",
                            "type": "address"
                        },
                        {
                            "internalType": "uint256",
                            "name": "maxSupply",
                            "type": "uint256"
                        },
                        {
                            "internalType": "uint256",
                            "name": "reservedSupply",
                            "type": "uint256"
                        },
                        {
                            "internalType": "uint256",
                            "name": "tokensPerMint",
                            "type": "uint256"
                        },
                        {
                            "internalType": "address payable",
                            "name": "treasuryAddress",
                            "type": "address"
                        }
                    ],
                    "internalType": "struct NFTCollection.DeploymentConfig",
                    "name": "deploymentConfig",
                    "type": "tuple"
                },
                {
                    "components": [
                        {
                            "internalType": "string",
                            "name": "baseURI",
                            "type": "string"
                        },
                        {
                            "internalType": "bool",
                            "name": "metadataUpdatable",
                            "type": "bool"
                        },
                        {
                            "internalType": "uint256",
                            "name": "publicMintPrice",
                            "type": "uint256"
                        },
                        {
                            "internalType": "bool",
                            "name": "publicMintPriceFrozen",
                            "type": "bool"
                        },
                        {
                            "internalType": "uint256",
                            "name": "presaleMintPrice",
                            "type": "uint256"
                        },
                        {
                            "internalType": "bool",
                            "name": "presaleMintPriceFrozen",
                            "type": "bool"
                        },
                        {
                            "internalType": "uint256",
                            "name": "publicMintStart",
                            "type": "uint256"
                        },
                        {
                            "internalType": "uint256",
                            "name": "presaleMintStart",
                            "type": "uint256"
                        },
                        {
                            "internalType": "string",
                            "name": "prerevealTokenURI",
                            "type": "string"
                        },
                        {
                            "internalType": "bytes32",
                            "name": "presaleMerkleRoot",
                            "type": "bytes32"
                        },
                        {
                            "internalType": "uint256",
                            "name": "royaltiesBps",
                            "type": "uint256"
                        },
                        {
                            "internalType": "address",
                            "name": "royaltiesAddress",
                            "type": "address"
                        }
                    ],
                    "internalType": "struct NFTCollection.RuntimeConfig",
                    "name": "runtimeConfig",
                    "type": "tuple"
                }
            ],
            "name": "initialize",
            "outputs": [],
            "stateMutability": "nonpayable",
            "type": "function"
        },
        {
            "inputs": [
                {
                    "internalType": "address",
                    "name": "owner",
                    "type": "address"
                },
                {
                    "internalType": "address",
                    "name": "operator",
                    "type": "address"
                }
            ],
            "name": "isApprovedForAll",
            "outputs": [
                {
                    "internalType": "bool",
                    "name": "",
                    "type": "bool"
                }
            ],
            "stateMutability": "view",
            "type": "function"
        },
        {
            "inputs": [
                {
                    "internalType": "address",
                    "name": "wallet",
                    "type": "address"
                },
                {
                    "internalType": "bytes32[]",
                    "name": "proof",
                    "type": "bytes32[]"
                }
            ],
            "name": "isWhitelisted",
            "outputs": [
                {
                    "internalType": "bool",
                    "name": "",
                    "type": "bool"
                }
            ],
            "stateMutability": "view",
            "type": "function"
        },
        {
            "inputs": [],
            "name": "maxSupply",
            "outputs": [
                {
                    "internalType": "uint256",
                    "name": "",
                    "type": "uint256"
                }
            ],
            "stateMutability": "view",
            "type": "function"
        },
        {
            "inputs": [],
            "name": "metadataUpdatable",
            "outputs": [
                {
                    "internalType": "bool",
                    "name": "",
                    "type": "bool"
                }
            ],
            "stateMutability": "view",
            "type": "function"
        },
        {
            "inputs": [
                {
                    "internalType": "uint256",
                    "name": "amount",
                    "type": "uint256"
                }
            ],
            "name": "mint",
            "outputs": [],
            "stateMutability": "payable",
            "type": "function"
        },
        {
            "inputs": [],
            "name": "mintingActive",
            "outputs": [
                {
                    "internalType": "bool",
                    "name": "",
                    "type": "bool"
                }
            ],
            "stateMutability": "view",
            "type": "function"
        },
        {
            "inputs": [],
            "name": "name",
            "outputs": [
                {
                    "internalType": "string",
                    "name": "",
                    "type": "string"
                }
            ],
            "stateMutability": "view",
            "type": "function"
        },
        {
            "inputs": [],
            "name": "owner",
            "outputs": [
                {
                    "internalType": "address",
                    "name": "",
                    "type": "address"
                }
            ],
            "stateMutability": "view",
            "type": "function"
        },
        {
            "inputs": [
                {
                    "internalType": "uint256",
                    "name": "tokenId",
                    "type": "uint256"
                }
            ],
            "name": "ownerOf",
            "outputs": [
                {
                    "internalType": "address",
                    "name": "",
                    "type": "address"
                }
            ],
            "stateMutability": "view",
            "type": "function"
        },
        {
            "inputs": [],
            "name": "prerevealTokenURI",
            "outputs": [
                {
                    "internalType": "string",
                    "name": "",
                    "type": "string"
                }
            ],
            "stateMutability": "view",
            "type": "function"
        },
        {
            "inputs": [],
            "name": "presaleActive",
            "outputs": [
                {
                    "internalType": "bool",
                    "name": "",
                    "type": "bool"
                }
            ],
            "stateMutability": "view",
            "type": "function"
        },
        {
            "inputs": [],
            "name": "presaleMerkleRoot",
            "outputs": [
                {
                    "internalType": "bytes32",
                    "name": "",
                    "type": "bytes32"
                }
            ],
            "stateMutability": "view",
            "type": "function"
        },
        {
            "inputs": [
                {
                    "internalType": "uint256",
                    "name": "amount",
                    "type": "uint256"
                },
                {
                    "internalType": "bytes32[]",
                    "name": "proof",
                    "type": "bytes32[]"
                }
            ],
            "name": "presaleMint",
            "outputs": [],
            "stateMutability": "payable",
            "type": "function"
        },
        {
            "inputs": [],
            "name": "presaleMintPrice",
            "outputs": [
                {
                    "internalType": "uint256",
                    "name": "",
                    "type": "uint256"
                }
            ],
            "stateMutability": "view",
            "type": "function"
        },
        {
            "inputs": [],
            "name": "presaleMintStart",
            "outputs": [
                {
                    "internalType": "uint256",
                    "name": "",
                    "type": "uint256"
                }
            ],
            "stateMutability": "view",
            "type": "function"
        },
        {
            "inputs": [],
            "name": "publicMintPrice",
            "outputs": [
                {
                    "internalType": "uint256",
                    "name": "",
                    "type": "uint256"
                }
            ],
            "stateMutability": "view",
            "type": "function"
        },
        {
            "inputs": [],
            "name": "publicMintStart",
            "outputs": [
                {
                    "internalType": "uint256",
                    "name": "",
                    "type": "uint256"
                }
            ],
            "stateMutability": "view",
            "type": "function"
        },
        {
            "inputs": [
                {
                    "internalType": "bytes32",
                    "name": "role",
                    "type": "bytes32"
                },
                {
                    "internalType": "address",
                    "name": "account",
                    "type": "address"
                }
            ],
            "name": "renounceRole",
            "outputs": [],
            "stateMutability": "nonpayable",
            "type": "function"
        },
        {
            "inputs": [
                {
                    "internalType": "address",
                    "name": "to",
                    "type": "address"
                },
                {
                    "internalType": "uint256",
                    "name": "amount",
                    "type": "uint256"
                }
            ],
            "name": "reserveMint",
            "outputs": [],
            "stateMutability": "nonpayable",
            "type": "function"
        },
        {
            "inputs": [],
            "name": "reserveRemaining",
            "outputs": [
                {
                    "internalType": "uint256",
                    "name": "",
                    "type": "uint256"
                }
            ],
            "stateMutability": "view",
            "type": "function"
        },
        {
            "inputs": [],
            "name": "reservedSupply",
            "outputs": [
                {
                    "internalType": "uint256",
                    "name": "",
                    "type": "uint256"
                }
            ],
            "stateMutability": "view",
            "type": "function"
        },
        {
            "inputs": [
                {
                    "internalType": "bytes32",
                    "name": "role",
                    "type": "bytes32"
                },
                {
                    "internalType": "address",
                    "name": "account",
                    "type": "address"
                }
            ],
            "name": "revokeRole",
            "outputs": [],
            "stateMutability": "nonpayable",
            "type": "function"
        },
        {
            "inputs": [
                {
                    "internalType": "uint256",
                    "name": "",
                    "type": "uint256"
                },
                {
                    "internalType": "uint256",
                    "name": "salePrice",
                    "type": "uint256"
                }
            ],
            "name": "royaltyInfo",
            "outputs": [
                {
                    "internalType": "address",
                    "name": "receiver",
                    "type": "address"
                },
                {
                    "internalType": "uint256",
                    "name": "royaltyAmount",
                    "type": "uint256"
                }
            ],
            "stateMutability": "view",
            "type": "function"
        },
        {
            "inputs": [
                {
                    "internalType": "address",
                    "name": "from",
                    "type": "address"
                },
                {
                    "internalType": "address",
                    "name": "to",
                    "type": "address"
                },
                {
                    "internalType": "uint256",
                    "name": "tokenId",
                    "type": "uint256"
                }
            ],
            "name": "safeTransferFrom",
            "outputs": [],
            "stateMutability": "nonpayable",
            "type": "function"
        },
        {
            "inputs": [
                {
                    "internalType": "address",
                    "name": "from",
                    "type": "address"
                },
                {
                    "internalType": "address",
                    "name": "to",
                    "type": "address"
                },
                {
                    "internalType": "uint256",
                    "name": "tokenId",
                    "type": "uint256"
                },
                {
                    "internalType": "bytes",
                    "name": "_data",
                    "type": "bytes"
                }
            ],
            "name": "safeTransferFrom",
            "outputs": [],
            "stateMutability": "nonpayable",
            "type": "function"
        },
        {
            "inputs": [
                {
                    "internalType": "address",
                    "name": "operator",
                    "type": "address"
                },
                {
                    "internalType": "bool",
                    "name": "approved",
                    "type": "bool"
                }
            ],
            "name": "setApprovalForAll",
            "outputs": [],
            "stateMutability": "nonpayable",
            "type": "function"
        },
        {
            "inputs": [
                {
                    "internalType": "bytes4",
                    "name": "interfaceId",
                    "type": "bytes4"
                }
            ],
            "name": "supportsInterface",
            "outputs": [
                {
                    "internalType": "bool",
                    "name": "",
                    "type": "bool"
                }
            ],
            "stateMutability": "view",
            "type": "function"
        },
        {
            "inputs": [],
            "name": "symbol",
            "outputs": [
                {
                    "internalType": "string",
                    "name": "",
                    "type": "string"
                }
            ],
            "stateMutability": "view",
            "type": "function"
        },
        {
            "inputs": [
                {
                    "internalType": "uint256",
                    "name": "tokenId",
                    "type": "uint256"
                }
            ],
            "name": "tokenURI",
            "outputs": [
                {
                    "internalType": "string",
                    "name": "",
                    "type": "string"
                }
            ],
            "stateMutability": "view",
            "type": "function"
        },
        {
            "inputs": [],
            "name": "tokensPerMint",
            "outputs": [
                {
                    "internalType": "uint256",
                    "name": "",
                    "type": "uint256"
                }
            ],
            "stateMutability": "view",
            "type": "function"
        },
        {
            "inputs": [],
            "name": "totalSupply",
            "outputs": [
                {
                    "internalType": "uint256",
                    "name": "",
                    "type": "uint256"
                }
            ],
            "stateMutability": "view",
            "type": "function"
        },
        {
            "inputs": [
                {
                    "internalType": "address",
                    "name": "to",
                    "type": "address"
                }
            ],
            "name": "transferAdminRights",
            "outputs": [],
            "stateMutability": "nonpayable",
            "type": "function"
        },
        {
            "inputs": [
                {
                    "internalType": "address",
                    "name": "from",
                    "type": "address"
                },
                {
                    "internalType": "address",
                    "name": "to",
                    "type": "address"
                },
                {
                    "internalType": "uint256",
                    "name": "tokenId",
                    "type": "uint256"
                }
            ],
            "name": "transferFrom",
            "outputs": [],
            "stateMutability": "nonpayable",
            "type": "function"
        },
        {
            "inputs": [
                {
                    "internalType": "address",
                    "name": "newOwner",
                    "type": "address"
                }
            ],
            "name": "transferOwnership",
            "outputs": [],
            "stateMutability": "nonpayable",
            "type": "function"
        },
        {
            "inputs": [],
            "name": "treasuryAddress",
            "outputs": [
                {
                    "internalType": "address",
                    "name": "",
                    "type": "address"
                }
            ],
            "stateMutability": "view",
            "type": "function"
        },
        {
            "inputs": [
                {
                    "components": [
                        {
                            "internalType": "string",
                            "name": "baseURI",
                            "type": "string"
                        },
                        {
                            "internalType": "bool",
                            "name": "metadataUpdatable",
                            "type": "bool"
                        },
                        {
                            "internalType": "uint256",
                            "name": "publicMintPrice",
                            "type": "uint256"
                        },
                        {
                            "internalType": "bool",
                            "name": "publicMintPriceFrozen",
                            "type": "bool"
                        },
                        {
                            "internalType": "uint256",
                            "name": "presaleMintPrice",
                            "type": "uint256"
                        },
                        {
                            "internalType": "bool",
                            "name": "presaleMintPriceFrozen",
                            "type": "bool"
                        },
                        {
                            "internalType": "uint256",
                            "name": "publicMintStart",
                            "type": "uint256"
                        },
                        {
                            "internalType": "uint256",
                            "name": "presaleMintStart",
                            "type": "uint256"
                        },
                        {
                            "internalType": "string",
                            "name": "prerevealTokenURI",
                            "type": "string"
                        },
                        {
                            "internalType": "bytes32",
                            "name": "presaleMerkleRoot",
                            "type": "bytes32"
                        },
                        {
                            "internalType": "uint256",
                            "name": "royaltiesBps",
                            "type": "uint256"
                        },
                        {
                            "internalType": "address",
                            "name": "royaltiesAddress",
                            "type": "address"
                        }
                    ],
                    "internalType": "struct NFTCollection.RuntimeConfig",
                    "name": "newConfig",
                    "type": "tuple"
                }
            ],
            "name": "updateConfig",
            "outputs": [],
            "stateMutability": "nonpayable",
            "type": "function"
        },
        {
            "inputs": [],
            "name": "withdrawFees",
            "outputs": [],
            "stateMutability": "nonpayable",
            "type": "function"
        }
    ],
    "bytecode": "0x601560808181527f5371756172656420436f756e74727920466c616773000000000000000000000060a0908152610100604052600560c090815264464c41475360d81b60e052919262000055916000916200014e565b5080516200006b9060019060208401906200014e565b505050620000b96040518060400160405280601a81526020017f536d61727420436f6e747261637420696e697469616c697a6564000000000000815250620000d660201b62000eba1760201c565b620000d060066200012460201b62000f001760201c565b62000287565b6200012181604051602401620000ed9190620001f4565b60408051601f198184030181529190526020810180516001600160e01b0390811663104c13eb60e21b179091526200012d16565b50565b80546001019055565b80516a636f6e736f6c652e6c6f67602083016000808483855afa5050505050565b8280546200015c906200024a565b90600052602060002090601f016020900481019282620001805760008555620001cb565b82601f106200019b57805160ff1916838001178555620001cb565b82800160010185558215620001cb579182015b82811115620001cb578251825591602001919060010190620001ae565b50620001d9929150620001dd565b5090565b5b80821115620001d95760008155600101620001de565b6000602080835283518082850152825b81811015620002225785810183015185820160400152820162000204565b81811115620002345783604083870101525b50601f01601f1916929092016040019392505050565b600181811c908216806200025f57607f821691505b602082108114156200028157634e487b7160e01b600052602260045260246000fd5b50919050565b61227380620002976000396000f3fe6080604052600436106100f65760003560e01c80636352211e1161008f578063a22cb46511610061578063a22cb465146102b6578063b88d4fde146102d6578063c87b56dd146102f6578063e985e9c514610316578063eb5d2a901461035f57005b80636352211e1461023157806370a082311461025157806395d89b411461027157806398da4c951461028657005b806321b3d85c116100c857806321b3d85c146101ae57806323b872dd146101ce57806342842e0e146101ee578063561892361461020e57005b806301ffc9a7146100ff57806306fdde0314610134578063081812fc14610156578063095ea7b31461018e57005b366100fd57005b005b34801561010b57600080fd5b5061011f61011a366004611b39565b6103a0565b60405190151581526020015b60405180910390f35b34801561014057600080fd5b506101496103f2565b60405161012b9190611f49565b34801561016257600080fd5b50610176610171366004611c40565b610484565b6040516001600160a01b03909116815260200161012b565b34801561019a57600080fd5b506100fd6101a9366004611b10565b6104ab565b3480156101ba57600080fd5b506100fd6101c9366004611ba4565b6105c6565b3480156101da57600080fd5b506100fd6101e9366004611a22565b6107aa565b3480156101fa57600080fd5b506100fd610209366004611a22565b6107db565b34801561021a57600080fd5b506102236107f6565b60405190815260200161012b565b34801561023d57600080fd5b5061017661024c366004611c40565b610806565b34801561025d57600080fd5b5061022361026c3660046119d6565b610866565b34801561027d57600080fd5b506101496108ec565b34801561029257600080fd5b506102a66102a1366004611c40565b6108fb565b60405161012b9493929190611f5c565b3480156102c257600080fd5b506100fd6102d1366004611ad6565b610b43565b3480156102e257600080fd5b506100fd6102f1366004611a5d565b610b52565b34801561030257600080fd5b50610149610311366004611c40565b610b8a565b34801561032257600080fd5b5061011f6103313660046119f0565b6001600160a01b03918216600090815260056020908152604080832093909416825291909152205460ff1690565b34801561036b57600080fd5b5061017661037a366004611b71565b80516020818301810180516008825292820191909301209152546001600160a01b031681565b60006001600160e01b031982166380ac58cd60e01b14806103d157506001600160e01b03198216635b5e139f60e01b145b806103ec57506301ffc9a760e01b6001600160e01b03198316145b92915050565b60606000805461040190612118565b80601f016020809104026020016040519081016040528092919081815260200182805461042d90612118565b801561047a5780601f1061044f5761010080835404028352916020019161047a565b820191906000526020600020905b81548152906001019060200180831161045d57829003601f168201915b5050505050905090565b600061048f82610f09565b506000908152600460205260409020546001600160a01b031690565b60006104b682610806565b9050806001600160a01b0316836001600160a01b031614156105295760405162461bcd60e51b815260206004820152602160248201527f4552433732313a20617070726f76616c20746f2063757272656e74206f776e656044820152603960f91b60648201526084015b60405180910390fd5b336001600160a01b038216148061054557506105458133610331565b6105b75760405162461bcd60e51b815260206004820152603e60248201527f4552433732313a20617070726f76652063616c6c6572206973206e6f7420746f60448201527f6b656e206f776e6572206e6f7220617070726f76656420666f7220616c6c00006064820152608401610520565b6105c18383610f68565b505050565b60006105d160065490565b905060006001600160a01b03166008866040516105ee9190611ca0565b908152604051908190036020019020546001600160a01b0316146106545760405162461bcd60e51b815260206004820152601a60248201527f436f756e74727920636f646520616c72656164792074616b656e0000000000006044820152606401610520565b61065e3382610fd6565b604080516080810182528681526020808201879052818301869052606082018590526000848152600782529290922081518051929391926106a29284920190611885565b5060208281015180516106bb9260018501920190611885565b50604082015180516106d7916002840191602090910190611885565b50606082015180516106f3916003840191602090910190611885565b5090505061071a60405180606001604052806023815260200161221b602391398583610ff0565b3360088660405161072b9190611ca0565b90815260405190819003602001902080546001600160a01b03929092166001600160a01b0319909216919091179055610768600680546001019055565b7f85be0a510c2336bd1c119a535feb4128501be26d6e91867d5c2a82ed58ce560a33828760405161079b93929190611f19565b60405180910390a15050505050565b6107b43382611037565b6107d05760405162461bcd60e51b81526004016105209061203c565b6105c18383836110b6565b6105c183838360405180602001604052806000815250610b52565b600061080160065490565b905090565b6000818152600260205260408120546001600160a01b0316806103ec5760405162461bcd60e51b8152602060048201526018602482015277115490cdcc8c4e881a5b9d985b1a59081d1bdad95b88125160421b6044820152606401610520565b60006001600160a01b0382166108d05760405162461bcd60e51b815260206004820152602960248201527f4552433732313a2061646472657373207a65726f206973206e6f7420612076616044820152683634b21037bbb732b960b91b6064820152608401610520565b506001600160a01b031660009081526003602052604090205490565b60606001805461040190612118565b60076020526000908152604090208054819061091690612118565b80601f016020809104026020016040519081016040528092919081815260200182805461094290612118565b801561098f5780601f106109645761010080835404028352916020019161098f565b820191906000526020600020905b81548152906001019060200180831161097257829003601f168201915b5050505050908060010180546109a490612118565b80601f01602080910402602001604051908101604052809291908181526020018280546109d090612118565b8015610a1d5780601f106109f257610100808354040283529160200191610a1d565b820191906000526020600020905b815481529060010190602001808311610a0057829003601f168201915b505050505090806002018054610a3290612118565b80601f0160208091040260200160405190810160405280929190818152602001828054610a5e90612118565b8015610aab5780601f10610a8057610100808354040283529160200191610aab565b820191906000526020600020905b815481529060010190602001808311610a8e57829003601f168201915b505050505090806003018054610ac090612118565b80601f0160208091040260200160405190810160405280929190818152602001828054610aec90612118565b8015610b395780601f10610b0e57610100808354040283529160200191610b39565b820191906000526020600020905b815481529060010190602001808311610b1c57829003601f168201915b5050505050905084565b610b4e338383611252565b5050565b610b5c3383611037565b610b785760405162461bcd60e51b81526004016105209061203c565b610b8484848484611321565b50505050565b6060600060076000848152602001908152602001600020604051806080016040529081600082018054610bbc90612118565b80601f0160208091040260200160405190810160405280929190818152602001828054610be890612118565b8015610c355780601f10610c0a57610100808354040283529160200191610c35565b820191906000526020600020905b815481529060010190602001808311610c1857829003601f168201915b50505050508152602001600182018054610c4e90612118565b80601f0160208091040260200160405190810160405280929190818152602001828054610c7a90612118565b8015610cc75780601f10610c9c57610100808354040283529160200191610cc7565b820191906000526020600020905b815481529060010190602001808311610caa57829003601f168201915b50505050508152602001600282018054610ce090612118565b80601f0160208091040260200160405190810160405280929190818152602001828054610d0c90612118565b8015610d595780601f10610d2e57610100808354040283529160200191610d59565b820191906000526020600020905b815481529060010190602001808311610d3c57829003601f168201915b50505050508152602001600382018054610d7290612118565b80601f0160208091040260200160405190810160405280929190818152602001828054610d9e90612118565b8015610deb5780601f10610dc057610100808354040283529160200191610deb565b820191906000526020600020905b815481529060010190602001808311610dce57829003601f168201915b5050505050815250509050600081600001515111610e405760405162461bcd60e51b8152602060048201526012602482015271151bdad95b88125108139bdd08199bdd5b9960721b6044820152606401610520565b6000610e8c8260200151610e5386611354565b602080860151604080880151885160608a01519251610e789796959293919201611d01565b60405160208183030381529060405261146e565b9050600081604051602001610ea19190611cbc565b60408051601f1981840301815291905295945050505050565b610efd81604051602401610ece9190611f49565b60408051601f198184030181529190526020810180516001600160e01b031663104c13eb60e21b1790526115e2565b50565b80546001019055565b6000818152600260205260409020546001600160a01b0316610efd5760405162461bcd60e51b8152602060048201526018602482015277115490cdcc8c4e881a5b9d985b1a59081d1bdad95b88125160421b6044820152606401610520565b600081815260046020526040902080546001600160a01b0319166001600160a01b0384169081179091558190610f9d82610806565b6001600160a01b03167f8c5be1e5ebec7d5bd14f71427d1e84f3dd0314c0f7b2291e5b200ac8c7c3b92560405160405180910390a45050565b610b4e828260405180602001604052806000815250611603565b6105c183838360405160240161100893929190611fb4565b60408051601f198184030181529190526020810180516001600160e01b0316635821efa160e01b1790526115e2565b60008061104383610806565b9050806001600160a01b0316846001600160a01b0316148061108a57506001600160a01b0380821660009081526005602090815260408083209388168352929052205460ff165b806110ae5750836001600160a01b03166110a384610484565b6001600160a01b0316145b949350505050565b826001600160a01b03166110c982610806565b6001600160a01b03161461112d5760405162461bcd60e51b815260206004820152602560248201527f4552433732313a207472616e736665722066726f6d20696e636f72726563742060448201526437bbb732b960d91b6064820152608401610520565b6001600160a01b03821661118f5760405162461bcd60e51b8152602060048201526024808201527f4552433732313a207472616e7366657220746f20746865207a65726f206164646044820152637265737360e01b6064820152608401610520565b61119a600082610f68565b6001600160a01b03831660009081526003602052604081208054600192906111c39084906120d5565b90915550506001600160a01b03821660009081526003602052604081208054600192906111f190849061208a565b909155505060008181526002602052604080822080546001600160a01b0319166001600160a01b0386811691821790925591518493918716917fddf252ad1be2c89b69c2b068fc378daa952ba7f163c4a11628f55a4df523b3ef91a4505050565b816001600160a01b0316836001600160a01b031614156112b45760405162461bcd60e51b815260206004820152601960248201527f4552433732313a20617070726f766520746f2063616c6c6572000000000000006044820152606401610520565b6001600160a01b03838116600081815260056020908152604080832094871680845294825291829020805460ff191686151590811790915591519182527f17307eab39ab6107e8899845ad3d59bd9653f200f220920489ca2b5937696c31910160405180910390a3505050565b61132c8484846110b6565b61133884848484611636565b610b845760405162461bcd60e51b815260040161052090611fea565b6060816113785750506040805180820190915260018152600360fc1b602082015290565b8160005b81156113a2578061138c81612153565b915061139b9050600a836120a2565b915061137c565b60008167ffffffffffffffff8111156113cb57634e487b7160e01b600052604160045260246000fd5b6040519080825280601f01601f1916602001820160405280156113f5576020820181803683370190505b5090505b84156110ae5761140a6001836120d5565b9150611417600a8661216e565b61142290603061208a565b60f81b81838151811061144557634e487b7160e01b600052603260045260246000fd5b60200101906001600160f81b031916908160001a905350611467600a866120a2565b94506113f9565b80516060908061148e575050604080516020810190915260008152919050565b6000600361149d83600261208a565b6114a791906120a2565b6114b29060046120b6565b905060006114c182602061208a565b67ffffffffffffffff8111156114e757634e487b7160e01b600052604160045260246000fd5b6040519080825280601f01601f191660200182016040528015611511576020820181803683370190505b50905060006040518060600160405280604081526020016121db604091399050600181016020830160005b8681101561159d576003818a01810151603f601282901c8116860151600c83901c8216870151600684901c831688015192909316870151600891821b60ff94851601821b92841692909201901b91160160e01b83526004909201910161153c565b5060038606600181146115b757600281146115c8576115d4565b613d3d60f01b6001198301526115d4565b603d60f81b6000198301525b505050918152949350505050565b80516a636f6e736f6c652e6c6f67602083016000808483855afa5050505050565b61160d8383611743565b61161a6000848484611636565b6105c15760405162461bcd60e51b815260040161052090611fea565b60006001600160a01b0384163b1561173857604051630a85bd0160e11b81526001600160a01b0385169063150b7a029061167a903390899088908890600401611edc565b602060405180830381600087803b15801561169457600080fd5b505af19250505080156116c4575060408051601f3d908101601f191682019092526116c191810190611b55565b60015b61171e573d8080156116f2576040519150601f19603f3d011682016040523d82523d6000602084013e6116f7565b606091505b5080516117165760405162461bcd60e51b815260040161052090611fea565b805181602001fd5b6001600160e01b031916630a85bd0160e11b1490506110ae565b506001949350505050565b6001600160a01b0382166117995760405162461bcd60e51b815260206004820181905260248201527f4552433732313a206d696e7420746f20746865207a65726f20616464726573736044820152606401610520565b6000818152600260205260409020546001600160a01b0316156117fe5760405162461bcd60e51b815260206004820152601c60248201527f4552433732313a20746f6b656e20616c7265616479206d696e746564000000006044820152606401610520565b6001600160a01b038216600090815260036020526040812080546001929061182790849061208a565b909155505060008181526002602052604080822080546001600160a01b0319166001600160a01b03861690811790915590518392907fddf252ad1be2c89b69c2b068fc378daa952ba7f163c4a11628f55a4df523b3ef908290a45050565b82805461189190612118565b90600052602060002090601f0160209004810192826118b357600085556118f9565b82601f106118cc57805160ff19168380011785556118f9565b828001600101855582156118f9579182015b828111156118f95782518255916020019190600101906118de565b50611905929150611909565b5090565b5b80821115611905576000815560010161190a565b600067ffffffffffffffff80841115611939576119396121ae565b604051601f8501601f19908116603f01168101908282118183101715611961576119616121ae565b8160405280935085815286868601111561197a57600080fd5b858560208301376000602087830101525050509392505050565b80356001600160a01b03811681146119ab57600080fd5b919050565b600082601f8301126119c0578081fd5b6119cf8383356020850161191e565b9392505050565b6000602082840312156119e7578081fd5b6119cf82611994565b60008060408385031215611a02578081fd5b611a0b83611994565b9150611a1960208401611994565b90509250929050565b600080600060608486031215611a36578081fd5b611a3f84611994565b9250611a4d60208501611994565b9150604084013590509250925092565b60008060008060808587031215611a72578081fd5b611a7b85611994565b9350611a8960208601611994565b925060408501359150606085013567ffffffffffffffff811115611aab578182fd5b8501601f81018713611abb578182fd5b611aca8782356020840161191e565b91505092959194509250565b60008060408385031215611ae8578182fd5b611af183611994565b915060208301358015158114611b05578182fd5b809150509250929050565b60008060408385031215611b22578182fd5b611b2b83611994565b946020939093013593505050565b600060208284031215611b4a578081fd5b81356119cf816121c4565b600060208284031215611b66578081fd5b81516119cf816121c4565b600060208284031215611b82578081fd5b813567ffffffffffffffff811115611b98578182fd5b6110ae848285016119b0565b60008060008060808587031215611bb9578384fd5b843567ffffffffffffffff80821115611bd0578586fd5b611bdc888389016119b0565b95506020870135915080821115611bf1578485fd5b611bfd888389016119b0565b94506040870135915080821115611c12578384fd5b611c1e888389016119b0565b93506060870135915080821115611c33578283fd5b50611aca878288016119b0565b600060208284031215611c51578081fd5b5035919050565b60008151808452611c708160208601602086016120ec565b601f01601f19169290920160200192915050565b60008151611c968185602086016120ec565b9290920192915050565b60008251611cb28184602087016120ec565b9190910192915050565b7f646174613a6170706c69636174696f6e2f6a736f6e3b6261736536342c000000815260008251611cf481601d8501602087016120ec565b91909101601d0192915050565b7403d913730b6b2911d101110233630b390333937b69605d1b81528651600090611d32816015850160208c016120ec565b80830190506a01016969027232a10119d160ad1b60158201528751611d5e816020840160208c016120ec565b8082019150507f222c20226465736372697074696f6e223a202254686973204e4654206973206160208201527f20756e69717565206469676974616c2076657273696f6e206f6620746865206660408201526603630b39037b3160cd1b60608201528651611dd3816067840160208b016120ec565b61088b60f21b910160678101919091527022696d616765223a2022697066733a2f2f60781b6069820152611ecf611ebf611eb9611e85611e76611e70611e2d611e1f607a89018e611c84565b61088b60f21b815260020190565b7f2261747472696275746573223a205b7b202274726169745f74797065223a202281527021b7b232911610113b30b63ab2911d101160791b602082015260310190565b8a611c84565b62089f4b60ea1b815260030190565b7f7b202274726169745f74797065223a202243697479222c202276616c7565223a815261101160f11b602082015260220190565b86611c84565b63227d5d7d60e01b815260040190565b9998505050505050505050565b6001600160a01b0385811682528416602082015260408101839052608060608201819052600090611f0f90830184611c58565b9695505050505050565b60018060a01b0384168152826020820152606060408201526000611f406060830184611c58565b95945050505050565b6020815260006119cf6020830184611c58565b608081526000611f6f6080830187611c58565b8281036020840152611f818187611c58565b90508281036040840152611f958186611c58565b90508281036060840152611fa98185611c58565b979650505050505050565b606081526000611fc76060830186611c58565b8281036020840152611fd98186611c58565b915050826040830152949350505050565b60208082526032908201527f4552433732313a207472616e7366657220746f206e6f6e20455243373231526560408201527131b2b4bb32b91034b6b83632b6b2b73a32b960711b606082015260800190565b6020808252602e908201527f4552433732313a2063616c6c6572206973206e6f7420746f6b656e206f776e6560408201526d1c881b9bdc88185c1c1c9bdd995960921b606082015260800190565b6000821982111561209d5761209d612182565b500190565b6000826120b1576120b1612198565b500490565b60008160001904831182151516156120d0576120d0612182565b500290565b6000828210156120e7576120e7612182565b500390565b60005b838110156121075781810151838201526020016120ef565b83811115610b845750506000910152565b600181811c9082168061212c57607f821691505b6020821081141561214d57634e487b7160e01b600052602260045260246000fd5b50919050565b600060001982141561216757612167612182565b5060010190565b60008261217d5761217d612198565b500690565b634e487b7160e01b600052601160045260246000fd5b634e487b7160e01b600052601260045260246000fd5b634e487b7160e01b600052604160045260246000fd5b6001600160e01b031981168114610efd57600080fdfe4142434445464748494a4b4c4d4e4f505152535455565758595a6162636465666768696a6b6c6d6e6f707172737475767778797a303132333435363738392b2f4d696e746564204e46542066726f6d202573207769746820746f6b656e496420257320a2646970667358221220e993784902eed6af87a904cdd87b3bc3a4d43ac0faf8bd9ee09d7ff2c62a5fc264736f6c63430008040033",
    "linkReferences": {},
    "deployedLinkReferences": {}
}