{
  "_format": "hh-sol-artifact-1",
  "contractName": "RollOwnershipTokenV0",
  "sourceName": "contracts/RollOwnershipTokenV0.sol",
  "abi": [
    {
      "inputs": [],
      "stateMutability": "payable",
      "type": "constructor"
    },
    {
      "anonymous": false,
      "inputs": [
        {
          "indexed": true,
          "internalType": "address",
          "name": "owner",
          "type": "address"
        },
        {
          "indexed": true,
          "internalType": "address",
          "name": "approved",
          "type": "address"
        },
        {
          "indexed": true,
          "internalType": "uint256",
          "name": "tokenId",
          "type": "uint256"
        }
      ],
      "name": "Approval",
      "type": "event"
    },
    {
      "anonymous": false,
      "inputs": [
        {
          "indexed": true,
          "internalType": "address",
          "name": "owner",
          "type": "address"
        },
        {
          "indexed": true,
          "internalType": "address",
          "name": "operator",
          "type": "address"
        },
        {
          "indexed": false,
          "internalType": "bool",
          "name": "approved",
          "type": "bool"
        }
      ],
      "name": "ApprovalForAll",
      "type": "event"
    },
    {
      "anonymous": false,
      "inputs": [
        {
          "indexed": false,
          "internalType": "address",
          "name": "sender",
          "type": "address"
        },
        {
          "indexed": false,
          "internalType": "uint256",
          "name": "tokenId",
          "type": "uint256"
        },
        {
          "indexed": false,
          "internalType": "string",
          "name": "rollId",
          "type": "string"
        }
      ],
      "name": "PrizeClaimed",
      "type": "event"
    },
    {
      "anonymous": false,
      "inputs": [
        {
          "indexed": false,
          "internalType": "address",
          "name": "sender",
          "type": "address"
        },
        {
          "indexed": false,
          "internalType": "uint256",
          "name": "tokenId",
          "type": "uint256"
        },
        {
          "indexed": false,
          "internalType": "string",
          "name": "rollId",
          "type": "string"
        },
        {
          "indexed": false,
          "internalType": "uint256",
          "name": "rng",
          "type": "uint256"
        }
      ],
      "name": "RNGUpdated",
      "type": "event"
    },
    {
      "anonymous": false,
      "inputs": [
        {
          "indexed": false,
          "internalType": "address",
          "name": "sender",
          "type": "address"
        },
        {
          "indexed": false,
          "internalType": "uint256",
          "name": "tokenId",
          "type": "uint256"
        },
        {
          "indexed": false,
          "internalType": "string",
          "name": "rollId",
          "type": "string"
        }
      ],
      "name": "RevenueClaimed",
      "type": "event"
    },
    {
      "anonymous": false,
      "inputs": [
        {
          "indexed": false,
          "internalType": "address",
          "name": "sender",
          "type": "address"
        },
        {
          "indexed": false,
          "internalType": "uint256",
          "name": "tokenId",
          "type": "uint256"
        },
        {
          "indexed": false,
          "internalType": "string",
          "name": "rollId",
          "type": "string"
        }
      ],
      "name": "RollOwnershipTokenMinted",
      "type": "event"
    },
    {
      "anonymous": false,
      "inputs": [
        {
          "indexed": true,
          "internalType": "address",
          "name": "from",
          "type": "address"
        },
        {
          "indexed": true,
          "internalType": "address",
          "name": "to",
          "type": "address"
        },
        {
          "indexed": true,
          "internalType": "uint256",
          "name": "tokenId",
          "type": "uint256"
        }
      ],
      "name": "Transfer",
      "type": "event"
    },
    {
      "stateMutability": "payable",
      "type": "fallback"
    },
    {
      "inputs": [
        {
          "internalType": "address",
          "name": "to",
          "type": "address"
        },
        {
          "internalType": "uint256",
          "name": "tokenId",
          "type": "uint256"
        }
      ],
      "name": "approve",
      "outputs": [],
      "stateMutability": "nonpayable",
      "type": "function"
    },
    {
      "inputs": [
        {
          "internalType": "address",
          "name": "owner",
          "type": "address"
        }
      ],
      "name": "balanceOf",
      "outputs": [
        {
          "internalType": "uint256",
          "name": "",
          "type": "uint256"
        }
      ],
      "stateMutability": "view",
      "type": "function"
    },
    {
      "inputs": [
        {
          "internalType": "uint256",
          "name": "_tokenId",
          "type": "uint256"
        }
      ],
      "name": "claimPrize",
      "outputs": [],
      "stateMutability": "nonpayable",
      "type": "function"
    },
    {
      "inputs": [
        {
          "internalType": "uint256",
          "name": "_tokenId",
          "type": "uint256"
        }
      ],
      "name": "claimRevenue",
      "outputs": [],
      "stateMutability": "nonpayable",
      "type": "function"
    },
    {
      "inputs": [
        {
          "internalType": "uint256",
          "name": "tokenId",
          "type": "uint256"
        }
      ],
      "name": "getApproved",
      "outputs": [
        {
          "internalType": "address",
          "name": "",
          "type": "address"
        }
      ],
      "stateMutability": "view",
      "type": "function"
    },
    {
      "inputs": [
        {
          "internalType": "address",
          "name": "owner",
          "type": "address"
        },
        {
          "internalType": "address",
          "name": "operator",
          "type": "address"
        }
      ],
      "name": "isApprovedForAll",
      "outputs": [
        {
          "internalType": "bool",
          "name": "",
          "type": "bool"
        }
      ],
      "stateMutability": "view",
      "type": "function"
    },
    {
      "inputs": [
        {
          "internalType": "string",
          "name": "rollId",
          "type": "string"
        },
        {
          "internalType": "string",
          "name": "name",
          "type": "string"
        },
        {
          "internalType": "uint256",
          "name": "ticketSupply",
          "type": "uint256"
        },
        {
          "internalType": "address",
          "name": "currencyToken",
          "type": "address"
        },
        {
          "internalType": "uint256",
          "name": "ticketPrice",
          "type": "uint256"
        },
        {
          "internalType": "address",
          "name": "prizeAddress",
          "type": "address"
        },
        {
          "internalType": "uint256",
          "name": "prizeTokenId",
          "type": "uint256"
        },
        {
          "internalType": "uint64",
          "name": "deadline",
          "type": "uint64"
        }
      ],
      "name": "mint",
      "outputs": [],
      "stateMutability": "nonpayable",
      "type": "function"
    },
    {
      "inputs": [],
      "name": "name",
      "outputs": [
        {
          "internalType": "string",
          "name": "",
          "type": "string"
        }
      ],
      "stateMutability": "view",
      "type": "function"
    },
    {
      "inputs": [
        {
          "internalType": "uint256",
          "name": "",
          "type": "uint256"
        }
      ],
      "name": "nftHolderAttributes",
      "outputs": [
        {
          "internalType": "string",
          "name": "id",
          "type": "string"
        },
        {
          "internalType": "string",
          "name": "name",
          "type": "string"
        },
        {
          "internalType": "uint256",
          "name": "ticketSupply",
          "type": "uint256"
        },
        {
          "internalType": "address",
          "name": "currencyToken",
          "type": "address"
        },
        {
          "internalType": "uint256",
          "name": "ticketPrice",
          "type": "uint256"
        },
        {
          "internalType": "address",
          "name": "prizeAddress",
          "type": "address"
        },
        {
          "internalType": "uint256",
          "name": "prizeTokenId",
          "type": "uint256"
        },
        {
          "internalType": "uint256",
          "name": "rng",
          "type": "uint256"
        },
        {
          "internalType": "address",
          "name": "ticketContract",
          "type": "address"
        },
        {
          "internalType": "bool",
          "name": "prizeClaimed",
          "type": "bool"
        },
        {
          "internalType": "bool",
          "name": "revenueClaimed",
          "type": "bool"
        },
        {
          "internalType": "uint64",
          "name": "deadline",
          "type": "uint64"
        }
      ],
      "stateMutability": "view",
      "type": "function"
    },
    {
      "inputs": [
        {
          "internalType": "address",
          "name": "",
          "type": "address"
        }
      ],
      "name": "nftHolders",
      "outputs": [
        {
          "internalType": "uint256",
          "name": "",
          "type": "uint256"
        }
      ],
      "stateMutability": "view",
      "type": "function"
    },
    {
      "inputs": [
        {
          "internalType": "uint256",
          "name": "tokenId",
          "type": "uint256"
        }
      ],
      "name": "ownerOf",
      "outputs": [
        {
          "internalType": "address",
          "name": "",
          "type": "address"
        }
      ],
      "stateMutability": "view",
      "type": "function"
    },
    {
      "inputs": [
        {
          "internalType": "address",
          "name": "from",
          "type": "address"
        },
        {
          "internalType": "address",
          "name": "to",
          "type": "address"
        },
        {
          "internalType": "uint256",
          "name": "tokenId",
          "type": "uint256"
        }
      ],
      "name": "safeTransferFrom",
      "outputs": [],
      "stateMutability": "nonpayable",
      "type": "function"
    },
    {
      "inputs": [
        {
          "internalType": "address",
          "name": "from",
          "type": "address"
        },
        {
          "internalType": "address",
          "name": "to",
          "type": "address"
        },
        {
          "internalType": "uint256",
          "name": "tokenId",
          "type": "uint256"
        },
        {
          "internalType": "bytes",
          "name": "data",
          "type": "bytes"
        }
      ],
      "name": "safeTransferFrom",
      "outputs": [],
      "stateMutability": "nonpayable",
      "type": "function"
    },
    {
      "inputs": [
        {
          "internalType": "address",
          "name": "operator",
          "type": "address"
        },
        {
          "internalType": "bool",
          "name": "approved",
          "type": "bool"
        }
      ],
      "name": "setApprovalForAll",
      "outputs": [],
      "stateMutability": "nonpayable",
      "type": "function"
    },
    {
      "inputs": [
        {
          "internalType": "bytes4",
          "name": "interfaceId",
          "type": "bytes4"
        }
      ],
      "name": "supportsInterface",
      "outputs": [
        {
          "internalType": "bool",
          "name": "",
          "type": "bool"
        }
      ],
      "stateMutability": "view",
      "type": "function"
    },
    {
      "inputs": [],
      "name": "symbol",
      "outputs": [
        {
          "internalType": "string",
          "name": "",
          "type": "string"
        }
      ],
      "stateMutability": "view",
      "type": "function"
    },
    {
      "inputs": [
        {
          "internalType": "uint256",
          "name": "_tokenId",
          "type": "uint256"
        }
      ],
      "name": "tokenURI",
      "outputs": [
        {
          "internalType": "string",
          "name": "",
          "type": "string"
        }
      ],
      "stateMutability": "view",
      "type": "function"
    },
    {
      "inputs": [
        {
          "internalType": "address",
          "name": "from",
          "type": "address"
        },
        {
          "internalType": "address",
          "name": "to",
          "type": "address"
        },
        {
          "internalType": "uint256",
          "name": "tokenId",
          "type": "uint256"
        }
      ],
      "name": "transferFrom",
      "outputs": [],
      "stateMutability": "nonpayable",
      "type": "function"
    },
    {
      "inputs": [
        {
          "internalType": "uint256",
          "name": "_tokenId",
          "type": "uint256"
        },
        {
          "internalType": "uint256",
          "name": "rng",
          "type": "uint256"
        }
      ],
      "name": "updateRng",
      "outputs": [],
      "stateMutability": "nonpayable",
      "type": "function"
    },
    {
      "stateMutability": "payable",
      "type": "receive"
    }
  ],
  "bytecode": "0x60806040526040518060400160405280601f81526020017f526f6c6c204f776e65727368697020546f6b656e20436f6c6c656374696f6e008152506040518060400160405280600481526020017f524f4c5400000000000000000000000000000000000000000000000000000000815250816000908051906020019062000088929190620001ee565b508060019080519060200190620000a1929190620001ee565b505050620000ef6040518060400160405280601a81526020017f536d61727420436f6e747261637420696e697469616c697a65640000000000008152506200010c60201b62001ef81760201c565b620001066006620001af60201b62001f911760201c565b620003cb565b620001ac81604051602401620001239190620002df565b6040516020818303038152906040527f41304fac000000000000000000000000000000000000000000000000000000007bffffffffffffffffffffffffffffffffffffffffffffffffffffffff19166020820180517bffffffffffffffffffffffffffffffffffffffffffffffffffffffff8381831617835250505050620001c560201b60201c565b50565b6001816000016000828254019250508190555050565b60008151905060006a636f6e736f6c652e6c6f679050602083016000808483855afa5050505050565b828054620001fc9062000355565b90600052602060002090601f0160209004810192826200022057600085556200026c565b82601f106200023b57805160ff19168380011785556200026c565b828001600101855582156200026c579182015b828111156200026b5782518255916020019190600101906200024e565b5b5090506200027b91906200027f565b5090565b5b808211156200029a57600081600090555060010162000280565b5090565b6000620002ab8262000303565b620002b781856200030e565b9350620002c98185602086016200031f565b620002d481620003ba565b840191505092915050565b60006020820190508181036000830152620002fb81846200029e565b905092915050565b600081519050919050565b600082825260208201905092915050565b60005b838110156200033f57808201518184015260208101905062000322565b838111156200034f576000848401525b50505050565b600060028204905060018216806200036e57607f821691505b602082108114156200038557620003846200038b565b5b50919050565b7f4e487b7100000000000000000000000000000000000000000000000000000000600052602260045260246000fd5b6000601f19601f8301169050919050565b614d2c80620003db6000396000f3fe6080604052600436106101185760003560e01c80636352211e116100a0578063a22cb46511610064578063a22cb465146103e6578063b88d4fde1461040f578063c87b56dd14610438578063d709815414610475578063e985e9c51461049e5761011f565b80636352211e146102bc57806370a08231146102f95780637df124a11461033657806395d89b411461037357806398da4c951461039e5761011f565b80631cb536ed116100e75780631cb536ed146101ef57806323b872dd1461021857806338fba63c1461024157806342842e0e1461026a5780634e286478146102935761011f565b806301ffc9a71461012157806306fdde031461015e578063081812fc14610189578063095ea7b3146101c65761011f565b3661011f57005b005b34801561012d57600080fd5b50610148600480360381019061014391906133e6565b6104db565b6040516101559190613c3b565b60405180910390f35b34801561016a57600080fd5b506101736105bd565b6040516101809190613c56565b60405180910390f35b34801561019557600080fd5b506101b060048036038101906101ab919061351a565b61064f565b6040516101bd9190613b13565b60405180910390f35b3480156101d257600080fd5b506101ed60048036038101906101e891906133aa565b610695565b005b3480156101fb57600080fd5b506102166004803603810190610211919061351a565b6107ad565b005b34801561022457600080fd5b5061023f600480360381019061023a91906132a4565b610adb565b005b34801561024d57600080fd5b5061026860048036038101906102639190613438565b610b3b565b005b34801561027657600080fd5b50610291600480360381019061028c91906132a4565b610ebc565b005b34801561029f57600080fd5b506102ba60048036038101906102b59190613543565b610edc565b005b3480156102c857600080fd5b506102e360048036038101906102de919061351a565b611205565b6040516102f09190613b13565b60405180910390f35b34801561030557600080fd5b50610320600480360381019061031b919061323f565b6112b7565b60405161032d9190613ea0565b60405180910390f35b34801561034257600080fd5b5061035d6004803603810190610358919061323f565b61136f565b60405161036a9190613ea0565b60405180910390f35b34801561037f57600080fd5b50610388611387565b6040516103959190613c56565b60405180910390f35b3480156103aa57600080fd5b506103c560048036038101906103c0919061351a565b611419565b6040516103dd9c9b9a99989796959493929190613c78565b60405180910390f35b3480156103f257600080fd5b5061040d6004803603810190610408919061336e565b611617565b005b34801561041b57600080fd5b50610436600480360381019061043191906132f3565b61162d565b005b34801561044457600080fd5b5061045f600480360381019061045a919061351a565b61168f565b60405161046c9190613c56565b60405180910390f35b34801561048157600080fd5b5061049c6004803603810190610497919061351a565b611b36565b005b3480156104aa57600080fd5b506104c560048036038101906104c09190613268565b611e64565b6040516104d29190613c3b565b60405180910390f35b60007f80ac58cd000000000000000000000000000000000000000000000000000000007bffffffffffffffffffffffffffffffffffffffffffffffffffffffff1916827bffffffffffffffffffffffffffffffffffffffffffffffffffffffff191614806105a657507f5b5e139f000000000000000000000000000000000000000000000000000000007bffffffffffffffffffffffffffffffffffffffffffffffffffffffff1916827bffffffffffffffffffffffffffffffffffffffffffffffffffffffff1916145b806105b657506105b582611fa7565b5b9050919050565b6060600080546105cc906143b9565b80601f01602080910402602001604051908101604052809291908181526020018280546105f8906143b9565b80156106455780601f1061061a57610100808354040283529160200191610645565b820191906000526020600020905b81548152906001019060200180831161062857829003601f168201915b5050505050905090565b600061065a82612011565b6004600083815260200190815260200160002060009054906101000a900473ffffffffffffffffffffffffffffffffffffffff169050919050565b60006106a082611205565b90508073ffffffffffffffffffffffffffffffffffffffff168373ffffffffffffffffffffffffffffffffffffffff161415610711576040517f08c379a000000000000000000000000000000000000000000000000000000000815260040161070890613e60565b60405180910390fd5b8073ffffffffffffffffffffffffffffffffffffffff1661073061205c565b73ffffffffffffffffffffffffffffffffffffffff16148061075f575061075e8161075961205c565b611e64565b5b61079e576040517f08c379a000000000000000000000000000000000000000000000000000000000815260040161079590613e00565b60405180910390fd5b6107a88383612064565b505050565b600060076000838152602001908152602001600020604051806101800160405290816000820180546107de906143b9565b80601f016020809104026020016040519081016040528092919081815260200182805461080a906143b9565b80156108575780601f1061082c57610100808354040283529160200191610857565b820191906000526020600020905b81548152906001019060200180831161083a57829003601f168201915b50505050508152602001600182018054610870906143b9565b80601f016020809104026020016040519081016040528092919081815260200182805461089c906143b9565b80156108e95780601f106108be576101008083540402835291602001916108e9565b820191906000526020600020905b8154815290600101906020018083116108cc57829003601f168201915b50505050508152602001600282015481526020016003820160009054906101000a900473ffffffffffffffffffffffffffffffffffffffff1673ffffffffffffffffffffffffffffffffffffffff1673ffffffffffffffffffffffffffffffffffffffff168152602001600482015481526020016005820160009054906101000a900473ffffffffffffffffffffffffffffffffffffffff1673ffffffffffffffffffffffffffffffffffffffff1673ffffffffffffffffffffffffffffffffffffffff16815260200160068201548152602001600782015481526020016008820160009054906101000a900473ffffffffffffffffffffffffffffffffffffffff1673ffffffffffffffffffffffffffffffffffffffff1673ffffffffffffffffffffffffffffffffffffffff1681526020016008820160149054906101000a900460ff161515151581526020016008820160159054906101000a900460ff161515151581526020016008820160169054906101000a900467ffffffffffffffff1667ffffffffffffffff1667ffffffffffffffff168152505090506001816101400190151590811515815250507fb287f28941896c4b4c8754bed7e9df1e320fd1111d7ea2a91b990510ba2855ee33838360000151604051610acf93929190613bb1565b60405180910390a15050565b610aec610ae661205c565b8261211d565b610b2b576040517f08c379a0000000000000000000000000000000000000000000000000000000008152600401610b2290613e80565b60405180910390fd5b610b368383836121b2565b505050565b6000610b476006612419565b90508373ffffffffffffffffffffffffffffffffffffffff166323b872dd3330866040518463ffffffff1660e01b8152600401610b8693929190613b2e565b600060405180830381600087803b158015610ba057600080fd5b505af1158015610bb4573d6000803e3d6000fd5b50505050610bc23382612427565b6040518061018001604052808a81526020018981526020018881526020018773ffffffffffffffffffffffffffffffffffffffff1681526020018681526020018573ffffffffffffffffffffffffffffffffffffffff16815260200184815260200160008152602001600073ffffffffffffffffffffffffffffffffffffffff1681526020016000151581526020016000151581526020018367ffffffffffffffff16815250600760008381526020019081526020016000206000820151816000019080519060200190610c9792919061304e565b506020820151816001019080519060200190610cb492919061304e565b506040820151816002015560608201518160030160006101000a81548173ffffffffffffffffffffffffffffffffffffffff021916908373ffffffffffffffffffffffffffffffffffffffff1602179055506080820151816004015560a08201518160050160006101000a81548173ffffffffffffffffffffffffffffffffffffffff021916908373ffffffffffffffffffffffffffffffffffffffff16021790555060c0820151816006015560e082015181600701556101008201518160080160006101000a81548173ffffffffffffffffffffffffffffffffffffffff021916908373ffffffffffffffffffffffffffffffffffffffff1602179055506101208201518160080160146101000a81548160ff0219169083151502179055506101408201518160080160156101000a81548160ff0219169083151502179055506101608201518160080160166101000a81548167ffffffffffffffff021916908367ffffffffffffffff16021790555090505080600860003373ffffffffffffffffffffffffffffffffffffffff1673ffffffffffffffffffffffffffffffffffffffff16815260200190815260200160002081905550610e766006611f91565b7f1f9ce4c47dc25ca9b71fa77073983ed82b2fbd98d0f1f2c73cabda6df502841933828b604051610ea993929190613bb1565b60405180910390a1505050505050505050565b610ed78383836040518060200160405280600081525061162d565b505050565b60006007600084815260200190815260200160002060405180610180016040529081600082018054610f0d906143b9565b80601f0160208091040260200160405190810160405280929190818152602001828054610f39906143b9565b8015610f865780601f10610f5b57610100808354040283529160200191610f86565b820191906000526020600020905b815481529060010190602001808311610f6957829003601f168201915b50505050508152602001600182018054610f9f906143b9565b80601f0160208091040260200160405190810160405280929190818152602001828054610fcb906143b9565b80156110185780601f10610fed57610100808354040283529160200191611018565b820191906000526020600020905b815481529060010190602001808311610ffb57829003601f168201915b50505050508152602001600282015481526020016003820160009054906101000a900473ffffffffffffffffffffffffffffffffffffffff1673ffffffffffffffffffffffffffffffffffffffff1673ffffffffffffffffffffffffffffffffffffffff168152602001600482015481526020016005820160009054906101000a900473ffffffffffffffffffffffffffffffffffffffff1673ffffffffffffffffffffffffffffffffffffffff1673ffffffffffffffffffffffffffffffffffffffff16815260200160068201548152602001600782015481526020016008820160009054906101000a900473ffffffffffffffffffffffffffffffffffffffff1673ffffffffffffffffffffffffffffffffffffffff1673ffffffffffffffffffffffffffffffffffffffff1681526020016008820160149054906101000a900460ff161515151581526020016008820160159054906101000a900460ff161515151581526020016008820160169054906101000a900467ffffffffffffffff1667ffffffffffffffff1667ffffffffffffffff16815250509050818160e00181815250507f9c91e8c4cba0a04ea1d60b51925a45f1d936fb9ba663028053542ec7b8ad168933848360000151856040516111f89493929190613bef565b60405180910390a1505050565b6000806002600084815260200190815260200160002060009054906101000a900473ffffffffffffffffffffffffffffffffffffffff169050600073ffffffffffffffffffffffffffffffffffffffff168173ffffffffffffffffffffffffffffffffffffffff1614156112ae576040517f08c379a00000000000000000000000000000000000000000000000000000000081526004016112a590613e40565b60405180910390fd5b80915050919050565b60008073ffffffffffffffffffffffffffffffffffffffff168273ffffffffffffffffffffffffffffffffffffffff161415611328576040517f08c379a000000000000000000000000000000000000000000000000000000000815260040161131f90613de0565b60405180910390fd5b600360008373ffffffffffffffffffffffffffffffffffffffff1673ffffffffffffffffffffffffffffffffffffffff168152602001908152602001600020549050919050565b60086020528060005260406000206000915090505481565b606060018054611396906143b9565b80601f01602080910402602001604051908101604052809291908181526020018280546113c2906143b9565b801561140f5780601f106113e45761010080835404028352916020019161140f565b820191906000526020600020905b8154815290600101906020018083116113f257829003601f168201915b5050505050905090565b600760205280600052604060002060009150905080600001805461143c906143b9565b80601f0160208091040260200160405190810160405280929190818152602001828054611468906143b9565b80156114b55780601f1061148a576101008083540402835291602001916114b5565b820191906000526020600020905b81548152906001019060200180831161149857829003601f168201915b5050505050908060010180546114ca906143b9565b80601f01602080910402602001604051908101604052809291908181526020018280546114f6906143b9565b80156115435780601f1061151857610100808354040283529160200191611543565b820191906000526020600020905b81548152906001019060200180831161152657829003601f168201915b5050505050908060020154908060030160009054906101000a900473ffffffffffffffffffffffffffffffffffffffff16908060040154908060050160009054906101000a900473ffffffffffffffffffffffffffffffffffffffff16908060060154908060070154908060080160009054906101000a900473ffffffffffffffffffffffffffffffffffffffff16908060080160149054906101000a900460ff16908060080160159054906101000a900460ff16908060080160169054906101000a900467ffffffffffffffff1690508c565b61162961162261205c565b8383612445565b5050565b61163e61163861205c565b8361211d565b61167d576040517f08c379a000000000000000000000000000000000000000000000000000000000815260040161167490613e80565b60405180910390fd5b611689848484846125b2565b50505050565b6060600060076000848152602001908152602001600020604051806101800160405290816000820180546116c2906143b9565b80601f01602080910402602001604051908101604052809291908181526020018280546116ee906143b9565b801561173b5780601f106117105761010080835404028352916020019161173b565b820191906000526020600020905b81548152906001019060200180831161171e57829003601f168201915b50505050508152602001600182018054611754906143b9565b80601f0160208091040260200160405190810160405280929190818152602001828054611780906143b9565b80156117cd5780601f106117a2576101008083540402835291602001916117cd565b820191906000526020600020905b8154815290600101906020018083116117b057829003601f168201915b50505050508152602001600282015481526020016003820160009054906101000a900473ffffffffffffffffffffffffffffffffffffffff1673ffffffffffffffffffffffffffffffffffffffff1673ffffffffffffffffffffffffffffffffffffffff168152602001600482015481526020016005820160009054906101000a900473ffffffffffffffffffffffffffffffffffffffff1673ffffffffffffffffffffffffffffffffffffffff1673ffffffffffffffffffffffffffffffffffffffff16815260200160068201548152602001600782015481526020016008820160009054906101000a900473ffffffffffffffffffffffffffffffffffffffff1673ffffffffffffffffffffffffffffffffffffffff1673ffffffffffffffffffffffffffffffffffffffff1681526020016008820160149054906101000a900460ff161515151581526020016008820160159054906101000a900460ff161515151581526020016008820160169054906101000a900467ffffffffffffffff1667ffffffffffffffff1667ffffffffffffffff168152505090506000611b05826000015183602001518461012001516119be576040518060400160405280600181526020017f30000000000000000000000000000000000000000000000000000000000000008152506119f5565b6040518060400160405280600181526020017f31000000000000000000000000000000000000000000000000000000000000008152505b856101400151611a3a576040518060400160405280600181526020017f3000000000000000000000000000000000000000000000000000000000000000815250611a71565b6040518060400160405280600181526020017f31000000000000000000000000000000000000000000000000000000000000008152505b611a7e876040015161260e565b611a8b8860a001516127bb565b611a9889606001516127bb565b611aa58a6080015161260e565b611ab28b60c0015161260e565b611abf8c60e0015161260e565b611ad78d610160015167ffffffffffffffff1661260e565b604051602001611af19b9a999897969594939291906139c9565b6040516020818303038152906040526129f0565b9050600081604051602001611b1a9190613af1565b6040516020818303038152906040529050809350505050919050565b60006007600083815260200190815260200160002060405180610180016040529081600082018054611b67906143b9565b80601f0160208091040260200160405190810160405280929190818152602001828054611b93906143b9565b8015611be05780601f10611bb557610100808354040283529160200191611be0565b820191906000526020600020905b815481529060010190602001808311611bc357829003601f168201915b50505050508152602001600182018054611bf9906143b9565b80601f0160208091040260200160405190810160405280929190818152602001828054611c25906143b9565b8015611c725780601f10611c4757610100808354040283529160200191611c72565b820191906000526020600020905b815481529060010190602001808311611c5557829003601f168201915b50505050508152602001600282015481526020016003820160009054906101000a900473ffffffffffffffffffffffffffffffffffffffff1673ffffffffffffffffffffffffffffffffffffffff1673ffffffffffffffffffffffffffffffffffffffff168152602001600482015481526020016005820160009054906101000a900473ffffffffffffffffffffffffffffffffffffffff1673ffffffffffffffffffffffffffffffffffffffff1673ffffffffffffffffffffffffffffffffffffffff16815260200160068201548152602001600782015481526020016008820160009054906101000a900473ffffffffffffffffffffffffffffffffffffffff1673ffffffffffffffffffffffffffffffffffffffff1673ffffffffffffffffffffffffffffffffffffffff1681526020016008820160149054906101000a900460ff161515151581526020016008820160159054906101000a900460ff161515151581526020016008820160169054906101000a900467ffffffffffffffff1667ffffffffffffffff1667ffffffffffffffff168152505090506001816101200190151590811515815250507fb1b73cb54e3da91f882f6980f9d957fd70b3c61157b5ee839cc1ea4ca861c1c833838360000151604051611e5893929190613bb1565b60405180910390a15050565b6000600560008473ffffffffffffffffffffffffffffffffffffffff1673ffffffffffffffffffffffffffffffffffffffff16815260200190815260200160002060008373ffffffffffffffffffffffffffffffffffffffff1673ffffffffffffffffffffffffffffffffffffffff16815260200190815260200160002060009054906101000a900460ff16905092915050565b611f8e81604051602401611f0c9190613c56565b6040516020818303038152906040527f41304fac000000000000000000000000000000000000000000000000000000007bffffffffffffffffffffffffffffffffffffffffffffffffffffffff19166020820180517bffffffffffffffffffffffffffffffffffffffffffffffffffffffff8381831617835250505050612b7a565b50565b6001816000016000828254019250508190555050565b60007f01ffc9a7000000000000000000000000000000000000000000000000000000007bffffffffffffffffffffffffffffffffffffffffffffffffffffffff1916827bffffffffffffffffffffffffffffffffffffffffffffffffffffffff1916149050919050565b61201a81612ba3565b612059576040517f08c379a000000000000000000000000000000000000000000000000000000000815260040161205090613e40565b60405180910390fd5b50565b600033905090565b816004600083815260200190815260200160002060006101000a81548173ffffffffffffffffffffffffffffffffffffffff021916908373ffffffffffffffffffffffffffffffffffffffff160217905550808273ffffffffffffffffffffffffffffffffffffffff166120d783611205565b73ffffffffffffffffffffffffffffffffffffffff167f8c5be1e5ebec7d5bd14f71427d1e84f3dd0314c0f7b2291e5b200ac8c7c3b92560405160405180910390a45050565b60008061212983611205565b90508073ffffffffffffffffffffffffffffffffffffffff168473ffffffffffffffffffffffffffffffffffffffff16148061216b575061216a8185611e64565b5b806121a957508373ffffffffffffffffffffffffffffffffffffffff166121918461064f565b73ffffffffffffffffffffffffffffffffffffffff16145b91505092915050565b8273ffffffffffffffffffffffffffffffffffffffff166121d282611205565b73ffffffffffffffffffffffffffffffffffffffff1614612228576040517f08c379a000000000000000000000000000000000000000000000000000000000815260040161221f90613d60565b60405180910390fd5b600073ffffffffffffffffffffffffffffffffffffffff168273ffffffffffffffffffffffffffffffffffffffff161415612298576040517f08c379a000000000000000000000000000000000000000000000000000000000815260040161228f90613da0565b60405180910390fd5b6122a3838383612c0f565b6122ae600082612064565b6001600360008573ffffffffffffffffffffffffffffffffffffffff1673ffffffffffffffffffffffffffffffffffffffff16815260200190815260200160002060008282546122fe919061427a565b925050819055506001600360008473ffffffffffffffffffffffffffffffffffffffff1673ffffffffffffffffffffffffffffffffffffffff16815260200190815260200160002060008282546123559190613f85565b92505081905550816002600083815260200190815260200160002060006101000a81548173ffffffffffffffffffffffffffffffffffffffff021916908373ffffffffffffffffffffffffffffffffffffffff160217905550808273ffffffffffffffffffffffffffffffffffffffff168473ffffffffffffffffffffffffffffffffffffffff167fddf252ad1be2c89b69c2b068fc378daa952ba7f163c4a11628f55a4df523b3ef60405160405180910390a4612414838383612c14565b505050565b600081600001549050919050565b612441828260405180602001604052806000815250612c19565b5050565b8173ffffffffffffffffffffffffffffffffffffffff168373ffffffffffffffffffffffffffffffffffffffff1614156124b4576040517f08c379a00000000000000000000000000000000000000000000000000000000081526004016124ab90613dc0565b60405180910390fd5b80600560008573ffffffffffffffffffffffffffffffffffffffff1673ffffffffffffffffffffffffffffffffffffffff16815260200190815260200160002060008473ffffffffffffffffffffffffffffffffffffffff1673ffffffffffffffffffffffffffffffffffffffff16815260200190815260200160002060006101000a81548160ff0219169083151502179055508173ffffffffffffffffffffffffffffffffffffffff168373ffffffffffffffffffffffffffffffffffffffff167f17307eab39ab6107e8899845ad3d59bd9653f200f220920489ca2b5937696c31836040516125a59190613c3b565b60405180910390a3505050565b6125bd8484846121b2565b6125c984848484612c74565b612608576040517f08c379a00000000000000000000000000000000000000000000000000000000081526004016125ff90613d40565b60405180910390fd5b50505050565b60606000821415612656576040518060400160405280600181526020017f300000000000000000000000000000000000000000000000000000000000000081525090506127b6565b600082905060005b600082146126885780806126719061441c565b915050600a826126819190614012565b915061265e565b60008167ffffffffffffffff8111156126ca577f4e487b7100000000000000000000000000000000000000000000000000000000600052604160045260246000fd5b6040519080825280601f01601f1916602001820160405280156126fc5781602001600182028036833780820191505090505b5090505b600085146127af57600182612715919061427a565b9150600a856127249190614465565b60306127309190613f85565b60f81b81838151811061276c577f4e487b7100000000000000000000000000000000000000000000000000000000600052603260045260246000fd5b60200101907effffffffffffffffffffffffffffffffffffffffffffffffffffffffffffff1916908160001a905350600a856127a89190614012565b9450612700565b8093505050505b919050565b60606000602867ffffffffffffffff811115612800577f4e487b7100000000000000000000000000000000000000000000000000000000600052604160045260246000fd5b6040519080825280601f01601f1916602001820160405280156128325781602001600182028036833780820191505090505b50905060005b60148110156129e6576000816013612850919061427a565b600861285c91906141e5565b600261286891906140c7565b8573ffffffffffffffffffffffffffffffffffffffff166128899190614012565b60f81b9050600060108260f81c6128a09190614043565b60f81b905060008160f81c60106128b7919061423f565b8360f81c6128c591906142ae565b60f81b90506128d382612e0b565b858560026128e191906141e5565b81518110612918577f4e487b7100000000000000000000000000000000000000000000000000000000600052603260045260246000fd5b60200101907effffffffffffffffffffffffffffffffffffffffffffffffffffffffffffff1916908160001a90535061295081612e0b565b85600186600261296091906141e5565b61296a9190613f85565b815181106129a1577f4e487b7100000000000000000000000000000000000000000000000000000000600052603260045260246000fd5b60200101907effffffffffffffffffffffffffffffffffffffffffffffffffffffffffffff1916908160001a90535050505080806129de9061441c565b915050612838565b5080915050919050565b6060600082511415612a1357604051806020016040528060008152509050612b75565b6000604051806060016040528060408152602001614cb76040913990506000600360028551612a429190613f85565b612a4c9190614012565b6004612a5891906141e5565b67ffffffffffffffff811115612a97577f4e487b7100000000000000000000000000000000000000000000000000000000600052604160045260246000fd5b6040519080825280601f01601f191660200182016040528015612ac95781602001600182028036833780820191505090505b509050600182016020820185865187015b80821015612b35576003820191508151603f8160121c168501518453600184019350603f81600c1c168501518453600184019350603f8160061c168501518453600184019350603f8116850151845360018401935050612ada565b5050600386510660018114612b515760028114612b6457612b6c565b603d6001830353603d6002830353612b6c565b603d60018303535b50505080925050505b919050565b60008151905060006a636f6e736f6c652e6c6f679050602083016000808483855afa5050505050565b60008073ffffffffffffffffffffffffffffffffffffffff166002600084815260200190815260200160002060009054906101000a900473ffffffffffffffffffffffffffffffffffffffff1673ffffffffffffffffffffffffffffffffffffffff1614159050919050565b505050565b505050565b612c238383612e51565b612c306000848484612c74565b612c6f576040517f08c379a0000000000000000000000000000000000000000000000000000000008152600401612c6690613d40565b60405180910390fd5b505050565b6000612c958473ffffffffffffffffffffffffffffffffffffffff1661302b565b15612dfe578373ffffffffffffffffffffffffffffffffffffffff1663150b7a02612cbe61205c565b8786866040518563ffffffff1660e01b8152600401612ce09493929190613b65565b602060405180830381600087803b158015612cfa57600080fd5b505af1925050508015612d2b57506040513d601f19601f82011682018060405250810190612d28919061340f565b60015b612dae573d8060008114612d5b576040519150601f19603f3d011682016040523d82523d6000602084013e612d60565b606091505b50600081511415612da6576040517f08c379a0000000000000000000000000000000000000000000000000000000008152600401612d9d90613d40565b60405180910390fd5b805181602001fd5b63150b7a0260e01b7bffffffffffffffffffffffffffffffffffffffffffffffffffffffff1916817bffffffffffffffffffffffffffffffffffffffffffffffffffffffff191614915050612e03565b600190505b949350505050565b6000600a8260f81c60ff161015612e365760308260f81c612e2c9190613fdb565b60f81b9050612e4c565b60578260f81c612e469190613fdb565b60f81b90505b919050565b600073ffffffffffffffffffffffffffffffffffffffff168273ffffffffffffffffffffffffffffffffffffffff161415612ec1576040517f08c379a0000000000000000000000000000000000000000000000000000000008152600401612eb890613e20565b60405180910390fd5b612eca81612ba3565b15612f0a576040517f08c379a0000000000000000000000000000000000000000000000000000000008152600401612f0190613d80565b60405180910390fd5b612f1660008383612c0f565b6001600360008473ffffffffffffffffffffffffffffffffffffffff1673ffffffffffffffffffffffffffffffffffffffff1681526020019081526020016000206000828254612f669190613f85565b92505081905550816002600083815260200190815260200160002060006101000a81548173ffffffffffffffffffffffffffffffffffffffff021916908373ffffffffffffffffffffffffffffffffffffffff160217905550808273ffffffffffffffffffffffffffffffffffffffff16600073ffffffffffffffffffffffffffffffffffffffff167fddf252ad1be2c89b69c2b068fc378daa952ba7f163c4a11628f55a4df523b3ef60405160405180910390a461302760008383612c14565b5050565b6000808273ffffffffffffffffffffffffffffffffffffffff163b119050919050565b82805461305a906143b9565b90600052602060002090601f01602090048101928261307c57600085556130c3565b82601f1061309557805160ff19168380011785556130c3565b828001600101855582156130c3579182015b828111156130c25782518255916020019190600101906130a7565b5b5090506130d091906130d4565b5090565b5b808211156130ed5760008160009055506001016130d5565b5090565b60006131046130ff84613ee0565b613ebb565b90508281526020810184848401111561311c57600080fd5b613127848285614377565b509392505050565b600061314261313d84613f11565b613ebb565b90508281526020810184848401111561315a57600080fd5b613165848285614377565b509392505050565b60008135905061317c81614c43565b92915050565b60008135905061319181614c5a565b92915050565b6000813590506131a681614c71565b92915050565b6000815190506131bb81614c71565b92915050565b600082601f8301126131d257600080fd5b81356131e28482602086016130f1565b91505092915050565b600082601f8301126131fc57600080fd5b813561320c84826020860161312f565b91505092915050565b60008135905061322481614c88565b92915050565b60008135905061323981614c9f565b92915050565b60006020828403121561325157600080fd5b600061325f8482850161316d565b91505092915050565b6000806040838503121561327b57600080fd5b60006132898582860161316d565b925050602061329a8582860161316d565b9150509250929050565b6000806000606084860312156132b957600080fd5b60006132c78682870161316d565b93505060206132d88682870161316d565b92505060406132e986828701613215565b9150509250925092565b6000806000806080858703121561330957600080fd5b60006133178782880161316d565b94505060206133288782880161316d565b935050604061333987828801613215565b925050606085013567ffffffffffffffff81111561335657600080fd5b613362878288016131c1565b91505092959194509250565b6000806040838503121561338157600080fd5b600061338f8582860161316d565b92505060206133a085828601613182565b9150509250929050565b600080604083850312156133bd57600080fd5b60006133cb8582860161316d565b92505060206133dc85828601613215565b9150509250929050565b6000602082840312156133f857600080fd5b600061340684828501613197565b91505092915050565b60006020828403121561342157600080fd5b600061342f848285016131ac565b91505092915050565b600080600080600080600080610100898b03121561345557600080fd5b600089013567ffffffffffffffff81111561346f57600080fd5b61347b8b828c016131eb565b985050602089013567ffffffffffffffff81111561349857600080fd5b6134a48b828c016131eb565b97505060406134b58b828c01613215565b96505060606134c68b828c0161316d565b95505060806134d78b828c01613215565b94505060a06134e88b828c0161316d565b93505060c06134f98b828c01613215565b92505060e061350a8b828c0161322a565b9150509295985092959890939650565b60006020828403121561352c57600080fd5b600061353a84828501613215565b91505092915050565b6000806040838503121561355657600080fd5b600061356485828601613215565b925050602061357585828601613215565b9150509250929050565b613588816142e2565b82525050565b613597816142f4565b82525050565b60006135a882613f42565b6135b28185613f58565b93506135c2818560208601614386565b6135cb81614552565b840191505092915050565b60006135e182613f4d565b6135eb8185613f69565b93506135fb818560208601614386565b61360481614552565b840191505092915050565b600061361a82613f4d565b6136248185613f7a565b9350613634818560208601614386565b80840191505092915050565b600061364d601383613f7a565b915061365882614570565b601382019050919050565b6000613670602383613f7a565b915061367b82614599565b602382019050919050565b6000613693603283613f69565b915061369e826145e8565b604082019050919050565b60006136b6602583613f69565b91506136c182614637565b604082019050919050565b60006136d9601c83613f69565b91506136e482614686565b602082019050919050565b60006136fc604483613f7a565b9150613707826146af565b604482019050919050565b600061371f602c83613f7a565b915061372a82614724565b602c82019050919050565b6000613742602483613f69565b915061374d82614773565b604082019050919050565b6000613765601983613f69565b9150613770826147c2565b602082019050919050565b6000613788602e83613f7a565b9150613793826147eb565b602e82019050919050565b60006137ab602983613f69565b91506137b68261483a565b604082019050919050565b60006137ce603083613f7a565b91506137d982614889565b603082019050919050565b60006137f1602f83613f7a565b91506137fc826148d8565b602f82019050919050565b6000613814603e83613f69565b915061381f82614927565b604082019050919050565b6000613837602083613f69565b915061384282614976565b602082019050919050565b600061385a602d83613f7a565b91506138658261499f565b602d82019050919050565b600061387d602883613f7a565b9150613888826149ee565b602882019050919050565b60006138a0602983613f7a565b91506138ab82614a3d565b602982019050919050565b60006138c3601883613f69565b91506138ce82614a8c565b602082019050919050565b60006138e6602183613f69565b91506138f182614ab5565b604082019050919050565b6000613909601d83613f7a565b915061391482614b04565b601d82019050919050565b600061392c602e83613f69565b915061393782614b2d565b604082019050919050565b600061394f603883613f7a565b915061395a82614b7c565b603882019050919050565b6000613972600483613f7a565b915061397d82614bcb565b600482019050919050565b6000613995602d83613f7a565b91506139a082614bf4565b602d82019050919050565b6139b48161434c565b82525050565b6139c381614356565b82525050565b60006139d482613893565b91506139e0828e61360f565b91506139eb82613640565b91506139f7828d61360f565b9150613a02826136ef565b9150613a0d82613942565b9150613a19828c61360f565b9150613a24826137e4565b9150613a30828b61360f565b9150613a3b8261384d565b9150613a47828a61360f565b9150613a5282613988565b9150613a5e828961360f565b9150613a69826137c1565b9150613a75828861360f565b9150613a8082613712565b9150613a8c828761360f565b9150613a978261377b565b9150613aa3828661360f565b9150613aae82613663565b9150613aba828561360f565b9150613ac582613870565b9150613ad1828461360f565b9150613adc82613965565b91508190509c9b505050505050505050505050565b6000613afc826138fc565b9150613b08828461360f565b915081905092915050565b6000602082019050613b28600083018461357f565b92915050565b6000606082019050613b43600083018661357f565b613b50602083018561357f565b613b5d60408301846139ab565b949350505050565b6000608082019050613b7a600083018761357f565b613b87602083018661357f565b613b9460408301856139ab565b8181036060830152613ba6818461359d565b905095945050505050565b6000606082019050613bc6600083018661357f565b613bd360208301856139ab565b8181036040830152613be581846135d6565b9050949350505050565b6000608082019050613c04600083018761357f565b613c1160208301866139ab565b8181036040830152613c2381856135d6565b9050613c3260608301846139ab565b95945050505050565b6000602082019050613c50600083018461358e565b92915050565b60006020820190508181036000830152613c7081846135d6565b905092915050565b6000610180820190508181036000830152613c93818f6135d6565b90508181036020830152613ca7818e6135d6565b9050613cb6604083018d6139ab565b613cc3606083018c61357f565b613cd0608083018b6139ab565b613cdd60a083018a61357f565b613cea60c08301896139ab565b613cf760e08301886139ab565b613d0561010083018761357f565b613d1361012083018661358e565b613d2161014083018561358e565b613d2f6101608301846139ba565b9d9c50505050505050505050505050565b60006020820190508181036000830152613d5981613686565b9050919050565b60006020820190508181036000830152613d79816136a9565b9050919050565b60006020820190508181036000830152613d99816136cc565b9050919050565b60006020820190508181036000830152613db981613735565b9050919050565b60006020820190508181036000830152613dd981613758565b9050919050565b60006020820190508181036000830152613df98161379e565b9050919050565b60006020820190508181036000830152613e1981613807565b9050919050565b60006020820190508181036000830152613e398161382a565b9050919050565b60006020820190508181036000830152613e59816138b6565b9050919050565b60006020820190508181036000830152613e79816138d9565b9050919050565b60006020820190508181036000830152613e998161391f565b9050919050565b6000602082019050613eb560008301846139ab565b92915050565b6000613ec5613ed6565b9050613ed182826143eb565b919050565b6000604051905090565b600067ffffffffffffffff821115613efb57613efa614523565b5b613f0482614552565b9050602081019050919050565b600067ffffffffffffffff821115613f2c57613f2b614523565b5b613f3582614552565b9050602081019050919050565b600081519050919050565b600081519050919050565b600082825260208201905092915050565b600082825260208201905092915050565b600081905092915050565b6000613f908261434c565b9150613f9b8361434c565b9250827fffffffffffffffffffffffffffffffffffffffffffffffffffffffffffffffff03821115613fd057613fcf614496565b5b828201905092915050565b6000613fe68261436a565b9150613ff18361436a565b92508260ff0382111561400757614006614496565b5b828201905092915050565b600061401d8261434c565b91506140288361434c565b925082614038576140376144c5565b5b828204905092915050565b600061404e8261436a565b91506140598361436a565b925082614069576140686144c5565b5b828204905092915050565b6000808291508390505b60018511156140be5780860481111561409a57614099614496565b5b60018516156140a95780820291505b80810290506140b785614563565b945061407e565b94509492505050565b60006140d28261434c565b91506140dd8361434c565b925061410a7fffffffffffffffffffffffffffffffffffffffffffffffffffffffffffffffff8484614112565b905092915050565b60008261412257600190506141de565b8161413057600090506141de565b816001811461414657600281146141505761417f565b60019150506141de565b60ff84111561416257614161614496565b5b8360020a91508482111561417957614178614496565b5b506141de565b5060208310610133831016604e8410600b84101617156141b45782820a9050838111156141af576141ae614496565b5b6141de565b6141c18484846001614074565b925090508184048111156141d8576141d7614496565b5b81810290505b9392505050565b60006141f08261434c565b91506141fb8361434c565b9250817fffffffffffffffffffffffffffffffffffffffffffffffffffffffffffffffff048311821515161561423457614233614496565b5b828202905092915050565b600061424a8261436a565b91506142558361436a565b92508160ff048311821515161561426f5761426e614496565b5b828202905092915050565b60006142858261434c565b91506142908361434c565b9250828210156142a3576142a2614496565b5b828203905092915050565b60006142b98261436a565b91506142c48361436a565b9250828210156142d7576142d6614496565b5b828203905092915050565b60006142ed8261432c565b9050919050565b60008115159050919050565b60007fffffffff0000000000000000000000000000000000000000000000000000000082169050919050565b600073ffffffffffffffffffffffffffffffffffffffff82169050919050565b6000819050919050565b600067ffffffffffffffff82169050919050565b600060ff82169050919050565b82818337600083830152505050565b60005b838110156143a4578082015181840152602081019050614389565b838111156143b3576000848401525b50505050565b600060028204905060018216806143d157607f821691505b602082108114156143e5576143e46144f4565b5b50919050565b6143f482614552565b810181811067ffffffffffffffff8211171561441357614412614523565b5b80604052505050565b60006144278261434c565b91507fffffffffffffffffffffffffffffffffffffffffffffffffffffffffffffffff82141561445a57614459614496565b5b600182019050919050565b60006144708261434c565b915061447b8361434c565b92508261448b5761448a6144c5565b5b828206905092915050565b7f4e487b7100000000000000000000000000000000000000000000000000000000600052601160045260246000fd5b7f4e487b7100000000000000000000000000000000000000000000000000000000600052601260045260246000fd5b7f4e487b7100000000000000000000000000000000000000000000000000000000600052602260045260246000fd5b7f4e487b7100000000000000000000000000000000000000000000000000000000600052604160045260246000fd5b6000601f19601f8301169050919050565b60008160011c9050919050565b7f222c20226465736372697074696f6e223a202200000000000000000000000000600082015250565b7f227d2c207b22617474726962757465223a2022524e47222c202276616c75652260008201527f3a20220000000000000000000000000000000000000000000000000000000000602082015250565b7f4552433732313a207472616e7366657220746f206e6f6e20455243373231526560008201527f63656976657220696d706c656d656e7465720000000000000000000000000000602082015250565b7f4552433732313a207472616e736665722066726f6d20696e636f72726563742060008201527f6f776e6572000000000000000000000000000000000000000000000000000000602082015250565b7f4552433732313a20746f6b656e20616c7265616479206d696e74656400000000600082015250565b7f222c2022696d616765223a2022697066733a2f2f516d6233446846443474757660008201527f7a4c55676d4578444d44744c62524d3758774b6137593777353661523845513660208201527f637a222c00000000000000000000000000000000000000000000000000000000604082015250565b7f227d2c207b22617474726962757465223a20225469636b65742050726963652260008201527f2c202276616c7565223a20220000000000000000000000000000000000000000602082015250565b7f4552433732313a207472616e7366657220746f20746865207a65726f2061646460008201527f7265737300000000000000000000000000000000000000000000000000000000602082015250565b7f4552433732313a20617070726f766520746f2063616c6c657200000000000000600082015250565b7f227d2c207b22617474726962757465223a20225072697a6520546f6b656e204960008201527f44222c202276616c7565223a2022000000000000000000000000000000000000602082015250565b7f4552433732313a2061646472657373207a65726f206973206e6f74206120766160008201527f6c6964206f776e65720000000000000000000000000000000000000000000000602082015250565b7f227d2c207b22617474726962757465223a202243757272656e6379204164647260008201527f657373222c202276616c7565223a202200000000000000000000000000000000602082015250565b7f227d2c207b22617474726962757465223a2022526576656e756520436c61696d60008201527f6564222c202276616c7565223a20220000000000000000000000000000000000602082015250565b7f4552433732313a20617070726f76652063616c6c6572206973206e6f7420746f60008201527f6b656e206f776e6572206e6f7220617070726f76656420666f7220616c6c0000602082015250565b7f4552433732313a206d696e7420746f20746865207a65726f2061646472657373600082015250565b7f227d2c207b22617474726962757465223a20225469636b657420537570706c7960008201527f222c202276616c7565223a202200000000000000000000000000000000000000602082015250565b7f227d2c207b22617474726962757465223a2022446561646c696e65222c20227660008201527f616c7565223a2022000000000000000000000000000000000000000000000000602082015250565b7f7b226e616d65223a2022526f6c6c204f776e65727368697020546f6b656e206660008201527f6f7220526f6c6c20230000000000000000000000000000000000000000000000602082015250565b7f4552433732313a20696e76616c696420746f6b656e2049440000000000000000600082015250565b7f4552433732313a20617070726f76616c20746f2063757272656e74206f776e6560008201527f7200000000000000000000000000000000000000000000000000000000000000602082015250565b7f646174613a6170706c69636174696f6e2f6a736f6e3b6261736536342c000000600082015250565b7f4552433732313a2063616c6c6572206973206e6f7420746f6b656e206f776e6560008201527f72206e6f7220617070726f766564000000000000000000000000000000000000602082015250565b7f2261747472696275746573223a205b7b22617474726962757465223a2022507260008201527f697a6520636c61696d6564222c202276616c7565223a20220000000000000000602082015250565b7f227d5d7d00000000000000000000000000000000000000000000000000000000600082015250565b7f227d2c207b22617474726962757465223a20225072697a65204164647265737360008201527f222c202276616c7565223a202200000000000000000000000000000000000000602082015250565b614c4c816142e2565b8114614c5757600080fd5b50565b614c63816142f4565b8114614c6e57600080fd5b50565b614c7a81614300565b8114614c8557600080fd5b50565b614c918161434c565b8114614c9c57600080fd5b50565b614ca881614356565b8114614cb357600080fd5b5056fe4142434445464748494a4b4c4d4e4f505152535455565758595a6162636465666768696a6b6c6d6e6f707172737475767778797a303132333435363738392b2fa264697066735822122042955cb69685e38bdf16f9ea9a7aaf69060597e41177b3ff2cad960b1479602564736f6c63430008040033",
  "linkReferences": {},
  "deployedLinkReferences": {}
}