{
    "_format": "hh-sol-artifact-1",
    "contractName": "RollParticipationTokenV0",
    "sourceName": "contracts/RollParticipationTokenV0.sol",
    "abi": [
        {
            "inputs": [],
            "stateMutability": "payable",
            "type": "constructor"
        },
        {
            "anonymous": false,
            "inputs": [
                {
                    "indexed": true,
                    "internalType": "address",
                    "name": "owner",
                    "type": "address"
                },
                {
                    "indexed": true,
                    "internalType": "address",
                    "name": "approved",
                    "type": "address"
                },
                {
                    "indexed": true,
                    "internalType": "uint256",
                    "name": "tokenId",
                    "type": "uint256"
                }
            ],
            "name": "Approval",
            "type": "event"
        },
        {
            "anonymous": false,
            "inputs": [
                {
                    "indexed": true,
                    "internalType": "address",
                    "name": "owner",
                    "type": "address"
                },
                {
                    "indexed": true,
                    "internalType": "address",
                    "name": "operator",
                    "type": "address"
                },
                {
                    "indexed": false,
                    "internalType": "bool",
                    "name": "approved",
                    "type": "bool"
                }
            ],
            "name": "ApprovalForAll",
            "type": "event"
        },
        {
            "anonymous": false,
            "inputs": [
                {
                    "indexed": false,
                    "internalType": "address",
                    "name": "sender",
                    "type": "address"
                },
                {
                    "indexed": false,
                    "internalType": "uint256",
                    "name": "tokenId",
                    "type": "uint256"
                },
                {
                    "indexed": false,
                    "internalType": "string",
                    "name": "rollId",
                    "type": "string"
                },
                {
                    "indexed": false,
                    "internalType": "string",
                    "name": "ticketId",
                    "type": "string"
                }
            ],
            "name": "PrizeClaimed",
            "type": "event"
        },
        {
            "anonymous": false,
            "inputs": [
                {
                    "indexed": false,
                    "internalType": "address",
                    "name": "sender",
                    "type": "address"
                },
                {
                    "indexed": false,
                    "internalType": "uint256",
                    "name": "tokenId",
                    "type": "uint256"
                },
                {
                    "indexed": false,
                    "internalType": "string",
                    "name": "rollId",
                    "type": "string"
                },
                {
                    "indexed": false,
                    "internalType": "string",
                    "name": "ticketId",
                    "type": "string"
                }
            ],
            "name": "RollParticipationTokenMinted",
            "type": "event"
        },
        {
            "anonymous": false,
            "inputs": [
                {
                    "indexed": true,
                    "internalType": "address",
                    "name": "from",
                    "type": "address"
                },
                {
                    "indexed": true,
                    "internalType": "address",
                    "name": "to",
                    "type": "address"
                },
                {
                    "indexed": true,
                    "internalType": "uint256",
                    "name": "tokenId",
                    "type": "uint256"
                }
            ],
            "name": "Transfer",
            "type": "event"
        },
        {
            "stateMutability": "payable",
            "type": "fallback"
        },
        {
            "inputs": [
                {
                    "internalType": "address",
                    "name": "to",
                    "type": "address"
                },
                {
                    "internalType": "uint256",
                    "name": "tokenId",
                    "type": "uint256"
                }
            ],
            "name": "approve",
            "outputs": [],
            "stateMutability": "nonpayable",
            "type": "function"
        },
        {
            "inputs": [
                {
                    "internalType": "address",
                    "name": "owner",
                    "type": "address"
                }
            ],
            "name": "balanceOf",
            "outputs": [
                {
                    "internalType": "uint256",
                    "name": "",
                    "type": "uint256"
                }
            ],
            "stateMutability": "view",
            "type": "function"
        },
        {
            "inputs": [
                {
                    "internalType": "uint256",
                    "name": "_tokenId",
                    "type": "uint256"
                }
            ],
            "name": "claimRevenue",
            "outputs": [],
            "stateMutability": "nonpayable",
            "type": "function"
        },
        {
            "inputs": [
                {
                    "internalType": "uint256",
                    "name": "tokenId",
                    "type": "uint256"
                }
            ],
            "name": "getApproved",
            "outputs": [
                {
                    "internalType": "address",
                    "name": "",
                    "type": "address"
                }
            ],
            "stateMutability": "view",
            "type": "function"
        },
        {
            "inputs": [
                {
                    "internalType": "address",
                    "name": "owner",
                    "type": "address"
                },
                {
                    "internalType": "address",
                    "name": "operator",
                    "type": "address"
                }
            ],
            "name": "isApprovedForAll",
            "outputs": [
                {
                    "internalType": "bool",
                    "name": "",
                    "type": "bool"
                }
            ],
            "stateMutability": "view",
            "type": "function"
        },
        {
            "inputs": [
                {
                    "internalType": "string",
                    "name": "ticketlId",
                    "type": "string"
                },
                {
                    "internalType": "string",
                    "name": "rollId",
                    "type": "string"
                },
                {
                    "internalType": "address",
                    "name": "rollContract",
                    "type": "address"
                }
            ],
            "name": "mint",
            "outputs": [],
            "stateMutability": "nonpayable",
            "type": "function"
        },
        {
            "inputs": [],
            "name": "name",
            "outputs": [
                {
                    "internalType": "string",
                    "name": "",
                    "type": "string"
                }
            ],
            "stateMutability": "view",
            "type": "function"
        },
        {
            "inputs": [
                {
                    "internalType": "uint256",
                    "name": "",
                    "type": "uint256"
                }
            ],
            "name": "nftHolderAttributes",
            "outputs": [
                {
                    "internalType": "string",
                    "name": "id",
                    "type": "string"
                },
                {
                    "internalType": "string",
                    "name": "rollId",
                    "type": "string"
                },
                {
                    "internalType": "address",
                    "name": "rollContract",
                    "type": "address"
                },
                {
                    "internalType": "uint256",
                    "name": "status",
                    "type": "uint256"
                }
            ],
            "stateMutability": "view",
            "type": "function"
        },
        {
            "inputs": [
                {
                    "internalType": "address",
                    "name": "",
                    "type": "address"
                }
            ],
            "name": "nftHolders",
            "outputs": [
                {
                    "internalType": "uint256",
                    "name": "",
                    "type": "uint256"
                }
            ],
            "stateMutability": "view",
            "type": "function"
        },
        {
            "inputs": [
                {
                    "internalType": "uint256",
                    "name": "tokenId",
                    "type": "uint256"
                }
            ],
            "name": "ownerOf",
            "outputs": [
                {
                    "internalType": "address",
                    "name": "",
                    "type": "address"
                }
            ],
            "stateMutability": "view",
            "type": "function"
        },
        {
            "inputs": [
                {
                    "internalType": "address",
                    "name": "from",
                    "type": "address"
                },
                {
                    "internalType": "address",
                    "name": "to",
                    "type": "address"
                },
                {
                    "internalType": "uint256",
                    "name": "tokenId",
                    "type": "uint256"
                }
            ],
            "name": "safeTransferFrom",
            "outputs": [],
            "stateMutability": "nonpayable",
            "type": "function"
        },
        {
            "inputs": [
                {
                    "internalType": "address",
                    "name": "from",
                    "type": "address"
                },
                {
                    "internalType": "address",
                    "name": "to",
                    "type": "address"
                },
                {
                    "internalType": "uint256",
                    "name": "tokenId",
                    "type": "uint256"
                },
                {
                    "internalType": "bytes",
                    "name": "data",
                    "type": "bytes"
                }
            ],
            "name": "safeTransferFrom",
            "outputs": [],
            "stateMutability": "nonpayable",
            "type": "function"
        },
        {
            "inputs": [
                {
                    "internalType": "address",
                    "name": "operator",
                    "type": "address"
                },
                {
                    "internalType": "bool",
                    "name": "approved",
                    "type": "bool"
                }
            ],
            "name": "setApprovalForAll",
            "outputs": [],
            "stateMutability": "nonpayable",
            "type": "function"
        },
        {
            "inputs": [
                {
                    "internalType": "bytes4",
                    "name": "interfaceId",
                    "type": "bytes4"
                }
            ],
            "name": "supportsInterface",
            "outputs": [
                {
                    "internalType": "bool",
                    "name": "",
                    "type": "bool"
                }
            ],
            "stateMutability": "view",
            "type": "function"
        },
        {
            "inputs": [],
            "name": "symbol",
            "outputs": [
                {
                    "internalType": "string",
                    "name": "",
                    "type": "string"
                }
            ],
            "stateMutability": "view",
            "type": "function"
        },
        {
            "inputs": [
                {
                    "internalType": "uint256",
                    "name": "_tokenId",
                    "type": "uint256"
                }
            ],
            "name": "tokenURI",
            "outputs": [
                {
                    "internalType": "string",
                    "name": "",
                    "type": "string"
                }
            ],
            "stateMutability": "view",
            "type": "function"
        },
        {
            "inputs": [
                {
                    "internalType": "address",
                    "name": "from",
                    "type": "address"
                },
                {
                    "internalType": "address",
                    "name": "to",
                    "type": "address"
                },
                {
                    "internalType": "uint256",
                    "name": "tokenId",
                    "type": "uint256"
                }
            ],
            "name": "transferFrom",
            "outputs": [],
            "stateMutability": "nonpayable",
            "type": "function"
        },
        {
            "stateMutability": "payable",
            "type": "receive"
        }
    ],
    "bytecode": "0x6080604052604051806060016040528060238152602001620038c9602391396040518060400160405280600381526020017f525054000000000000000000000000000000000000000000000000000000000081525081600090805190602001906200006c929190620001d2565b50806001908051906020019062000085929190620001d2565b505050620000d36040518060400160405280601a81526020017f536d61727420436f6e747261637420696e697469616c697a6564000000000000815250620000f060201b620011d41760201c565b620000ea60066200019360201b6200126d1760201c565b620003af565b6200019081604051602401620001079190620002c3565b6040516020818303038152906040527f41304fac000000000000000000000000000000000000000000000000000000007bffffffffffffffffffffffffffffffffffffffffffffffffffffffff19166020820180517bffffffffffffffffffffffffffffffffffffffffffffffffffffffff8381831617835250505050620001a960201b60201c565b50565b6001816000016000828254019250508190555050565b60008151905060006a636f6e736f6c652e6c6f679050602083016000808483855afa5050505050565b828054620001e09062000339565b90600052602060002090601f01602090048101928262000204576000855562000250565b82601f106200021f57805160ff191683800117855562000250565b8280016001018555821562000250579182015b828111156200024f57825182559160200191906001019062000232565b5b5090506200025f919062000263565b5090565b5b808211156200027e57600081600090555060010162000264565b5090565b60006200028f82620002e7565b6200029b8185620002f2565b9350620002ad81856020860162000303565b620002b8816200039e565b840191505092915050565b60006020820190508181036000830152620002df818462000282565b905092915050565b600081519050919050565b600082825260208201905092915050565b60005b838110156200032357808201518184015260208101905062000306565b8381111562000333576000848401525b50505050565b600060028204905060018216806200035257607f821691505b602082108114156200036957620003686200036f565b5b50919050565b7f4e487b7100000000000000000000000000000000000000000000000000000000600052602260045260246000fd5b6000601f19601f8301169050919050565b61350a80620003bf6000396000f3fe6080604052600436106101025760003560e01c806370a082311161009557806398da4c951161006457806398da4c951461035f578063a22cb4651461039f578063b88d4fde146103c8578063c87b56dd146103f1578063e985e9c51461042e57610109565b806370a08231146102915780637df124a1146102ce578063904c57471461030b57806395d89b411461033457610109565b80631cb536ed116100d15780631cb536ed146101d957806323b872dd1461020257806342842e0e1461022b5780636352211e1461025457610109565b806301ffc9a71461010b57806306fdde0314610148578063081812fc14610173578063095ea7b3146101b057610109565b3661010957005b005b34801561011757600080fd5b50610132600480360381019061012d9190612432565b61046b565b60405161013f9190612993565b60405180910390f35b34801561015457600080fd5b5061015d61054d565b60405161016a91906129ae565b60405180910390f35b34801561017f57600080fd5b5061019a60048036038101906101959190612503565b6105df565b6040516101a791906128d9565b60405180910390f35b3480156101bc57600080fd5b506101d760048036038101906101d291906123f6565b610625565b005b3480156101e557600080fd5b5061020060048036038101906101fb9190612503565b61073d565b005b34801561020e57600080fd5b50610229600480360381019061022491906122f0565b610937565b005b34801561023757600080fd5b50610252600480360381019061024d91906122f0565b610997565b005b34801561026057600080fd5b5061027b60048036038101906102769190612503565b6109b7565b60405161028891906128d9565b60405180910390f35b34801561029d57600080fd5b506102b860048036038101906102b3919061228b565b610a69565b6040516102c59190612b83565b60405180910390f35b3480156102da57600080fd5b506102f560048036038101906102f0919061228b565b610b21565b6040516103029190612b83565b60405180910390f35b34801561031757600080fd5b50610332600480360381019061032d9190612484565b610b39565b005b34801561034057600080fd5b50610349610cbb565b60405161035691906129ae565b60405180910390f35b34801561036b57600080fd5b5061038660048036038101906103819190612503565b610d4d565b60405161039694939291906129d0565b60405180910390f35b3480156103ab57600080fd5b506103c660048036038101906103c191906123ba565b610ead565b005b3480156103d457600080fd5b506103ef60048036038101906103ea919061233f565b610ec3565b005b3480156103fd57600080fd5b5061041860048036038101906104139190612503565b610f25565b60405161042591906129ae565b60405180910390f35b34801561043a57600080fd5b50610455600480360381019061045091906122b4565b611140565b6040516104629190612993565b60405180910390f35b60007f80ac58cd000000000000000000000000000000000000000000000000000000007bffffffffffffffffffffffffffffffffffffffffffffffffffffffff1916827bffffffffffffffffffffffffffffffffffffffffffffffffffffffff1916148061053657507f5b5e139f000000000000000000000000000000000000000000000000000000007bffffffffffffffffffffffffffffffffffffffffffffffffffffffff1916827bffffffffffffffffffffffffffffffffffffffffffffffffffffffff1916145b80610546575061054582611283565b5b9050919050565b60606000805461055c90612e33565b80601f016020809104026020016040519081016040528092919081815260200182805461058890612e33565b80156105d55780601f106105aa576101008083540402835291602001916105d5565b820191906000526020600020905b8154815290600101906020018083116105b857829003601f168201915b5050505050905090565b60006105ea826112ed565b6004600083815260200190815260200160002060009054906101000a900473ffffffffffffffffffffffffffffffffffffffff169050919050565b6000610630826109b7565b90508073ffffffffffffffffffffffffffffffffffffffff168373ffffffffffffffffffffffffffffffffffffffff1614156106a1576040517f08c379a000000000000000000000000000000000000000000000000000000000815260040161069890612b43565b60405180910390fd5b8073ffffffffffffffffffffffffffffffffffffffff166106c0611338565b73ffffffffffffffffffffffffffffffffffffffff1614806106ef57506106ee816106e9611338565b611140565b5b61072e576040517f08c379a000000000000000000000000000000000000000000000000000000000815260040161072590612ae3565b60405180910390fd5b6107388383611340565b505050565b60006007600083815260200190815260200160002060405180608001604052908160008201805461076d90612e33565b80601f016020809104026020016040519081016040528092919081815260200182805461079990612e33565b80156107e65780601f106107bb576101008083540402835291602001916107e6565b820191906000526020600020905b8154815290600101906020018083116107c957829003601f168201915b505050505081526020016001820180546107ff90612e33565b80601f016020809104026020016040519081016040528092919081815260200182805461082b90612e33565b80156108785780601f1061084d57610100808354040283529160200191610878565b820191906000526020600020905b81548152906001019060200180831161085b57829003601f168201915b505050505081526020016002820160009054906101000a900473ffffffffffffffffffffffffffffffffffffffff1673ffffffffffffffffffffffffffffffffffffffff1673ffffffffffffffffffffffffffffffffffffffff168152602001600382015481525050905060018160600181815250507f65a1fce8ecec95b58988842bcaab80a0c998fbe0d0877986ee96814a7e28188433838360200151846000015160405161092b9493929190612940565b60405180910390a15050565b610948610942611338565b826113f9565b610987576040517f08c379a000000000000000000000000000000000000000000000000000000000815260040161097e90612b63565b60405180910390fd5b61099283838361148e565b505050565b6109b283838360405180602001604052806000815250610ec3565b505050565b6000806002600084815260200190815260200160002060009054906101000a900473ffffffffffffffffffffffffffffffffffffffff169050600073ffffffffffffffffffffffffffffffffffffffff168173ffffffffffffffffffffffffffffffffffffffff161415610a60576040517f08c379a0000000000000000000000000000000000000000000000000000000008152600401610a5790612b23565b60405180910390fd5b80915050919050565b60008073ffffffffffffffffffffffffffffffffffffffff168273ffffffffffffffffffffffffffffffffffffffff161415610ada576040517f08c379a0000000000000000000000000000000000000000000000000000000008152600401610ad190612ac3565b60405180910390fd5b600360008373ffffffffffffffffffffffffffffffffffffffff1673ffffffffffffffffffffffffffffffffffffffff168152602001908152602001600020549050919050565b60086020528060005260406000206000915090505481565b6000610b4560066116f5565b9050610b513382611703565b60405180608001604052808581526020018481526020018373ffffffffffffffffffffffffffffffffffffffff1681526020016000815250600760008381526020019081526020016000206000820151816000019080519060200190610bb89291906120af565b506020820151816001019080519060200190610bd59291906120af565b5060408201518160020160006101000a81548173ffffffffffffffffffffffffffffffffffffffff021916908373ffffffffffffffffffffffffffffffffffffffff1602179055506060820151816003015590505080600860003373ffffffffffffffffffffffffffffffffffffffff1673ffffffffffffffffffffffffffffffffffffffff16815260200190815260200160002081905550610c78600661126d565b7f85e196c2541403613b34827cb106c3ee11e4eb9356a174c9a5330183ebfb036333828587604051610cad9493929190612940565b60405180910390a150505050565b606060018054610cca90612e33565b80601f0160208091040260200160405190810160405280929190818152602001828054610cf690612e33565b8015610d435780601f10610d1857610100808354040283529160200191610d43565b820191906000526020600020905b815481529060010190602001808311610d2657829003601f168201915b5050505050905090565b6007602052806000526040600020600091509050806000018054610d7090612e33565b80601f0160208091040260200160405190810160405280929190818152602001828054610d9c90612e33565b8015610de95780601f10610dbe57610100808354040283529160200191610de9565b820191906000526020600020905b815481529060010190602001808311610dcc57829003601f168201915b505050505090806001018054610dfe90612e33565b80601f0160208091040260200160405190810160405280929190818152602001828054610e2a90612e33565b8015610e775780601f10610e4c57610100808354040283529160200191610e77565b820191906000526020600020905b815481529060010190602001808311610e5a57829003601f168201915b5050505050908060020160009054906101000a900473ffffffffffffffffffffffffffffffffffffffff16908060030154905084565b610ebf610eb8611338565b8383611721565b5050565b610ed4610ece611338565b836113f9565b610f13576040517f08c379a0000000000000000000000000000000000000000000000000000000008152600401610f0a90612b63565b60405180910390fd5b610f1f8484848461188e565b50505050565b6060600060076000848152602001908152602001600020604051806080016040529081600082018054610f5790612e33565b80601f0160208091040260200160405190810160405280929190818152602001828054610f8390612e33565b8015610fd05780601f10610fa557610100808354040283529160200191610fd0565b820191906000526020600020905b815481529060010190602001808311610fb357829003601f168201915b50505050508152602001600182018054610fe990612e33565b80601f016020809104026020016040519081016040528092919081815260200182805461101590612e33565b80156110625780601f1061103757610100808354040283529160200191611062565b820191906000526020600020905b81548152906001019060200180831161104557829003601f168201915b505050505081526020016002820160009054906101000a900473ffffffffffffffffffffffffffffffffffffffff1673ffffffffffffffffffffffffffffffffffffffff1673ffffffffffffffffffffffffffffffffffffffff1681526020016003820154815250509050600061110f826020015183600001516110e985606001516118ea565b6040516020016110fb93929190612871565b604051602081830303815290604052611a97565b9050600081604051602001611124919061284f565b6040516020818303038152906040529050809350505050919050565b6000600560008473ffffffffffffffffffffffffffffffffffffffff1673ffffffffffffffffffffffffffffffffffffffff16815260200190815260200160002060008373ffffffffffffffffffffffffffffffffffffffff1673ffffffffffffffffffffffffffffffffffffffff16815260200190815260200160002060009054906101000a900460ff16905092915050565b61126a816040516024016111e891906129ae565b6040516020818303038152906040527f41304fac000000000000000000000000000000000000000000000000000000007bffffffffffffffffffffffffffffffffffffffffffffffffffffffff19166020820180517bffffffffffffffffffffffffffffffffffffffffffffffffffffffff8381831617835250505050611c21565b50565b6001816000016000828254019250508190555050565b60007f01ffc9a7000000000000000000000000000000000000000000000000000000007bffffffffffffffffffffffffffffffffffffffffffffffffffffffff1916827bffffffffffffffffffffffffffffffffffffffffffffffffffffffff1916149050919050565b6112f681611c4a565b611335576040517f08c379a000000000000000000000000000000000000000000000000000000000815260040161132c90612b23565b60405180910390fd5b50565b600033905090565b816004600083815260200190815260200160002060006101000a81548173ffffffffffffffffffffffffffffffffffffffff021916908373ffffffffffffffffffffffffffffffffffffffff160217905550808273ffffffffffffffffffffffffffffffffffffffff166113b3836109b7565b73ffffffffffffffffffffffffffffffffffffffff167f8c5be1e5ebec7d5bd14f71427d1e84f3dd0314c0f7b2291e5b200ac8c7c3b92560405160405180910390a45050565b600080611405836109b7565b90508073ffffffffffffffffffffffffffffffffffffffff168473ffffffffffffffffffffffffffffffffffffffff16148061144757506114468185611140565b5b8061148557508373ffffffffffffffffffffffffffffffffffffffff1661146d846105df565b73ffffffffffffffffffffffffffffffffffffffff16145b91505092915050565b8273ffffffffffffffffffffffffffffffffffffffff166114ae826109b7565b73ffffffffffffffffffffffffffffffffffffffff1614611504576040517f08c379a00000000000000000000000000000000000000000000000000000000081526004016114fb90612a43565b60405180910390fd5b600073ffffffffffffffffffffffffffffffffffffffff168273ffffffffffffffffffffffffffffffffffffffff161415611574576040517f08c379a000000000000000000000000000000000000000000000000000000000815260040161156b90612a83565b60405180910390fd5b61157f838383611cb6565b61158a600082611340565b6001600360008573ffffffffffffffffffffffffffffffffffffffff1673ffffffffffffffffffffffffffffffffffffffff16815260200190815260200160002060008282546115da9190612d49565b925050819055506001600360008473ffffffffffffffffffffffffffffffffffffffff1673ffffffffffffffffffffffffffffffffffffffff16815260200190815260200160002060008282546116319190612c68565b92505081905550816002600083815260200190815260200160002060006101000a81548173ffffffffffffffffffffffffffffffffffffffff021916908373ffffffffffffffffffffffffffffffffffffffff160217905550808273ffffffffffffffffffffffffffffffffffffffff168473ffffffffffffffffffffffffffffffffffffffff167fddf252ad1be2c89b69c2b068fc378daa952ba7f163c4a11628f55a4df523b3ef60405160405180910390a46116f0838383611cbb565b505050565b600081600001549050919050565b61171d828260405180602001604052806000815250611cc0565b5050565b8173ffffffffffffffffffffffffffffffffffffffff168373ffffffffffffffffffffffffffffffffffffffff161415611790576040517f08c379a000000000000000000000000000000000000000000000000000000000815260040161178790612aa3565b60405180910390fd5b80600560008573ffffffffffffffffffffffffffffffffffffffff1673ffffffffffffffffffffffffffffffffffffffff16815260200190815260200160002060008473ffffffffffffffffffffffffffffffffffffffff1673ffffffffffffffffffffffffffffffffffffffff16815260200190815260200160002060006101000a81548160ff0219169083151502179055508173ffffffffffffffffffffffffffffffffffffffff168373ffffffffffffffffffffffffffffffffffffffff167f17307eab39ab6107e8899845ad3d59bd9653f200f220920489ca2b5937696c31836040516118819190612993565b60405180910390a3505050565b61189984848461148e565b6118a584848484611d1b565b6118e4576040517f08c379a00000000000000000000000000000000000000000000000000000000081526004016118db90612a23565b60405180910390fd5b50505050565b60606000821415611932576040518060400160405280600181526020017f30000000000000000000000000000000000000000000000000000000000000008152509050611a92565b600082905060005b6000821461196457808061194d90612e96565b915050600a8261195d9190612cbe565b915061193a565b60008167ffffffffffffffff8111156119a6577f4e487b7100000000000000000000000000000000000000000000000000000000600052604160045260246000fd5b6040519080825280601f01601f1916602001820160405280156119d85781602001600182028036833780820191505090505b5090505b60008514611a8b576001826119f19190612d49565b9150600a85611a009190612edf565b6030611a0c9190612c68565b60f81b818381518110611a48577f4e487b7100000000000000000000000000000000000000000000000000000000600052603260045260246000fd5b60200101907effffffffffffffffffffffffffffffffffffffffffffffffffffffffffffff1916908160001a905350600a85611a849190612cbe565b94506119dc565b8093505050505b919050565b6060600082511415611aba57604051806020016040528060008152509050611c1c565b60006040518060600160405280604081526020016134956040913990506000600360028551611ae99190612c68565b611af39190612cbe565b6004611aff9190612cef565b67ffffffffffffffff811115611b3e577f4e487b7100000000000000000000000000000000000000000000000000000000600052604160045260246000fd5b6040519080825280601f01601f191660200182016040528015611b705781602001600182028036833780820191505090505b509050600182016020820185865187015b80821015611bdc576003820191508151603f8160121c168501518453600184019350603f81600c1c168501518453600184019350603f8160061c168501518453600184019350603f8116850151845360018401935050611b81565b5050600386510660018114611bf85760028114611c0b57611c13565b603d6001830353603d6002830353611c13565b603d60018303535b50505080925050505b919050565b60008151905060006a636f6e736f6c652e6c6f679050602083016000808483855afa5050505050565b60008073ffffffffffffffffffffffffffffffffffffffff166002600084815260200190815260200160002060009054906101000a900473ffffffffffffffffffffffffffffffffffffffff1673ffffffffffffffffffffffffffffffffffffffff1614159050919050565b505050565b505050565b611cca8383611eb2565b611cd76000848484611d1b565b611d16576040517f08c379a0000000000000000000000000000000000000000000000000000000008152600401611d0d90612a23565b60405180910390fd5b505050565b6000611d3c8473ffffffffffffffffffffffffffffffffffffffff1661208c565b15611ea5578373ffffffffffffffffffffffffffffffffffffffff1663150b7a02611d65611338565b8786866040518563ffffffff1660e01b8152600401611d8794939291906128f4565b602060405180830381600087803b158015611da157600080fd5b505af1925050508015611dd257506040513d601f19601f82011682018060405250810190611dcf919061245b565b60015b611e55573d8060008114611e02576040519150601f19603f3d011682016040523d82523d6000602084013e611e07565b606091505b50600081511415611e4d576040517f08c379a0000000000000000000000000000000000000000000000000000000008152600401611e4490612a23565b60405180910390fd5b805181602001fd5b63150b7a0260e01b7bffffffffffffffffffffffffffffffffffffffffffffffffffffffff1916817bffffffffffffffffffffffffffffffffffffffffffffffffffffffff191614915050611eaa565b600190505b949350505050565b600073ffffffffffffffffffffffffffffffffffffffff168273ffffffffffffffffffffffffffffffffffffffff161415611f22576040517f08c379a0000000000000000000000000000000000000000000000000000000008152600401611f1990612b03565b60405180910390fd5b611f2b81611c4a565b15611f6b576040517f08c379a0000000000000000000000000000000000000000000000000000000008152600401611f6290612a63565b60405180910390fd5b611f7760008383611cb6565b6001600360008473ffffffffffffffffffffffffffffffffffffffff1673ffffffffffffffffffffffffffffffffffffffff1681526020019081526020016000206000828254611fc79190612c68565b92505081905550816002600083815260200190815260200160002060006101000a81548173ffffffffffffffffffffffffffffffffffffffff021916908373ffffffffffffffffffffffffffffffffffffffff160217905550808273ffffffffffffffffffffffffffffffffffffffff16600073ffffffffffffffffffffffffffffffffffffffff167fddf252ad1be2c89b69c2b068fc378daa952ba7f163c4a11628f55a4df523b3ef60405160405180910390a461208860008383611cbb565b5050565b6000808273ffffffffffffffffffffffffffffffffffffffff163b119050919050565b8280546120bb90612e33565b90600052602060002090601f0160209004810192826120dd5760008555612124565b82601f106120f657805160ff1916838001178555612124565b82800160010185558215612124579182015b82811115612123578251825591602001919060010190612108565b5b5090506121319190612135565b5090565b5b8082111561214e576000816000905550600101612136565b5090565b600061216561216084612bc3565b612b9e565b90508281526020810184848401111561217d57600080fd5b612188848285612df1565b509392505050565b60006121a361219e84612bf4565b612b9e565b9050828152602081018484840111156121bb57600080fd5b6121c6848285612df1565b509392505050565b6000813590506121dd81613438565b92915050565b6000813590506121f28161344f565b92915050565b60008135905061220781613466565b92915050565b60008151905061221c81613466565b92915050565b600082601f83011261223357600080fd5b8135612243848260208601612152565b91505092915050565b600082601f83011261225d57600080fd5b813561226d848260208601612190565b91505092915050565b6000813590506122858161347d565b92915050565b60006020828403121561229d57600080fd5b60006122ab848285016121ce565b91505092915050565b600080604083850312156122c757600080fd5b60006122d5858286016121ce565b92505060206122e6858286016121ce565b9150509250929050565b60008060006060848603121561230557600080fd5b6000612313868287016121ce565b9350506020612324868287016121ce565b925050604061233586828701612276565b9150509250925092565b6000806000806080858703121561235557600080fd5b6000612363878288016121ce565b9450506020612374878288016121ce565b935050604061238587828801612276565b925050606085013567ffffffffffffffff8111156123a257600080fd5b6123ae87828801612222565b91505092959194509250565b600080604083850312156123cd57600080fd5b60006123db858286016121ce565b92505060206123ec858286016121e3565b9150509250929050565b6000806040838503121561240957600080fd5b6000612417858286016121ce565b925050602061242885828601612276565b9150509250929050565b60006020828403121561244457600080fd5b6000612452848285016121f8565b91505092915050565b60006020828403121561246d57600080fd5b600061247b8482850161220d565b91505092915050565b60008060006060848603121561249957600080fd5b600084013567ffffffffffffffff8111156124b357600080fd5b6124bf8682870161224c565b935050602084013567ffffffffffffffff8111156124dc57600080fd5b6124e88682870161224c565b92505060406124f9868287016121ce565b9150509250925092565b60006020828403121561251557600080fd5b600061252384828501612276565b91505092915050565b61253581612d7d565b82525050565b61254481612d8f565b82525050565b600061255582612c25565b61255f8185612c3b565b935061256f818560208601612e00565b61257881612fcc565b840191505092915050565b600061258e82612c30565b6125988185612c4c565b93506125a8818560208601612e00565b6125b181612fcc565b840191505092915050565b60006125c782612c30565b6125d18185612c5d565b93506125e1818560208601612e00565b80840191505092915050565b60006125fa601383612c5d565b915061260582612fdd565b601382019050919050565b600061261d603283612c4c565b915061262882613006565b604082019050919050565b6000612640602583612c4c565b915061264b82613055565b604082019050919050565b6000612663601c83612c4c565b915061266e826130a4565b602082019050919050565b6000612686602483612c4c565b9150612691826130cd565b604082019050919050565b60006126a9601983612c4c565b91506126b48261311c565b602082019050919050565b60006126cc604483612c5d565b91506126d782613145565b604482019050919050565b60006126ef602983612c4c565b91506126fa826131ba565b604082019050919050565b6000612712603183612c5d565b915061271d82613209565b603182019050919050565b6000612735603e83612c4c565b915061274082613258565b604082019050919050565b6000612758602083612c4c565b9150612763826132a7565b602082019050919050565b600061277b601883612c4c565b9150612786826132d0565b602082019050919050565b600061279e602183612c4c565b91506127a9826132f9565b604082019050919050565b60006127c1601d83612c5d565b91506127cc82613348565b601d82019050919050565b60006127e4602d83612c5d565b91506127ef82613371565b602d82019050919050565b6000612807602e83612c4c565b9150612812826133c0565b604082019050919050565b600061282a600483612c5d565b91506128358261340f565b600482019050919050565b61284981612de7565b82525050565b600061285a826127b4565b915061286682846125bc565b915081905092915050565b600061287c826127d7565b915061288882866125bc565b9150612893826125ed565b915061289f82856125bc565b91506128aa826126bf565b91506128b582612705565b91506128c182846125bc565b91506128cc8261281d565b9150819050949350505050565b60006020820190506128ee600083018461252c565b92915050565b6000608082019050612909600083018761252c565b612916602083018661252c565b6129236040830185612840565b8181036060830152612935818461254a565b905095945050505050565b6000608082019050612955600083018761252c565b6129626020830186612840565b81810360408301526129748185612583565b905081810360608301526129888184612583565b905095945050505050565b60006020820190506129a8600083018461253b565b92915050565b600060208201905081810360008301526129c88184612583565b905092915050565b600060808201905081810360008301526129ea8187612583565b905081810360208301526129fe8186612583565b9050612a0d604083018561252c565b612a1a6060830184612840565b95945050505050565b60006020820190508181036000830152612a3c81612610565b9050919050565b60006020820190508181036000830152612a5c81612633565b9050919050565b60006020820190508181036000830152612a7c81612656565b9050919050565b60006020820190508181036000830152612a9c81612679565b9050919050565b60006020820190508181036000830152612abc8161269c565b9050919050565b60006020820190508181036000830152612adc816126e2565b9050919050565b60006020820190508181036000830152612afc81612728565b9050919050565b60006020820190508181036000830152612b1c8161274b565b9050919050565b60006020820190508181036000830152612b3c8161276e565b9050919050565b60006020820190508181036000830152612b5c81612791565b9050919050565b60006020820190508181036000830152612b7c816127fa565b9050919050565b6000602082019050612b986000830184612840565b92915050565b6000612ba8612bb9565b9050612bb48282612e65565b919050565b6000604051905090565b600067ffffffffffffffff821115612bde57612bdd612f9d565b5b612be782612fcc565b9050602081019050919050565b600067ffffffffffffffff821115612c0f57612c0e612f9d565b5b612c1882612fcc565b9050602081019050919050565b600081519050919050565b600081519050919050565b600082825260208201905092915050565b600082825260208201905092915050565b600081905092915050565b6000612c7382612de7565b9150612c7e83612de7565b9250827fffffffffffffffffffffffffffffffffffffffffffffffffffffffffffffffff03821115612cb357612cb2612f10565b5b828201905092915050565b6000612cc982612de7565b9150612cd483612de7565b925082612ce457612ce3612f3f565b5b828204905092915050565b6000612cfa82612de7565b9150612d0583612de7565b9250817fffffffffffffffffffffffffffffffffffffffffffffffffffffffffffffffff0483118215151615612d3e57612d3d612f10565b5b828202905092915050565b6000612d5482612de7565b9150612d5f83612de7565b925082821015612d7257612d71612f10565b5b828203905092915050565b6000612d8882612dc7565b9050919050565b60008115159050919050565b60007fffffffff0000000000000000000000000000000000000000000000000000000082169050919050565b600073ffffffffffffffffffffffffffffffffffffffff82169050919050565b6000819050919050565b82818337600083830152505050565b60005b83811015612e1e578082015181840152602081019050612e03565b83811115612e2d576000848401525b50505050565b60006002820490506001821680612e4b57607f821691505b60208210811415612e5f57612e5e612f6e565b5b50919050565b612e6e82612fcc565b810181811067ffffffffffffffff82111715612e8d57612e8c612f9d565b5b80604052505050565b6000612ea182612de7565b91507fffffffffffffffffffffffffffffffffffffffffffffffffffffffffffffffff821415612ed457612ed3612f10565b5b600182019050919050565b6000612eea82612de7565b9150612ef583612de7565b925082612f0557612f04612f3f565b5b828206905092915050565b7f4e487b7100000000000000000000000000000000000000000000000000000000600052601160045260246000fd5b7f4e487b7100000000000000000000000000000000000000000000000000000000600052601260045260246000fd5b7f4e487b7100000000000000000000000000000000000000000000000000000000600052602260045260246000fd5b7f4e487b7100000000000000000000000000000000000000000000000000000000600052604160045260246000fd5b6000601f19601f8301169050919050565b7f222c20226465736372697074696f6e223a202200000000000000000000000000600082015250565b7f4552433732313a207472616e7366657220746f206e6f6e20455243373231526560008201527f63656976657220696d706c656d656e7465720000000000000000000000000000602082015250565b7f4552433732313a207472616e736665722066726f6d20696e636f72726563742060008201527f6f776e6572000000000000000000000000000000000000000000000000000000602082015250565b7f4552433732313a20746f6b656e20616c7265616479206d696e74656400000000600082015250565b7f4552433732313a207472616e7366657220746f20746865207a65726f2061646460008201527f7265737300000000000000000000000000000000000000000000000000000000602082015250565b7f4552433732313a20617070726f766520746f2063616c6c657200000000000000600082015250565b7f222c2022696d616765223a2022697066733a2f2f516d6545393550656355556960008201527f71696f69667a6b7961794c77535033684c4b6e56537a5241327643445677587160208201527f5354222c00000000000000000000000000000000000000000000000000000000604082015250565b7f4552433732313a2061646472657373207a65726f206973206e6f74206120766160008201527f6c6964206f776e65720000000000000000000000000000000000000000000000602082015250565b7f2261747472696275746573223a205b7b22617474726962757465223a2022537460008201527f61747573222c202276616c7565223a2022000000000000000000000000000000602082015250565b7f4552433732313a20617070726f76652063616c6c6572206973206e6f7420746f60008201527f6b656e206f776e6572206e6f7220617070726f76656420666f7220616c6c0000602082015250565b7f4552433732313a206d696e7420746f20746865207a65726f2061646472657373600082015250565b7f4552433732313a20696e76616c696420746f6b656e2049440000000000000000600082015250565b7f4552433732313a20617070726f76616c20746f2063757272656e74206f776e6560008201527f7200000000000000000000000000000000000000000000000000000000000000602082015250565b7f646174613a6170706c69636174696f6e2f6a736f6e3b6261736536342c000000600082015250565b7f7b226e616d65223a2022526f6c6c2050617274696369706174696f6e20546f6b60008201527f656e20666f7220526f6c6c202300000000000000000000000000000000000000602082015250565b7f4552433732313a2063616c6c6572206973206e6f7420746f6b656e206f776e6560008201527f72206e6f7220617070726f766564000000000000000000000000000000000000602082015250565b7f227d5d7d00000000000000000000000000000000000000000000000000000000600082015250565b61344181612d7d565b811461344c57600080fd5b50565b61345881612d8f565b811461346357600080fd5b50565b61346f81612d9b565b811461347a57600080fd5b50565b61348681612de7565b811461349157600080fd5b5056fe4142434445464748494a4b4c4d4e4f505152535455565758595a6162636465666768696a6b6c6d6e6f707172737475767778797a303132333435363738392b2fa2646970667358221220715a4f5bddb2c8fdc850c9f0db19c4047948ec9abdcb237eae18729c56d359e364736f6c63430008040033526f6c6c2050617274696369706174696f6e20546f6b656e20436f6c6c656374696f6e",
    "linkReferences": {},
    "deployedLinkReferences": {}
}